:020000040800F2
:1000000048280020CD010008D5010008011700088C
:10001000D9010008DB010008DD0100080000000034
:10002000939D939B08999697FE000000DF010008BE
:10003000E1010008D26F0008E3010008251800085C
:10004000E7010008E7010008E7010008E7010008F0
:10005000E7010008E7010008E7010008E7010008E0
:10006000E7010008E7010008E7010008E7010008D0
:10007000E7010008E7010008E7010008E7010008C0
:10008000E7010008E7010008E7010008E7010008B0
:1000900081340008E7010008E7010008E7010008D3
:1000A000E7010008E7010008E7010008E701000890
:1000B000E7010008E7010008E7010008E701000880
:1000C000E7010008E7010008E7010008E701000870
:1000D000E7010008E7010008F51A0008E701000839
:1000E000E7010008E7010008E701000800F002F856
:1000F00000F05AF80AA090E8000C82448344AAF168
:100100000107DA4501D100F04FF8AFF2090EBAE865
:100110000F0013F0010F18BFFB1A43F0010318473B
:10012000047E0000247E00000A444FF0000C10F80A
:10013000013B13F0070408BF10F8014B1D1108BF65
:1001400010F8015B641E05D010F8016B641E01F805
:10015000016BF9D113F0080F1EBF10F8014BAD1C55
:100160000C1B09D16D1E58BF01F801CBFAD505E073
:1001700014F8016B01F8016B6D1EF9D59142D6D3CD
:10018000704700000023002400250026103A28BFF5
:1001900078C1FBD8520728BF30C148BF0B607047F9
:1001A0001FB51FBD10B510BD00F08EFA1146FFF748
:1001B000F7FF04F011FC00F0ACFA03B4FFF7F2FF14
:1001C00003BC00F0B3FA00008546084709488047A1
:1001D00009480047FEE7FEE7FEE7FEE7FEE7FEE729
:1001E000FEE7FEE7FEE7FEE704480549054A064B41
:1001F00070470000C1180008ED00000848220020E8
:10020000482800204824002048240020B2F1200380
:100210000AD5C2F1200320FA02F001FA03F321FA11
:1002200002F140EA0300704721FA03F04FF00001A9
:10023000704740EA010310B59B070FD1042A0DD384
:1002400010C808C9121F9C42F8D020BA19BA8842B7
:1002500001D9012010BD4FF0FF3010BD1AB1D307F6
:1002600003D0521C07E0002010BD10F8013B11F82C
:10027000014B1B1B07D110F8013B11F8014B1B1B55
:1002800001D1921EF1D1184610BD10B5431C02E0F9
:1002900010F8011B71B18107FAD14FF0013202C889
:1002A0008C1A8C4314EAC211F9D0C01A0A0603D082
:1002B000C01E10BDC01A10BD0A0401D0801E10BDA2
:1002C0000902FCD0401E10BD40EA010370B59B0737
:1002D0002ED14FF00136042A2AD308C810C99D1B1D
:1002E0009D43121F15EAC61517D0D8B2E1B2401AC5
:1002F00050EA056110D198B2A1B2401A50EA054106
:100300000AD123F07F4024F07F41401A50EA0521B2
:1003100002D1180EA0EB146070BDA342DBD018BA56
:1003200021BA884201D9012070BD4FF0FF3070BD65
:100330000AB9002070BD10F8013B11F8014B63B100
:10034000A3420AD1521E08D010F8013B11F8014B0C
:100350001BB1A34201D1521EEDD1181B70BD421E2C
:1003600012F8013F002BFBD111F8013B002B02F8E2
:10037000013BF9D17047032A40F2568010F0030C7C
:1003800000F0158011F8013BBCF1020F624498BFE8
:1003900011F801CB00F8013B38BF11F8013BA2F185
:1003A000040298BF00F801CB38BF00F8013B11F000
:1003B000030300F0B080121FC0F03680A1EB0301F0
:1003C000022BD1F800C000F0118000F21E804FEA2D
:1003D0001C2351F804CF121F43EA0C6340F8043B7E
:1003E000BFF4F5AF01F1010100F01EB84FEA1C4364
:1003F00051F804CF121F43EA0C4340F8043BBFF40A
:10040000F5AF01F1020100F00FB84FEA1C6351F89B
:1004100004CF121F43EA0C2340F8043BBFF4F5AFAE
:1004200001F10301AFF30080D20724BF11F8013BB3
:1004300011F801CB48BF11F8012B24BF00F8013B94
:1004400000F801CB48BF00F8012B7047431A28BFC2
:100450009A427FF690AF032A1044114440F249803B
:1004600010F0030F1EBF11F8013D521E00F8013DB0
:1004700010F0030F7FF4F6AF11F0030300F0FA80E1
:10048000121FC0F03680A1EB0301022BD1F800C08F
:10049000C0F0118000F21E804FEA0C4351F804CDE9
:1004A000121F43EA1C4340F8043DBFF4F5AF01F1CD
:1004B000020100F01EB84FEA0C6351F804CD121F80
:1004C00043EA1C2340F8043DBFF4F5AF01F10101FC
:1004D00000F00FB84FEA0C2351F804CD121F43EA85
:1004E0001C6340F8043DBFF4F5AF01F10301AFF325
:1004F0000080D20724BF11F8013D11F801CD48BF9B
:1005000011F8012C24BF00F8013D00F801CD48BFCF
:1005100000F8012C704710B5203AC0F00B80B1E80C
:100520001850203AA0E81850B1E81850A0E8185028
:10053000BFF4F5AF5FEA027C24BFB1E81850A0E831
:10054000185044BF18C918C0BDE810405FEA827C4B
:1005500024BF51F8043B40F8043B08BF7047D20762
:1005600028BF31F8023B48BF11F8012B28BF20F803
:10057000023B48BF00F8012B704702F0FF0343EA3B
:10058000032242EA024200F002B84FF000020429BE
:10059000C0F0128010F0030C00F01B80CCF1040CB2
:1005A000BCF1020F18BF00F8012BA8BF20F8022BE6
:1005B000A1EB0C0100F00DB85FEAC17C24BF00F88C
:1005C000012B00F8012B48BF00F8012B70474FF0BA
:1005D000000200B5134694469646203922BFA0E893
:1005E0000C50A0E80C50B1F12001BFF4F7AF09079F
:1005F00028BFA0E80C5048BF0CC05DF804EB890090
:1006000028BF40F8042B08BF704748BF20F8022BD2
:1006100011F0804F18BF00F8012B70474278017825
:100620008378C07841EA022141EA034141EA00604F
:1006300070474FEA102208704A704FEA10428A70E1
:100640004FEA1062CA707047704770477047431A8C
:1006500028BF9A427FF65FAF104410F0030F114499
:100660001EBF11F8013D521E00F8013D10F0030FAE
:100670007FF4F6AF103AC0F00A8010B531E9185097
:10068000103A20E91850BFF4F9AFBDE81040530705
:1006900024BF31E9081020E9081044BF51F8043D97
:1006A00040F8043D12F0030F08BF7047D20728BF7F
:1006B00031F8023D48BF11F8012C28BF20F8023D57
:1006C00048BF00F8012C7047754600F02BF8AE4685
:1006D00005006946534620F00700854618B020B54E
:1006E000FFF782FDBDE820404FF000064FF0000705
:1006F0004FF000084FF0000B21F00701AC46ACE8CA
:10070000C009ACE8C009ACE8C009ACE8C0098D4636
:10071000704710B50446AFF300802046BDE8104096
:10072000FFF74BBD00487047E82100200149182021
:10073000ABBEFEE7260002007047000001078A0EEC
:1007400007490A44D2F8001C000602D548F6CF70CB
:1007500001E04CF68F700140C2F8001C70470000A9
:10076000005000400207930E0C4A30B51344D3F8F2
:10077000002C000648F68F7402EA040048F2800557
:1007800082EA010202D502F0300101E002F4405198
:1007900008432843C3F8000C30BD0000005000405F
:1007A00030B585B00546002400F03CF90120002159
:1007B00003900091CDE9011504A9684600F092F874
:1007C00000B1012400F0E2F805B0204630BD000081
:1007D00006490020C8610648016941F00401016131
:1007E000016941F04001016170470000881B002051
:1007F00000200240064A0021D16106490A6942F000
:1008000002020A614861086940F0400008617047CF
:10081000881B002000200240044B0022DA61044AB9
:10082000136943F00103136101807047881B0020A6
:10083000002002400E49C868C2060E4803D5C269AE
:1008400042F00202C261CA68520703D5C26942F08F
:100850000102C261CA69D20707D0C26942F004022C
:10086000C261C86920F00100C8611420C8607047E7
:1008700000200240881B002070B5044600F0CEF92D
:100880000546114E09E0601C07D024B100F0C6F9FE
:10089000401BA04201D9032070BDF068C007F2D10F
:1008A000F068800601D52020F060F068C00605D40D
:1008B000F069C00702D1F068400703D5FFF7BAFF1F
:1008C000012070BD002070BD0020024031B500F055
:1008D000A5F9044600F0A2F90099001B8842F9D35B
:1008E00038BD00002DE9F047054626480F46012691
:1008F000017E01290FD00121814601762868DFF8A9
:1009000088804CF25034022808D0A2462046FFF7D7
:10091000B3FFA8B131E00220BDE8F0872046FFF721
:10092000ABFF08BB0120FFF753FF2046FFF7A4FFF2
:10093000D8F81010064621F00401C8F810101CE089
:100940004FF0FF303860AC6811E02046FFF752FFEF
:100950005046FFF791FFD8F81010060021F0020171
:10096000C8F8101001D03C6007E004F58064D5E9B8
:10097000020100EB8120A042E7D8002189F818107D
:100980003046C9E7881B0020002002400348016967
:1009900041F080010161002070470000002002400A
:1009A0002DE9F05F05461D4888460024017E164665
:1009B0001F46012909D00121814601764CF2503AA7
:1009C0005046FFF759FF18B123E00220BDE8F09F21
:1009D000012D02D0022D00D00425D346DFF840A01F
:1009E00015E0220130463946FFF710FC81B208EBD2
:1009F0004400FFF711FF5846FFF73EFFDAF81020DA
:100A000022F00102CAF8102018B9641CE4B2AC420A
:100A1000E7D3002289F81820D8E70000881B0020BF
:100A20000020024005480169090605D504494160D6
:100A300004494160002070470120704700200240B7
:100A400023016745AB89EFCD2DE9F84FDFF8A09181
:100A5000002309F1040A0AF1040B1C464FF00F08A9
:100A60000BF1040E01270A68A7403A40BA4272D13E
:100A7000DFF880C14D68A5EB0C0665452BD00DDC79
:100A8000032D34D005DC35B3012D19D0022D2FD123
:100A90001BE0112D16D0122D2AD119E0B6F5881FB2
:100AA00019D006DCB6F5803F15D0B6F5801F1FD1F2
:100AB00011E0B6F5001F0ED0B6F5041F18D10AE0FC
:100AC000CB6815E0CB681B1D12E0CB6808330FE044
:100AD000CB680C330CE08B682BB1012B4FF0080373
:100AE00003D0476104E0042302E0076100E0002333
:100AF000FF2A01D8064601E000F104064FEA84050A
:100B000001D9A5F12005376808FA05FC27EA0C078A
:100B100003FA05F547EA050737604D68ED0060D533
:100B2000354DAE6946F00106AE61AD6924F00306AD
:100B300005F001050095314D7719BE68A5072D0F09
:100B400008FA05FC26EA0C06DFF8B4C0604503D1BC
:100B50004FF0000C17E044E0DFF8A8C0604502D178
:100B60004FF0010C0FE0DFF8A0C0604502D14FF05C
:100B7000020C08E0DFF894C0604502D14FF0030C8E
:100B800001E04FF0040C0CFA05FC4CEA060CC7F827
:100B900008C04D68D9F80060ED034D4601D51643F5
:100BA00000E096432E604D68DAF80060AD035546CC
:100BB00001D5164300E096432E604D68DBF80060D7
:100BC000ED025D4601D5164300E096432E604D6868
:100BD000DEF80060AD02754601D5164300E096438D
:100BE0002E60641C102CFFF43DAFBDE8F88F0000B0
:100BF00000040140000011100010024000000140FC
:100C000000080140000C01400010014000140140A8
:100C10000AB1016170470904FBE70000EFF310809F
:100C200010F0010F72B608480068406A074B4FEA9F
:100C300090021868A2EB0002C2F30D021044186083
:100C400000D162B670470000481B0020B4020020AB
:100C5000074810B5016841F010010160032000F061
:100C60005DF80F2000F006F800F056F8002010BDE7
:100C70000020024010B588B005A9684600F020F9B0
:100C80000398B0F5806F08D0B0F5A06F35D0B0F5FF
:100C9000C06F34D0B0F5E06F33D001201A494FF067
:100CA000804200240968B1FBF0F04FF47A61B0FB98
:100CB000F1F11648491E02604FF6FF72C0E90324A5
:100CC000C0E9011444611248C16941F00101C161E8
:100CD000C06900F0010006900C4800F012FC0028EA
:100CE00009D10C480460094800F027FC002802D113
:100CF000064800F03FFC08B010BD0220CEE70420FB
:100D0000CCE70820CAE70000B8020020481B0020FA
:100D100000100240B402002070470000064A00F0B4
:100D2000070110684FF6FF03184040EA012003490D
:100D300008431060704700000CED00E00000FA0569
:100D40002DE9F047DFF8688104460E46D8F8000028
:100D500000F00700B0420CD2D8F8001021F00701D3
:100D60003143C8F80010D8F8000000F00700B04286
:100D700073D120784F4F800705D57868A16820F09F
:100D8000F000084378602078C00755D060680122E1
:100D900001280CD0022828D0022393FAA3F1B1FA3B
:100DA00081F141F02001490904D0396803E04FF492
:100DB0000033F2E7796A93FAA3F3B3FA83F303F00B
:100DC0001F039A40114248D0796821F00301014382
:100DD0007960FFF723FF0546606841F288310128FA
:100DE0000CD00228894615D022E04FF00073D4E7DA
:100DF000FFF714FF411B494501D916E08946786881
:100E0000C0F381000128F3D116E0FFF707FF411B73
:100E100049450AD87868C0F381000228F5D10BE073
:100E2000FFF7FCFE411B494502D90320BDE8F087CE
:100E3000786810F00C0FF3D1D8F80010404601F09C
:100E40000701B1420BD9016821F00701314301606C
:100E5000006800F00700B04201D00120E6E72078EA
:100E6000400705D57868E16820F4E06008437860C1
:100E70002078000706D57868216920F4605040EAA0
:100E8000C100786000F03CF87968F02292FAA2F292
:100E900001F0F001B2FA82F2D140074A515CC84039
:100EA000064908600F20FFF7E5FE0020BEE70000BE
:100EB0000020024000100240F8740008B802002030
:100EC0000F2202600C4A536803F003034360536827
:100ED00003F0F0038360536803F4E063C360526877
:100EE0004FF4E06303EAD20202610448006800F0B4
:100EF0000700086070470000001002400020024018
:100F000010B519A085B00FC88DE80F001AA01B4BB3
:100F10000068049059681A4801F00C02042A1DD098
:100F2000082A1BD14FF4701494FAA4F401F470123F
:100F3000B4FA84F4E240C9031DF8022010D55968C0
:100F40004FF4003393FAA3F301F40031B3FA83F3BF
:100F5000D94004AB595CB0FBF1F0504305B010BD73
:100F600008485043FAE70000020304050607080991
:100F70000A0B0C0D0E0F10100102000000100240B1
:100F800000127A0000093D002DE9F84F0446007870
:100F9000FE4EC0074FF001057FD070684FF4003857
:100FA000C0F38100012807D07068C0F381000228D7
:100FB0001BD17068C00318D598FAA8F0B0FA80F079
:100FC00040F02000400901D0306800E0706A98FAD3
:100FD000A8F1B1FA81F101F01F0105FA01F108420F
:100FE0005BD06068002879D057E06068B0F5803F3A
:100FF0000BD010B1B0F5A02F11D0306820F48030A4
:101000003060306820F4802002E0306840F48030A6
:101010003060606818B3FFF701FE074609E03068EA
:1010200040F480203060F0E7FFF7F8FDC01B642833
:1010300070D898FAA8F0B0FA80F040F0200040098B
:1010400001D0306800E0706A98FAA8F1B1FA81F135
:1010500001F01F0105FA01F10842E5D01DE0FFF79C
:10106000DDFD074604E0FFF7D9FDC01B6428DFD88B
:1010700098FAA8F0B0FA80F040F02000400901D0C2
:10108000306800E0706A98FAA8F1B1FA81F101F0D5
:101090001F0105FA01F10842E5D12078DFF8F0825E
:1010A00080074FF0000A4FF002075AD570684FF0E2
:1010B000F80B10F00C0F07D07068C0F38100022805
:1010C0001CD17068C00319D497FAA7F0B0FA80F069
:1010D00040F02000400902D0306801E08AE0706AE8
:1010E00097FAA7F1B1FA81F101F01F0105FA01F1B8
:1010F00008422BD0206901287CD127E0206988B3E1
:1011000095FAA5F0B0FA80F048F82050FFF786FD78
:10111000814606E04DE1FFF781FDA0EB09000228C2
:1011200086D897FAA7F0B0FA80F040F02000400986
:1011300001D0306800E0706A97FAA7F1B1FA81F146
:1011400001F01F0105FA01F10842E4D030689BFA72
:10115000ABF220F0F8016069B2FA82F290400143EC
:10116000316025E0FFE795FAA5F1B1FA81F148F881
:1011700021A0FFF753FD814605E0FFF74FFDA0EBEF
:1011800009000228CCD897FAA7F0B0FA80F040F016
:101190002000400901D0306800E0706A97FAA7F19A
:1011A000B1FA81F101F01F0105FA01F10842E4D121
:1011B000207800076DD5A069B8B395FAA5F0B0FA0C
:1011C00080F008EB8000C0F88054FFF727FD8146CF
:1011D00005E0FFF723FDA0EB09000228A0D897FA4D
:1011E000A7F0B0FA80F040F06000B5EB501F02D1DC
:1011F00030680CE063E197FAA7F0B0FA80F040F0B5
:101200006000B7EB501F01D1306A00E0706A97FAB6
:10121000A7F1B1FA81F101F01F0105FA01F21042C4
:10122000D7D00120FFF752FB33E0FFE795FAA5F195
:10123000B1FA81F108EB8101C1F880A4FFF7EEFC5F
:10124000814605E0FFF7EAFCA0EB0900022899D8E7
:1012500097FAA7F0B0FA80F040F06000B5EB501FAD
:1012600001D130680BE097FAA7F0B0FA80F040F0B7
:101270006000B7EB501F01D1306A00E0706A97FA46
:10128000A7F1B1FA81F101F01F0105FA01F2104254
:10129000D8D12078400763D5F06940F08050F061E4
:1012A000F069DFF8F0B000F080500090DBF800103B
:1012B00041F48071CBF80010FFF7B0FC814605E0E7
:1012C000FFF7ACFCA0EB0900642872D8DBF8000043
:1012D000C005F5D5E06801280AD008B1052813D06B
:1012E000306A20F001003062306A20F0040002E031
:1012F000306A40F001003062E06841F2883B80B320
:10130000FFF78CFC81460AE0306A40F0040030624E
:10131000EEE7FFF783FCA0EB0901594549D897FA9E
:10132000A7F0B0FA80F040F04000B5EB501F01D1BB
:1013300030680BE097FAA7F0B0FA80F040F0400078
:10134000B7EB501F01D1306A00E0706A97FAA7F13D
:10135000B1FA81F101F01F0205FA02F10842D8D07A
:1013600033E0FFE7FFF75AFC814605E0FFF756FC44
:10137000A0EB090159451CD897FAA7F0B0FA80F004
:1013800040F04000B5EB501F08D105E000100240CE
:10139000000042420070004030680CE097FAA7F06D
:1013A000B0FA80F040F04000B7EB501F02D1306A35
:1013B00001E08AE0706A97FAA7F1B1FA81F101F0D1
:1013C0001F0205FA02F10842D0D1E06998B37168B2
:1013D000C1F38101022972D002284FF080714FF0D1
:1013E000007B50460AD091FAA1F1B1FA81F148F898
:1013F0002100FFF713FC04465F4669E08A4691FA34
:10140000A1F1B1FA81F1C14648F82100FFF706FCCD
:10141000A84607465D4604E0FFF700FCC01B022813
:1014200053D895FAA5F0B0FA80F040F020004009BA
:1014300002D0306801E060E0706A95FAA5F1B1FA77
:1014400081F101F01F0208FA02F10842E4D1206A9A
:10145000B0F5803F05D17068A16820F400300843E2
:101460007060D4E908010843716821F474110843DD
:1014700070609AFAAAF0B0FA80F0474649F82080E6
:10148000FFF7CCFB044604E0FFF7C8FB001B022873
:101490001BD895FAA5F0B0FA80F040F02000400982
:1014A00001D0306800E0706A95FAA5F1B1FA81F1D7
:1014B00001F01F0107FA01F10842E5D01DE01EE02E
:1014C000FFF7ACFB001B022802D90320BDE8F88F10
:1014D00097FAA7F0B0FA80F040F02000400901D060
:1014E000306800E0706A97FAA7F1B1FA81F101F073
:1014F0001F0105FA01F10842E2D10020E6E70120D0
:10150000E4E710B50446022084F839002068016A37
:1015100041F21112114207D1016A9210114203D116
:10152000016821F001010160204600F021F800204F
:1015300084F8390084F8380010BD10B5040003D0D9
:1015400094F8390010B107E0012010BD002084F8A4
:101550003800204600F00DF8022084F83900211DE3
:10156000206800F0E1F9012084F83900002010BD66
:1015700070477047022180F8391001680A6842F00C
:1015800001020A60012180F839100020704770B50F
:10159000044690F838000D4601280DD0012684F845
:1015A0003860022084F8390042B1042A18D0082A91
:1015B0002AD00C2A4DD139E0022070BD206800F0FD
:1015C000F1F92068816941F0080181612068816931
:1015D00021F004018161206881692A69114311E0C9
:1015E000206800F00BFA2068816941F40061816194
:1015F0002068816921F480618161206881692A699C
:1016000041EA0221816124E0206800F025FA206887
:10161000C16941F00801C1612068C16921F004017C
:10162000C1612068C1692A69114311E0206800F096
:101630003FFA2068C16941F40061C1612068C16955
:1016400021F48061C1612068C1692A6941EA0221EF
:10165000C16184F83960002084F8380070BD10B58D
:101660000446022084F839002068016A41F2111210
:10167000114207D1016A9210114203D1016821F091
:1016800001010160204600F021F8002084F83900B3
:1016900084F8380010BD10B5040003D094F8390068
:1016A00010B107E0012010BD002084F8380020466A
:1016B00000F00DF8022084F83900211D206800F0A8
:1016C00033F9012084F83900002010BD70477047BD
:1016D00010B504460068012200F058F90749206857
:1016E000884203D1416C41F40041416420680168A3
:1016F00041F001010160002010BD0000002C0140FC
:10170000EFF308840EF00F000D2801D1EFF30984E8
:10171000A08B04F12005800500D52D1D5FEACE6069
:1017200000D44835704602F05DF8EFF3098002F00E
:1017300059F8EFF3088002F055F8EFF3148002F047
:1017400051F8284602F04EF8606902F04BF8A069A3
:1017500002F048F8E06902F045F81248006802F02B
:1017600041F81048001F006802F03CF80D48001DC9
:10177000006802F037F80B481030006802F032F8C9
:1017800008480830006802F02DF806480C30006860
:1017900002F028F84A2204A1002001F0C5FE00F062
:1017A000B3F8FEE72CED00E02866696C65290000BF
:1017B0000020704700F01F02012191404009800085
:1017C00000F1E020C0F80011704700002DE9F04161
:1017D00017460D4680460026FFF724F9A80706D0D5
:1017E00000206E220DA101F09FFE00240DE00120DB
:1017F000F7E757F8242008EB840100230220FFF7C5
:10180000CFF808B1012603E0641CB4EB950FF0D3C8
:10181000FFF7BCF83046BDE8F08100002866696C2F
:101820006529000010B50B4CE16849B1206938B159
:101830002268B2FBF0F300FB132008B900208847B0
:101840002068401C2060A068002802D0A068401ECC
:10185000A06010BDDC020020144A10B55068144B83
:1018600010F00C01134803D0042901D0082901D03D
:10187000036012E05168536801F470114FF00204E4
:1018800013F4803F04EB914102D053689B0301D5D0
:10189000094B00E0064B594301605168074AC1F308
:1018A0000311515C0268CA40026010BD0010024082
:1018B00000127A00B802002000093D00F874000808
:1018C0000D48016841F00101016041680B4A114077
:1018D000416001680A4A11400160016821F48021D9
:1018E0000160416821F4FE0141604FF41F018160F5
:1018F0000449C00308607047001002400000FFF870
:10190000FFFFF6FE08ED00E0BFF34F8F04480168CB
:10191000044A01F4E06111430160BFF34F8FFEE719
:101920000CED00E00400FA05F0B50268144C154D0A
:10193000154E4FF08047A04205D0B84203D0A842D0
:1019400001D0B04203D122F070034A681A43A0428A
:1019500005D0B84203D0A84201D0B04203D122F44E
:101960004073CA681A4302608A68C2620A68826267
:10197000A04201D10969016301214161F0BD00006C
:10198000002C0140000400400008004010B5012375
:10199000046A8B409C430462036A8A4013430362D7
:1019A00010BD000030B5026A22F001020262036A33
:1019B0004268846924F073050C682C4323F0020507
:1019C0008B682B430C4DA84206D123F00805CB6849
:1019D00043EA050323F0040307D14D6922F4407262
:1019E00045EA02058A6942EA050242608461496863
:1019F0004163036230BD0000002C014030B5026A33
:101A000022F010020262026A436884690D6824F4BD
:101A1000E64444EA05248D6822F0200242EA0512D9
:101A20000C4DA84206D1CD6822F0800242EA051290
:101A300022F0400207D14D6923F4406343EA850355
:101A40008D6943EA8503436084614968816302626A
:101A500030BD0000002C014030B5026A22F48072D3
:101A60000262036A4268C46923F4007324F07305B8
:101A70000C682C438D6843EA05230C4DA84206D11F
:101A8000CD6823F4006343EA052323F4806307D180
:101A90004D6922F4405242EA05128D6942EA05126C
:101AA0004260C4614968C163036230BD002C0140DB
:101AB00030B5026A22F480520262036A4268C46945
:101AC0000D6824F4E64444EA05248D6823F40053A9
:101AD00043EA0533064DA84204D14D6922F4804201
:101AE00042EA85124260C46149680164036230BD04
:101AF000002C014070B515480468154DA00612D59C
:101B00002868C6B2134801F06FFD132804D9314686
:101B1000104801F0BDFD06E005D14FF013020EA103
:101B20000C4801F0E5FD200607D5104801F06DFDD9
:101B300020B10E4801F07CFD286070BD04480830DB
:101B400001680B4A1140016070BD00000044004074
:101B500004440040B81D00203C4441504C696E6B69
:101B60003A4F766572666C6F773E0A00A81B0020BC
:101B70007FFFFFEF00B50346FEF7E0FD43F23001C3
:101B800018465DF804EBFEF7EDBD0000F0B5827875
:101B9000224D4179047902F00F0344EA012116062F
:101BA0006F682C8802F00F0207EB021204D5491C63
:101BB00021F00101146011E094603E2909D91F3120
:101BC00021F01F014FF0FF3404EB411444F40044B2
:101BD00003E0491C21F001014C02D4602A880A4428
:101BE0002A80C07810F0030006D0012807D0022810
:101BF00008D003280AD107E04FF4007106E04FF443
:101C0000806103E0002101E04FF4C061044A194300
:101C100002EB8300C0F8001CF0BD0000C8020020E9
:101C200000500040002802D10149B02008807047D0
:101C3000C80200200949CA1350B1012008600020E1
:101C400008600B1D18604FF4E0500860044803E082
:101C5000032008600248001F02607047405C00409B
:101C60001408014010B50B4C0B48A2880078824242
:101C700000D902461AB9074900201439087180209A
:101C8000216801F0C7FB216801442160A188081A7E
:101C9000A08010BD080300200B75000810B5064C8D
:101CA0000020A288216801F033F8216801442160F6
:101CB000A188081AA08010BD0803002070470021E9
:101CC000FEF750BD43F22001FEF74CBD2DE9F04771
:101CD0006E4F0446A7F1080580074FF00009A5F1F3
:101CE000140622D501F060FB3878C009FFF7E6FF43
:101CF000F888A8803878C0F3411121B101295AD061
:101D000002296FD165E07978DFF884810C2969D2E6
:101D1000DFE801F0060C6813681827682B31384695
:101D200001F0EEF81FE0FFF79DFF67E0002005E0FF
:101D300001F04AFBD8F8000039E0012001F020F959
:101D4000C0B3F5E710F01F0F4CD1B878012140F077
:101D50008000307000F07F0001F018FB01F034FBD0
:101D60004CE001F003F828B3DDE710F01F0F39D184
:101D700046481B3812E001F053F9D8B101F024FBBA
:101D8000444813E000F01F0001282BD1707888B17F
:101D90003879B178884225D23F4908442860C2E7A3
:101DA00001F004FA30B101F00FFB3C48006828B3A1
:101DB000804723E016E010F01F0013D0012811D156
:101DC00000F074F8D0B900F073F8B8B900F06CF80E
:101DD00007E010F01F0F05D100F09EF870B900F079
:101DE0009DF858B93878000603D4F88808B1002067
:101DF00000E0802001F0D4FAA5F80490600721D516
:101E0000387800061CD4A888E0B1FFF747FFA888FF
:101E1000C0B93878C0F3411161B101290AD110F07D
:101E20001F0007D0012805D100F03CF850B900F0A0
:101E300037F838B9802001F0B3FAA5F8049001E032
:101E400001F0C8FA200712D53878000606D5A88810
:101E5000317908430BD0FFF705FF08E03078010621
:101E600005D500F07F003070002101F08FFA600688
:101E700002D50020FFF77EFE200604D5BDE8F0471E
:101E80008020FFF777BEBDE8F08700001003002038
:101E90007075000868750008C60200206C7500089F
:101EA00000207047002070470020704700207047D6
:101EB00010B51548154A01791278914222D1014690
:101EC0004278C8788B788C7943EA0020CB79FE2A57
:101ED00044EA032109D0FF2A14D198B991B900F03E
:101EE0005DFE78B101F070FA0AE058B9012909D114
:101EF00000F038FB30B1074905480860FFF7B2FE33
:101F0000012010BD002010BD10030020C5020020DC
:101F10009020002008030020002070470020704718
:101F20002DE9F041EFF3108010F0010F72B6DFF8E9
:101F3000E8804FF00002D8F81040C8F8102000D117
:101F400062B6600507D501F0CBF904F0DFF933483C
:101F5000006800B18047200505D501F045FA3048FA
:101F6000006800B18047E00405D501F049FA2D482A
:101F7000006800B18047A00503D52B48006800B178
:101F800080472A4D600403D5296809B1022088479B
:101F9000274FA0042BD5296849B3012026E0EFF391
:101FA000108010F0010F72B622484FF0070250F86F
:101FB000210001F10101B1FBF2F602FB1611C8F894
:101FC000081000D162B686B2050C280604D557F871
:101FD000261009B108208847280408D557F826108C
:101FE00029B1280501D5022000E0042088472004FB
:101FF0000FD5EFF3108000F0010272B6D8E902109D
:10200000814201D1012000E0002002B962B600281F
:10201000C5D0BDE8F0810000C8020020147500089A
:10202000187500081C750008207500082475000844
:102030002875000810210020064810B5C16941F438
:102040000001C1611420FFF7B5FB03494FF40040C4
:10205000086010BD001002401008014070B500F08B
:102060000FF900282AD016480224164E0470447036
:1020700003203463307014480546FEF7CFFA022877
:1020800008D9114920461F39FEF7D3FA29462046C0
:10209000FEF7CFFA0D4822460949007840F080004B
:1020A00001F0B8F92846FEF7B9FA316B401A294613
:1020B000FEF7BFFA044901200839087370BD00001B
:1020C000D020002018030020E02100200C7500081B
:1020D000114910B50878022808D0032810D0042828
:1020E00012D0052801D10020087010BD0B48C07B1C
:1020F000282801D0A828F8D1BDE8104000F076BA11
:10210000BDE8104000F088BD0548007840F0800030
:1021100000F09CFDF4E7000018030020B921002026
:102120000C7500081F4A10B51178B1B301290ED003
:102130001D48052900781BD0072929D000F086FD0D
:102140001A4902200873BDE8104000F065BD174829
:102150001F38C07B2A2803D02F2805D0AA2820D1D9
:10216000BDE8104000F020BBBDE8104000F0ACBA64
:10217000012181400E480068014201D0012000E0A9
:102180000020BDE810404FF488620AA101F0CCB9EC
:1021900000201070106B1F2803D1BDE8104000F024
:1021A000DBB810BD180300200D750008D8210020F1
:1021B000000300202866696C6529000010B5134CE7
:1021C0006068E06008B1012010BD1148FEF726FAF2
:1021D000A0B10F480838007B000604D50D480078F0
:1021E00040F0800008E00A481F30FEF717FA216B24
:1021F000884203D00848007800F028FD04490120F7
:102200001731087300F008FD002010BD18030020EE
:10221000C12100200C7500080D750008134810B589
:10222000007900F08F01080605D501F00F004FF48A
:102230008032824001E001228A400D48007840F05F
:1022400080048C4210D10B48006810420CD00A4820
:10225000FEF7E4F90949884206D12046BDE810405E
:102260000D22054901F0D6B810BD00001003002072
:102270000C75000800030020D8210020555342535C
:1022800070B50B48FEF7CAF9094C0225173440B166
:10229000A4F11F00007B000608D40648007800F077
:1022A000D5FC257300F0B8FC002070BD012070BD86
:1022B000C12100200D75000870B51148FEF7AEF978
:1022C000104C216B884202D82063032000E00420D8
:1022D00020700D480D49226B007840F0800001F01D
:1022E00099F807481F300546FEF798F9216B401A08
:1022F0002946FEF79EF9024900201731087370BD88
:10230000C1210020180300200C750008D0200020F7
:10231000064810B5028807480549007800F0F8FC27
:1023200005490863BDE81040FFF7FCBE12750008C0
:10233000D02000200D7500081803002010B50446B9
:10234000400702D50020FFF7E3FF200703D5BDE8D3
:102350001040FFF7BDBE10BD2DE9F05F7A4E326B25
:102360001F2A01D2134600E01F230020774D784931
:1023700002E00C5C2C54401C9842FAD3DFF8D88160
:102380000127DFF8D0A198F800001F2A40F0800B49
:1023900069D16E48FEF742F97049884263D1281D21
:1023A000FEF73CF9694C1F34211DFEF742F9A4F1F8
:1023B0001700FEF733F904F10801FEF73AF9687BDC
:1023C00018B9A87B08B1102801D9277389E0E87BE8
:1023D0004FF002092A283ED022DC1A2850D00FDC08
:1023E0000428F2D006DCE8B30328EED1BDE8F05FA4
:1023F00000F092BB1228E8D1BDE8F05F00F0BAB857
:10240000232845D007DC1B2836D01E28DDD1BDE8A7
:10241000F05F00F0DDB825283ED02828D5D147E070
:102420009E2841D00FDC5528CFD004DC2F2853D074
:102430003528CAD103E05A2826D09128C5D1BDE855
:10244000F05F00F033BCA1282AD0A3285CD0A828D4
:102450002ED0AA28B9D100F09BFA002806D0287BFC
:10246000000601E004E053E049D43770BDE8F09F76
:10247000BDE8F05F00F022BCBDE8F05F00F0FCBBFF
:10248000BDE8F05F00F054BABDE8F05F00F01CBAA0
:10249000BDE8F05F00F002BBBDE8F05F00F0D6BA27
:1024A000BDE8F05FFFF7DABDBDE8F05F00F088BB84
:1024B00000F06EFA0028D9D0287B000605D586F8F2
:1024C0000090BDE8F05F00F091B89AF8000000F0CD
:1024D000BDFB84F80C9004E0287C800705D4002024
:1024E0002073BDE8F05F00F097BB00F051FA0028C0
:1024F000BCD0287B000602D437703762B6E798F864
:10250000000040F08000E2E7584600F09FFB5CE7E7
:102510004446584600F09AFB2078114C00F00F0119
:102520004FF48030884021685546084320609AF86F
:10253000000000F08BFB28788740206807430620C6
:102540002760307092E7000018030020B9210020B6
:10255000D02000200D7500080C750008555342432B
:102560000403002002490020087001207047000089
:102570009020002010B5FFF783FE002820D0114BDB
:10258000002080211870597002219970D970202480
:102590001C7158719871D8710B48016808200A782D
:1025A00012B11A54491C00E01C54401CC0B224282B
:1025B000F5D3064924200863BDE81040FFF77CBE30
:1025C00010BD0000D0200020C00200201803002011
:1025D0000548C07CC107044800F11F0000D001215C
:1025E000017300F019BB0000B92100202DE9F04172
:1025F000304D314FDFF8C480A969686A00268842EF
:102600000AD33878002440F0800000F01FFB88F8DF
:102610000C6000F001FB08E02A492948097830F8ED
:102620001140E86A844200D30446FFF7C7FD00B9B1
:102630000024A86A68B374B1A96AE8692246014413
:10264000387840F0800000F0E5FEA86A2044A862D7
:10265000E86A001BE862D5E90410AA6A4143914286
:1026600003D1AE62696A08446862144808300746BC
:10267000FDF7D4FF001B3946FDF7DBFF002C06D029
:10268000E86A002803D10320287088F80C60BDE8B0
:10269000F081002CDFD0E96A28690144491EB1FBB2
:1026A000F0F26869824200D90246E969686A03F07B
:1026B000E5FDC1E7180300200C750008D8210020B3
:1026C0000E750008F70200202DE9F041324EDFF8C8
:1026D000CC800025B169706A884208D330483563E0
:1026E000007800F0B3FA88F80C5000F095FAFFF784
:1026F00065FD20B1306B10B3B06A10B10FE03563E7
:102700001DE0F16A30690144491EB1FBF0F27069C5
:10271000824200D90246F169706A03F0AFFD0020E1
:10272000204A336BB16A08E0F7690C183C5D175C0E
:10273000BC4201D0356202E0401C9842F4D3346BB5
:10274000B06A0119B162F06A071BF762D6E904208A
:1027500042438A4203D1B562716A084470620F48ED
:1027600008300546FDF75AFF001B2946FDF761FFBB
:10277000002C0ED017B1307805280AD1306A30B15C
:10278000002088F80C00BDE8F04100F045BA0120B7
:10279000F7E7BDE8F081000018030020D8210020F1
:1027A0000D750008D02000202DE9F041DFF80081F0
:1027B000404F0026D8F81810D8F82400884208D3D3
:1027C0003D48C8F83060007800F040FA3E7300F0F1
:1027D00023FAFFF7F3FC08B9C8F83060D8F83010D6
:1027E000D8F828000844D8F81010884206D9BDE867
:1027F000F041FF2231A1002000F096BE00203149B7
:1028000007E0D8F82830D8F81C400A5C0344401C84
:10281000E254D8F830209042F3D3D8F828001100C1
:102820000844C8F82800D8F82C20A2EB0102C8F808
:102830002C2022D0454692B988B129690844401E0F
:10284000B0FBF1F46869844200D904462246E96984
:10285000686A03F02DFDAE62686A20440CE0D5E999
:1028600004125143814208D1E969686A03F020FDEE
:10287000AE626969686A084468620E4808300546B5
:10288000FDF7CCFED8F830402946001BFDF7D1FEFD
:10289000002C0BD0D8F82C0018B198F800000528AF
:1028A00004D13E73BDE8F04100F0B6B9BDE8F08157
:1028B00018030020D82100200D7500082866696CD7
:1028C00065290000D020002070B5FFF7D9FC002852
:1028D00026D0FFF773FC002822D0124800210622E0
:1028E0000170114B427081701A7A0824D201C270B3
:1028F000017141718171C1710C481C630546FDF77E
:102900008DFE082808D9094920461F39FDF791FE98
:1029100029462046FDF78DFEBDE87040FFF7CCBC90
:1029200070BD0000D020002018030020E02100200E
:1029300070B5FFF7A5FC002822D0FFF73FFC002868
:102940001ED010480321002201700F494270042458
:102950000B7ADB018370C2700C480C630546FDF7EF
:102960005DFE042808D9094920461F39FDF761FE9C
:1029700029462046FDF75DFEBDE87040FFF79CBC90
:1029800070BD0000D020002018030020E0210020AE
:102990002DE9F0412948FDF741FE284D00BA113DCF
:1029A00020F0FF04287D264E04430020C6E909409C
:1029B000E87B2F280AD004DC28280BD02A281CD139
:1029C00004E0A82810D0AA2817D109E0FFF7F6FBE9
:1029D00000282FD0E87DA97D41EA002044BA0CE010
:1029E000FFF7ECFB002825D01448001DFDF716FE6C
:1029F00000BA20F0FF04287E0443306944430F48A6
:102A0000F4620938FDF70AFE0C4F01260E3768B153
:102A1000A04211D0287B000604D50A48007840F077
:102A2000800001E00848007800F010F93E7300F0E3
:102A3000F3F80020BDE8F0810120FBE7CA21002067
:102A4000180300200C7500080D75000810B5FFF77D
:102A500017FC00281CD0FFF7B1FB002818D00D4A46
:102A60000D489169491E0B0E03700B0C43700B0A45
:102A70008370C17011690B0E03710B0C43710B0A4B
:102A80008371C17108201063BDE81040FFF714BCCA
:102A900010BD000018030020D020002070B5FFF703
:102AA000EFFB002830D0FFF789FB00282CD0174817
:102AB0000021174A0170417081700821C17091692D
:102AC0000C240B0E03710B0C43710B0A8371C17143
:102AD0000221017211690B0C43720B0A8372C172DD
:102AE0000C4814630546FDF799FD0C2808D90949DF
:102AF00020461F39FDF79DFD29462046FDF799FD2B
:102B0000BDE87040FFF7D8BB70BD0000D0200020AA
:102B100018030020E021002010B5FFF7B1FB0028CA
:102B200035D01B4870211B4B017000214170DC68BF
:102B30005A6832EA040406D00624847028240473F8
:102B40004173DA6008E0DAB1134A127BE2B1052280
:102B50008270202202734173C170017141718171D1
:102B60000A22C271017241728172C1728173C17392
:102B70000174417412201863BDE81040FFF79CBB3C
:102B8000022282703A22E5E781700173E3E710BD0B
:102B9000D020002018030020D8210020054910B5BE
:102BA000002008600449FDF744FD0449072008702F
:102BB000012010BD04030020D821002018030020AC
:102BC00070B5FFF75DFB00281DD00F4820220021C3
:102BD000027041700D4CC1770320226320700C48B5
:102BE0000949007840F0800000F014FC09480546CF
:102BF000FDF714FD216B401A2946FDF71AFD054922
:102C000001200839087370BDD0200020180300206F
:102C10000C750008E021002010B508490848FDF7B0
:102C200008FD08480D220549007840F0800000F0BA
:102C3000F1FB05490520087010BD0000D8210020D7
:102C4000555342530C7500081803002010B5044674
:102C500000F0A6FB200605D504F00F014FF48030EC
:102C6000884001E00120A04002490A681043086042
:102C700010BD0000000300200A4810B5817C00F15F
:102C80001F0429B101202073BDE81040FFF7C4BF25
:102C9000C07C054900F00100486003F007FB0020FC
:102CA000F1E70000B92100201803002002490020AC
:102CB0000873FFF7B1BF0000D821002010B51048FD
:102CC000FDF7ACFC0E4C173478B1A4F11F00007B6B
:102CD000000604D50B48007840F0800001E00A4867
:102CE0000078FFF7B3FF012004E0FFF767FA002840
:102CF00005D000202073BDE81040FFF78DBF10BD48
:102D0000C12100200C7500080D75000870470000F7
:102D100070B5134B064600F00F005B68114C03EBD7
:102D200000108368808904EB4304C0F309059542D1
:102D300000D9154600236A1C07E034F8040B01F89B
:102D4000010B000A01F8010B5B1CB3EB520FF4D32B
:102D50004FF440513046FDF705FD284670BD000098
:102D6000C802002000600040FFF758BA2DE9FC417E
:102D7000574BA3F11C051878A3F1080410F01F00AD
:102D800002D001287BD18AE05249D878524E0A7885
:102D90004F49524F1C390628C97810D006DC01284B
:102DA00009D0022814D0032869D14FE007282DD07C
:102DB0000F2864D164E04A48206012206DE0002AA8
:102DC0005DD019B1474820600A2066E04648FAE71E
:102DD0000AB9012979D0022021B10097787000202A
:102DE0009B780CE000967070F9E700990A782AB198
:102DF000CA788E7846EA022211440091401C834230
:102E0000F3D100980178D1B3206042E0BAB3072033
:102E100021B10096707000209B780CE000977870CC
:102E2000F9E700990A782AB1CA788E7846EA022230
:102E300011440091401C8342F3D100980178F1B114
:102E40002060C278817841EA022026E0274800907D
:102E50009878032801D0002008E001F003FD0BE082
:102E600000990A780AB111440091401C9978814276
:102E7000F6D10098017811B1206000780DE024E0CF
:102E80001B48007800281ED01A4800902060017866
:102E9000D9B1C178827842EA0120019005E001A908
:102EA000684600F02BF800280DD0A18801988142D7
:102EB00008D9114980B2A0800978491E084201D181
:102EC000012028710120BDE8FC810020FBE7000003
:102ED0001003002009750008C81F0020C40200204C
:102EE0007475000887750008867500088A750008E3
:102EF0000A750008887500080B75000800207047E7
:102F000070B51D481C4C0078A4F1080410F01F0097
:102F10000AD0194AA4F11405184B697812790128CE
:102F200006D0022826D109E01348163820601FE099
:102F300001B3A87882421DD2002015E002F08F0074
:102F4000020605D500F00F064FF48032B24001E0D2
:102F50000122824009B900070CD1A868104209D0AB
:102F6000E868104000D001201870000A58702360F3
:102F7000012070BD002070BD1003002090200020B3
:102F800070B5264B024619461878498810F01F0084
:102F9000A3F11C0604D0012829D0022827D111E072
:102FA000012924D132B1012000F032FAF08840F03A
:102FB000020005E0002000F02BFAF08820F002006B
:102FC000F08029E0187900F08F04200605D504F080
:102FD0000F004FF48035854001E00125A540707851
:102FE00028B1200703D0B068284200D009B10020E2
:102FF00070BD2AB1204600F0D3F9F06828430AE0FA
:103000003069284208D12046FEF7B4FD2046FFF77C
:10301000ABFEF068A843F060012070BD10030020F3
:103020002DE9F05F5B480026017811F01F0F70D189
:10303000584F80781C3FB1464FF0010A4FF4803B57
:1030400000287CD0544801783846C07809B9012856
:103050005FD008B1514C6EE0514C6CE060780228B2
:1030600005D0042848D0052848D0072861D1494810
:103070006179807881423AD1787020794A49B87074
:103080000020484A098802E002F80090401C88426B
:10309000FAD30125B8460AFA05F0D8F80810084214
:1030A00002D02846FEF70BFED8F808100BFA05F000
:1030B000084203D045F08000FEF701FE6D1C102D84
:1030C000E9D34FF00110C8E902090120C8F81090B7
:1030D000FEF7A8FDE0794006B8F8060002D540F0FA
:1030E000010001E020F00100A8F8060021E0E078EE
:1030F000A17841EA00201DE0E6781AE0CEB9A07878
:1031000000F08F05280606D505F00F010BFA01F037
:1031100003E03AE013E00AFA05F0B96801432046FB
:10312000B960FEF733FD2846FEF7CCFD284600F0D7
:103130002BF920780444207800288FD120E04D46D8
:1031400087F8019001245E46B9680AFA04F0084243
:1031500002D02046FEF7B3FDB96806FA04F0084233
:1031600003D044F08000FEF7AAFD641C102CEBD3C2
:103170004FF00110C7E9020500203D61FEF752FD46
:10318000044879788078884202D00020BDE8F09F1A
:103190000120FBE71003002009750008C40200208D
:1031A000C81F0020C6020020BC0200202DE9F84FF5
:1031B000464800273E460078BA4600F01F00B94650
:1031C00001287DD141491C394878002877D000205A
:1031D00000903F4802780846C0780AB9012872D0AA
:1031E0008B4608B13B4C66E03B4C64E060780228BB
:1031F00005D004280DD005281DD0072859D16179A4
:103200009BF80100814254D0E078A17841EA002087
:1032100050E02E48A778E67801794FF00009B942CE
:1032200047D18078B04244D1012000902B4810F85B
:1032300007A0C6553DE025490879B84239D1A078A4
:1032400000F08F085FEA086005D508F00F004FF422
:103250008035854002E0012505FA08F58878B042FE
:1032600015D1DBF8081020462943CBF80810DBF80D
:103270000C10A943CBF80C10FEF788FC4046FEF773
:1032800021FD404600F080F849EA050911E0564565
:103290000FD119EA050F0CD1DBF808104046A943FD
:1032A000CBF80810DBF80C10A943CBF80C10FEF794
:1032B00006FD207804442078002897D1009800E08B
:1032C00001E0BDE8F88F0020F9E7000010030020BE
:1032D00009750008C4020020C81F0020C602002093
:1032E0004FF0E0214FF480100022C1F880011E4809
:1032F00002601E48006818B14FF40050410001E020
:103300000020014608431A490968002901D04FF4FA
:10331000007140EA010002D04FF4807101E04FF0EB
:10332000000140EA0100134940F41C4008601348C2
:1033300011494FF03003026048684FF0700203609B
:1033400082604FF0B0020A8048F2FF71C1600C4900
:103350004FF4485008600B494FF0800008604FF070
:103360001400FEF727BA0000445C004024750008F2
:1033700020750008405C0040C8020020505C0040FE
:10338000005C00404C5C0040FDF7D8B9002903D137
:10339000024940F080000860704700004C5C00402B
:1033A00041F21001FDF7DEB9082202490020FFF7C3
:1033B000AFBC00001003002002484FF40071806889
:1033C00001F005BCF401002000221146802000F02D
:1033D00021B800000248034902780020FFF798BC9A
:1033E0000B750008902000200448016841F0080196
:1033F0000160016841F0040101607047405C0040D9
:103400000248016821F0080101607047405C0040FB
:1034100070470000F0B5174F154606467A6800F071
:103420000F0002EB0012144B126803EB420400235E
:103430006A1C08E091F801C011F802EB5B1C4EEA2F
:103440000C2C44F804CBB3EB520FF3D3796801EBA7
:1034500000114D60094901EB8000D0F8000CC0F369
:103460000110012803D030213046FDF77BF92846B2
:10347000F0BD0000C8020020006000400050004085
:103480002DE9F047244A1068244F20F01F013B69C2
:103490001943396100F4FE41C9431160DFF880909F
:1034A000000448F2800632D59046D8F800000104A6
:1034B0002DD510F00F0009EB8005D5F8004C07D191
:1034C000210405D5210503D479688989890515D09A
:1034D00064F31F4002F074F9200406D544EA0600A4
:1034E00040F68F710840C5F8000C2006DDD5344346
:1034F00048F60F700440C5F8004CD6E72106EDD51C
:10350000C4F30E0161F31F4002F05AF9E6E7BDE88B
:10351000F047FFF751BF0000445C0040C8020020A4
:1035200000500040002070472DE9F04116460F463C
:1035300000281AD1EFF3108000F0010572B60023C5
:103540001A461946184600F071F9040003D13146B5
:10355000384600F0C9F905B962B6002C05D1EFF381
:103560000380C00601D103F07FF9BDE8F0810000BF
:1035700010B528220D490E48FCF7CDFF03F038FAAC
:103580000C4803F02FFA03F093F80B490B4A0C4B4D
:1035900008604FF40071B0FBF1F01160094901229D
:1035A0001A60086009490848086010BD34710008B5
:1035B000E00F0020053D00084C03002028030020F8
:1035C0002C03002030030020E00D002034030020F5
:1035D000044841788078814201D001207047002062
:1035E000704700008402002030B50546EFF31080DC
:1035F00000F0010472B6284600F007F8A968081A1E
:10360000401E002C00D162B630BDEFF3108101F0F6
:10361000010372B6D0E900128A4201D3501A02E0C7
:1036200080681044401A002B00D162B67047000039
:1036300070B50446EFF3108000F0010572B6D4E9CE
:103640000001884201D0012000E0002043220EA1A9
:10365000FFF76AFFE16820680E5C401C2060A168EB
:1036600088420CD302D14FF0010001E04FF000007E
:103670004FF0480204A1FFF757FF0020206005B972
:1036800062B6304670BD00002866696C652900008E
:1036900070B50446EFF3108000F0010572B6626861
:1036A000E06881546068401C6060A16888420CD367
:1036B00002D14FF0010001E04FF000004FF0310265
:1036C00009A1FFF731FF00206060D4E900018842C2
:1036D00001D0012000E00020362203A1FFF724FFE3
:1036E000002D00D162B670BD2866696C65290000A6
:1036F0002DE9F04114460E460746FFF775FF844258
:1037000000D220460546002404E0315D3846FFF72C
:10371000BFFF641CAC42F8D32846BDE8F08100F03E
:10372000D5BB00F0D3BB00207047012070470020BC
:10373000704700002DE9F0418D212748FCF725FF57
:103740008D252648FCF76AFF254F244C224EB842AF
:1037500013D16079217941EA00258D2D01D22A46C5
:1037600001E04FF08D0201D84FF08D051B491A483A
:10377000FCF701FE002086F847008D211748FCF772
:1037800004FF16493846FCF754FF2571280A60717A
:1037900041223546F11DE01DFCF7EDFD95F849008D
:1037A00015F8481F41EA002004F8480F000A60702D
:1037B000A878A070E878E0708200074907484C318B
:1037C0004C30FCF7D8FD95F8440084F84400BDE87F
:1037D000F04100F0C3B800002C210020004F002071
:1037E000646C766B10B5094C94F84B10102901D31A
:1037F000002010BD04EB81014C31FCF71AFF14F8D6
:103800004B0F401CC0B2207010BD0000004F0020C4
:1038100010B5054C4121E01DFCF7B7FE002104F86E
:10382000481F6170E17010BD004F00202DE9F04786
:103830001A4F81461D4616468846F81DFCF725FDA1
:10384000441CB9F1000002D04146FCF79EFE002066
:1038500006B1308005B12870F87900281CD04445A5
:1038600002D8F91D224604E0A4EB0800C119424623
:10387000C91DB9F1000F06D097F8490097F84830F4
:1038800043EA0020308016B14846FCF774FD15B1BC
:1038900097F84A0028700120BDE8F087004F00200B
:1038A000014890F88C007047004F0020054991F8BE
:1038B0004B202AB101F14C02026091F84B00704795
:1038C00000207047004F002002488079002800D077
:1038D00001207047004F002002488079002800D066
:1038E000012070472C2100202DE9F0418846074631
:1038F000FCF7CBFC124D441C41263146E81DFCF779
:1039000044FE412C02D83946224602E0413CE119EE
:1039100032462C46E81DFCF72EFD84F848804FEA1D
:10392000182084F8490000F099F808B1012003E05C
:1039300000F096F800B1022084F84A00BDE8F0815A
:10394000004F0020014981F88C007047004F002093
:103950000149887170470000004F00207047704790
:10396000704770472DE9F0410F4606464FF0FF348F
:103970000025DFF83C8012E0705D082101F034FD85
:1039800084EA006408204146002C02DA81EA4404FB
:1039900000E06400401E10F0FF00F5D16D1CBD4238
:1039A000EADB2021204601F01FFDC043BDE8F08185
:1039B000B71DC1042DE9F0410E4617462021C04332
:1039C00001F012FD04460025DFF83C8012E0705D36
:1039D000082101F009FD84EA006408204146002C1A
:1039E00002DA81EA440400E06400401E10F0FF00A7
:1039F000F5D16D1CBD42EADB2021204601F0F4FC2C
:103A0000C043BDE8F0810000B71DC10470B5144685
:103A10000D460646B2F5806F07D24FF4EF720AA149
:103A20000020FFF781FD022070BD00F02DFC08B1E1
:103A3000102070BD2A462146304600F033FD002894
:103A4000F7D01F2070BD00002866696C6529000052
:103A5000C10600F00F0000D4093070470120704704
:103A60000020704710B500231A4600F051FA0028D4
:103A700000D0012010BD10B502F03CFD012800D09F
:103A8000002010BD2DE9F041164E144C144D307835
:103A9000012806D04FF49C7213A10020FFF744FDCB
:103AA00009E0B078022748B14FF49F720EA10020C0
:103AB000FFF73AFD37700220BDE8F081204600F0A4
:103AC00017F810B137702120F6E704F58064AC4296
:103AD000F4D30120B0700020EEE7000000C0000821
:103AE00000FC0108600200202866696C652900005E
:103AF0002DE9F0412A4E04463078012806D04FF4D3
:103B0000807228A10020FFF70FFD19E04FF48068B4
:103B10004046B4FBF0F108FB1141022511B14FF40E
:103B2000847208E0F17871B1D6E902121144A14221
:103B300009D040F20F121BA10020FFF7F5FC3570F1
:103B40000220BDE8F0811949B4F1006F01D38C4225
:103B500023D30121F170164FC6E902481548BC4233
:103B600001D3844201D322200CE0FFF779FF01004A
:103B70004FF0250006D039468C4203D142463846E4
:103B8000FFF744FF252803D00028DAD03570D8E7A6
:103B9000204600F079FB0028D3D035702020D0E7F4
:103BA000600200202866696C6529000000BC0008DE
:103BB00000C0000800FC01084FF48060704700005E
:103BC00010B5272804D2064951F82000002805D155
:103BD000ED2204A10020FFF7A7FC04A010BD000007
:103BE000587000082866696C652900000000000014
:103BF00001460120272901D20148405C704700009E
:103C0000A80100202DE9F04789460446804600E0DF
:103C1000641C2078402802D00028F9D163E0607845
:103C2000622847D012DC522853D008DC422841D009
:103C3000442848D0482840D04D2817D133E0542894
:103C40003ED0552832D0562810D13FE0722840D0BF
:103C500006DC642837D068282FD06D2806D122E0F2
:103C600074282DD0752821D076282FD020A5204665
:103C7000FCF70BFB07462846FCF707FB0646A01996
:103C8000C11908EB0902891E91422BD2BA1EA11C50
:103C9000FCF7DCFB324629462046FCF76CFB20781B
:103CA0000028B6D11FE000F0D1FD01E000F0D6FD04
:103CB0000546DCE700F074FDFAE700F0A3FDF7E746
:103CC00000F0C8FDF4E700F099FDF1E700F0CEFD4B
:103CD000EEE7094890F82A0010B1074D2A35C6E7EB
:103CE000064DC4E73C44A4EB0800BDE8F0870000A3
:103CF0004552524F52000000D26F00088C7E0008DF
:103D0000704700002DE9F0411E4615460C46074657
:103D100002F01CFF2C4890F8201003290FD0022C31
:103D20000FD004B3012C0AD10168A94207D190F841
:103D30002210A9B300214A1E016082608161BDE8A2
:103D4000F0810068A842FAD1304602F08DFC0446AA
:103D5000304602F08DFC0646384601F0C7FD0346AA
:103D60002246314617E0384601F0C0FD0328E6D070
:103D7000304602F077FC8007E1D4384601F0B6FD0A
:103D80000746304602F070FC0446304602F070FCF4
:103D900001463B4622462846BDE8F04101F018BFE7
:103DA00028220A490848FCF7B6FB01F003FE084840
:103DB0008178012903D14178022900D18170BDE8C1
:103DC000F04101F0FFBD0000E00F00203471000859
:103DD000840200202DE9F0411D4E0446174696F856
:103DE00022008846550260B92946404601F050FD40
:103DF000032802D0214601F0AFFE96F822000028E9
:103E00000FD07068A0420CD8F068A0420BD008D93F
:103E10003069401C00D134613069A04200D20446B0
:103E20003461BDE8F081F0692A461044F061E01980
:103E3000F06096F8230020B1BDE8F041002001F0C9
:103E400001BF41462046BDE8F04101F041BE0000FF
:103E5000E00F0020F0B518A185B009680491027840
:103E6000002104AB5C5C944224D0491C0329F9D3A3
:103E700012A1002291E878006F46815C8DE87800FD
:103E8000A1F1610CBCF1190F14D9202901D2052927
:103E900010D14FF0000C17F80CE08E450AD00CF151
:103EA000010CBCF1100FF6D3521C0B2AE5D30120F4
:103EB00005B0F0BD0020FBE7E5002000222A2B2CF6
:103EC0002E2F3A3B3C3D3E3F5B5C5D7C70B50D4D1B
:103ED00000202C7874B100212970A97809B100F074
:103EE000ADFA022C05D06978032902D0002800D150
:103EF000242070BD4FF4A27203A10020FFF714FB31
:103F0000022070BD300200202866696C652900001F
:103F1000FEB51C460546302901D3012000E00020F3
:103F2000422215A1FFF700FB0C2205F12001684693
:103F3000FCF721FA124E0CB900203071114901989A
:103F400088420BD110490098884201D10220FEBD61
:103F50000D49FC3988420CD10120FEBD284602F0F3
:103F600065FA18B11CB90120307100E00CB10320D2
:103F7000FEBD0020FEBD00002866696C65290000BA
:103F800030020020089996978F9E939B2DE9FF5F42
:103F90004FF00004DDF838905FEA030893460746C7
:103FA000254613D05FEA090010D00020C8F80000B1
:103FB0000646C9F80000FFF751FDDFF8CCA088B134
:103FC0003248022F04D0032F0AD042E06C2254E082
:103FD000BBF1000F04D00199814201D01B2439E0CC
:103FE000064612E0FFF73CFD90B3012F02D0032FED
:103FF0000ED02EE04FF00061BBF1000F04D001980D
:10400000884201D01A2425E00E46DAF8005021E05B
:104010001F48FCF703FBD8B100F10C0506E005F1E1
:104020000800FCF7FBFA01280DD014352846FCF7F0
:10403000F5FA0028F3D1281DFCF7F0FA0028EED19C
:104040001448056806E02846FCF7E8FA0646F7E754
:10405000FFE71C24FFF769FB08B9012F04D02CB13E
:10406000204604B0BDE8F09F1C24F9E725B1C8F84C
:104070000060C9F80050F3E7AE2207A10020FFF767
:1040800053FA0220EDE700003071000800C000087C
:10409000E26F0008087100082866696C6529000055
:1040A0002DE9F0411C490646002548789046012834
:1040B00004D0022804D003282CD103E0174D22E0BD
:1040C000174D20E0087928B31648FCF7A7FA08B383
:1040D00000F10C040CE0B74209D8201DFCF79EFA51
:1040E000B04204D3201DFCF799FA05460AE01434C7
:1040F0002046FCF793FA0700EDD1201DFCF78EFA5D
:104100000028E8D135B106EB0800A84202D301200F
:10411000BDE8F0810020FBE73002002000BC000871
:1041200000FC0108E26F000810B50C4C207830B19B
:10413000BD220BA10020FFF7F7F9022010BDFF22DE
:1041400030210948FCF719FA012020700020607026
:10415000A060E0602061A070E07010BD300200201F
:104160002866696C65290000640500202DE9FE4F72
:10417000414F0646894638781546012807D0D22295
:104180003EA10020FFF7D0F90220BDE8FE8FF878AD
:104190004FF0010A18B9FE603E6187F803A0B878B5
:1041A0004FF00308002853D139698E4201D1012014
:1041B00000E000202944396130B3B868C0F1300410
:1041C000AC4200D914462F49224608444946FCF720
:1041D000D2F8B8682D1B2044A1442644B86030288A
:1041E0002CD302D14FF0010001E04FF000004FF05E
:1041F000F40222A1FFF798F9D7E90212012321481E
:10420000FFF786FE787001E087F8018001A8009032
:1042100002AB01227878F968FFF7B8FEF0B9B878F8
:1042200040F20D1280F0010014A1FFF77DF9019812
:1042300000F0BCF890B987F802A001E0B87880B12E
:10424000D7E902200F4900F02BF838B9B87840B10F
:104250002A464946304600F023F810B187F800801E
:1042600093E72A4649463046FFF71AFF00288CD0CC
:1042700002203870132088E7300200202866696C1D
:10428000652900006405002010B5EFF3108101F0EE
:10429000010472B6FCF784FA002C00D162B610BD9E
:1042A0002DE9F0473D4E05460024707817468846B4
:1042B000012807D07C223AA10020FFF735F902201F
:1042C000BDE8F087F0784FF0020A50B9284601F0B7
:1042D000B3F9040002D086F801A05CE00120F07080
:1042E0007561B068B5FBF0F100FB11516A1A716994
:1042F000B1FBF0F300FB1310081A824204D02846E9
:1043000000F0DCF80400E6D13069B5FBF0F100FB09
:1043100011516A1A7169B1FBF0F300FB1310081A0E
:10432000824204D0284601F087F90400D3D1B14677
:104330004E46D6E901010844A84207D8284600F0B5
:10434000BDF8040002D089F801A024E00FB3D6E93B
:1043500003010844A84204D8284601F06DF904007E
:10436000F1D17068B168B146281A0E1AB74200D26E
:104370003E460D49324608444146FBF7FCFF36B144
:10438000002089F802003544B044BF1BD0E701206B
:10439000F7E7C9F81450204692E7000044020020D5
:1043A0002866696C652900009405002070B51F4DD2
:1043B0000446687808B1482226E024B3606810B348
:1043C000A06800B3E068F0B12069E0B16069D0B1E5
:1043D000A069C0B1E069B0B1FF224FF48061144818
:1043E000FCF7CBF80126AE700020E8706860A8608A
:1043F000E8602861C5E9050420688047040008D109
:10440000287838B110E04E220AA10020FFF78CF87E
:10441000022070BDA86900698047040004D0A86923
:1044200040688047204670BD6E70FBE74402002064
:10443000940500202866696C6529000070B5154C4C
:104440000025607810B1012807D00AE0CD2212A122
:104450000020FFF769F8022070BD002000F02EF860
:104460000546A069406880470646FF224FF48061F8
:104470000B48FCF782F80120A0700021E170616018
:10448000A160E1602161616161700EB1304670BD73
:10449000284670BD440200202866696C652900002A
:1044A0009405002010B5EFF3108303F0010472B6F9
:1044B000FDF78CF9002C00D162B610BD70B50E4E20
:1044C00005460024B07840B9B0690C498368D6E944
:1044D0000102984704460120B070FF220748B168E6
:1044E000FCF74BF8B068B5FBF0F100FB1150281A4F
:1044F0007060204670BD000044020020940500203A
:1045000010B50648FCF78AF828B100F5CE70FCF724
:1045100085F8002801D101480C3810BDE26F000871
:1045200010B50948FCF77AF830B190F8A11190F86D
:10453000A02152EA012005D103481038C1788278C1
:1045400042EA012010BD0000E26F0008034601228C
:104550000149002018470000081000200020704783
:104560000248006840F30000401C7047080C0140FE
:104570002DE9F043544885B0816941F0040181611F
:10458000816901F004010491816941F008018161B0
:10459000816901F008010491816941F01001816194
:1045A000816901F010010491816941F0200181616C
:1045B000816901F020010491816941F0010181616B
:1045C000816901F00101049140494A6822F0E062EA
:1045D00042F000724A60816941F0040181618069A2
:1045E0004FF4004600F004000490394806600124AE
:1045F000DFF8DC90CDE900640325A9F110096946D4
:1046000048460395FCF720FA0122570239464846EE
:10461000FCF7FEFACDE90074694648460395FCF7BD
:1046200013FADFF8B080012240214046FCF7F0FA8F
:104630004020CDE90004694603954046FCF704FAA2
:10464000012239464846FCF7E3FACDE90074694691
:1046500048460395FCF7F8F9012239464846FCF72D
:10466000D7FACDE90074694648460395FCF7ECF9A2
:10467000012211464046FCF7CBFA1120CDE900405B
:10468000694640460294FCF7DFF900223146404675
:10469000FCF7BEFACDE90064694640460395FCF795
:1046A000D3F9200200900220019003956946484604
:1046B000FCF7CAF900F0A6FA07480490401E0490DF
:1046C000FCD105B0BDE8F0830010024000000140BD
:1046D00010080140000C014040420F0028B10022A8
:1046E0004FF400710248FCF793BA0122F8E700008A
:1046F0000008014028B100224FF400710248FCF785
:1047000087BA0122F8E700000008014028B1002222
:104710004FF400710248FCF77BBA0122F8E7000071
:1047200000080140092800D927303030C0B2704756
:1047300010B513490020086012490860124908604A
:10474000124908604BF6FC314FF00060FFF70AF9A0
:104750000B4908600E490F48FFF704F90949086042
:104760004FF480610C48FFF7FDF8074908604FF4EB
:1047700080610A48FFF7F6F80449086010BD0000A0
:10478000D4010020D8010020DC010020E00100203D
:10479000FC3B010000C0000800BC000800FC010850
:1047A00000487047E40100200120C106064A096A5A
:1047B000914200D000204FF00061044A496A9142C2
:1047C00000D0002070470000939D939B0899969716
:1047D00000B5FFF7E9FF08B9002000BD4FF0006009
:1047E000806AFAE70148006870470000D4010020A1
:1047F0000148006870470000D80100200048704759
:10480000F003002000487047AE0300200120064955
:10481000064A096A914200D000200349044A496AC5
:10482000914200D00020704700C000088F9E939BEB
:104830000899969700B5FFF7E9FF08B9002000BD79
:104840000148806AFBE7000000C00008004870478C
:10485000A103002000487047CF03002000487047A4
:104860007003002000487047F9030020004870479B
:10487000EE01002010B5FFF75BFF054800F04AFD90
:1048800000F026FE00F07CFF00F04EFF10BD00009F
:104890005003002010B5124C207830B1632211A1D2
:1048A0000020FEF741FE022010BD002211461046F6
:1048B000FCF77EFF08B11D2010BD00206070A070C5
:1048C000E070A060E060207120616061A0614FF441
:1048D00080610648FBF759FE01202070002010BDC2
:1048E000600200202866696C652900009409002098
:1048F0002DE9F05FDFF8CCA00446304F9AF80000B5
:104900002F4D90468B46012808D04FF4BD722EA142
:104910000020FEF709FE0220BDE8F09FBC4201D353
:10492000AC4201D32220F7E7FFF79AF8A8B32E1B79
:10493000301F4146404501D90A4600E0321F594622
:10494000DAF81800FFF736F88146CAF81800204850
:10495000844208D21F49E01B084442465946FBF7EF
:104960000AFD0020D8E704EB0800A84223D10BEB96
:10497000060010F8015C001FFBF750FE65F31F6096
:104980005546814501D02620C6E75A464146204675
:10499000FFF788FD10B11F20BEE70CE04FF48062E6
:1049A0000C493846FFF732F80446FFF7C1FE0120F4
:1049B00068702046B0E72520AEE7000000C0000880
:1049C00000FC0108600200202866696C652900006F
:1049D00000C400089409002000F030FDFFF7C8FD76
:1049E000FEF7A8FEFFF7BCFDF8B9FFF7B7FDE0B989
:1049F00013480446FBF712FEB8B10C30FBF70EFE6D
:104A000001F014FD88B1FEF767FF70B92046FBF78F
:104A100005FE0C300446FBF701FE0A4908602046FB
:104A2000FBF7FCFD03C8FBF7CFFB00F0C0F800224A
:104A30001146054800F0D6F800F0BEF8FEE7000089
:104A4000E26F000808ED00E05D4A0008024901221B
:104A50000A70487070470000F40100200125FEF73D
:104A60003BFF10B1642000F09DF800F0B9F8434F0F
:104A7000B8600020FFF73EFE0020FFF72FFE28461B
:104A8000FFF744FEFFF7F6FE01F0D4FB012001F032
:104A900005FF002001F0CCFB4FF0000887F80380F1
:104AA0000120C7F80C80B87001460B2443464246EB
:104AB000334800F09CF8032100F09EF84FF0FF39D6
:104AC00040F2032A4A460021504600F087F886B299
:104AD000B00501D5FDF724FAF0072FD05A2001F0D8
:104AE000F5FEF878012806D1F86810B1401EF8608C
:104AF00001D187F80380B878F0B101280ED00328DF
:104B000014D004281AD1F878C0B90CB1641E15D19C
:104B1000002001F08DFB87F802800FE00CB1641ECD
:104B20000CD1012001F084FB032003E001F078FBAD
:104B300020B10220B87001E0FCF7E6FEB007C1D555
:104B400038780028BED07878012808D0022806D00E
:104B5000012587F800802846FFF7D8FDB2E7012D30
:104B600001D0012500E00025002DF4D00128F2D16C
:104B700087F8008087F80180EDE70000F40100204D
:104B80009D5A0008FFF7D0BA10B5044640F2011153
:104B9000FBF7FBFC00F03CFC00202070BDE810405F
:104BA000FFF7C2BA10B500F061FF002010BD10B5CC
:104BB00000F02CFF002010BD10B500F04DFF0020CC
:104BC00010BD00207047002070470020704710B5CE
:104BD0000C46084600F0FCFE204610BD00F002BF67
:104BE0000120704710B500F031FF012010BD10B555
:104BF00000F026FF012010BD10B5084600F000FFB0
:104C0000002010BD70B58EB00CA907A8FCF758F9AC
:104C10000B98B0F5005F05D0B0F5205F23D0B0F55C
:104C2000405F22D001202549274D00240968B1FBAF
:104C3000F0F02349B0FBF1F62248C5E90004761EE6
:104C4000C5E903642148AC606C61816941F400618D
:104C50008161806900F400600D902846FCF7FFFC3C
:104C600028B1532223E00220DDE70420DBE71648C9
:104C7000FCF711FD08B1592219E07020CDE90004BC
:104C80000294039404940594002269460E48069405
:104C9000FCF77DFC08B1662209E0296870084863CA
:104CA00000210948FCF714FD002804D06D2208A15A
:104CB0000020FEF739FC0EB070BD0000B8020020E5
:104CC00000127A00002C01400C1B00200010024052
:104CD0002866696C652900002DE9F84F8A460C9C0E
:104CE000054600EB0A08874E00202060F078DFF8C8
:104CF00018921F46934600281CD00020F07099F8A7
:104D0000002009F104011846FBF735FB99F8000073
:104D10002168074408442060706899F80220010C5B
:104D200099F80130090443EA0220014399F8000090
:104D300008447060DEE028780A2827D00D28FCD0CF
:104D40003A281BD03178002978D0FEF781FE00F098
:104D50000F02707819F800301A4309F80020401C3F
:104D6000C2B2727099F800000090401D824264D374
:104D7000654A0021084613785B1D0EE02521624834
:104D8000FBF703FC002030707070B070B1E012F8D7
:104D900000C0401C6144C9B2C0B28342F7D809B117
:104DA00004204CE0B078002847D10120B07099F879
:104DB000021099F8012042EA012149BA89F801104C
:104DC000090A89F8021099F8030030B1012836D099
:104DD00002284AD0042830D161E04B49252201F154
:104DE0002500FBF7C8FA706899F8022099F801309D
:104DF000010C090443EA02221143814203D001203D
:104E0000F07002201BE009F104013846009AFBF71C
:104E1000B2FA99F8000021680744084420607068DD
:104E200099F80220010C99F80130090443EA0220A4
:104E3000014399F800000844706056E04CE0814658
:104E400021680A98FF22411A3846FBF796FB206832
:104E50007168091A0B980160A8EB0501AAEB010122
:104E60004846CBF80010BDE8F88F21680A98FF2269
:104E7000411A3846FBF781FB20687168091A0B98C4
:104E80000160A8EB0501AAEB0101CBF8001099F82D
:104E9000041099F80500090341EA001019E021689F
:104EA0000A98FF22411A3846FBF767FB20687168B1
:104EB000091A0B980160A8EB0501AAEB0101CBF8D8
:104EC000001099F8051099F8042042EA012040BA30
:104ED000000470600220C6E7717825290FD2FEF722
:104EE000B7FD7278010109F80210307838B100205E
:104EF00030706D1C45457FF41EAF00209FE70120F8
:104F0000F6E700007C020020940D00202DE9F05F00
:104F1000DFF800810446DFF8F89098F800001546A5
:104F20008B46012805D0A3223BA10020FEF7FCFA06
:104F30003FE04FF48060B4FBF0F300FB1343014605
:104F400002260BB1AC222EE00A46954204D3B5FBF3
:104F5000F0F302FB135008B1B32224E0B4FBF1F0EC
:104F600002FB10402844884201D9BA221BE098F87D
:104F7000020078B998F8030050B1D8F808008442CC
:104F800004D3D8F80C100844A04203D8C8220AE081
:104F9000C22208E098F8040070B1D8E9040108447E
:104FA000A04209D0D0221CA10020FEF7BDFA88F84B
:104FB00000600220BDE8F09F19486719844202D2C0
:104FC000B7F1006F17D84FF0010A88F804A02A46FD
:104FD00059462046C8E90445FFF78AFC252804D035
:104FE0000028E7D088F80060E4E75A4629462046C2
:104FF000FFF758FA18B188F800601F20DAE74F452C
:1050000003D3FFF795FB88F801A00020D2E700004A
:1050100000FC0108600200202866696C6529000018
:1050200000BC00084FF480607047000070B5144663
:105030000E46054620444FF48061B1EB402F07D265
:1050400040F265220AA10020FEF76EFA002070BD32
:105050004FF400713046FBF798FA35B90648074916
:10506000006942013046FBF786F9600270BD00001E
:105070002866696C652900009C0200200C1700203E
:1050800010B50B464FF4007408B1002010BD224645
:1050900002491846FBF76FF9204610BD4C1400205A
:1050A0002DE9F8430C4600210E46009110B1002076
:1050B000BDE8F883DFF8C88098F80000012845D0E3
:1050C000022845D0002720462EA101F065F90546AB
:1050D00060192FA101F060F9054460192E4901F013
:1050E0005BF9054460192DA101F056F905446019DA
:1050F0002BA101F051F905446019B8F8021001F034
:1051000054F90544601925A101F046F9054477B129
:10511000601925A101F040F905446019394601F0F4
:105120003BF9054460191DA101F036F905446846B4
:10513000FEF7BCFB070021D00098F8B160191DA153
:1051400001F02AF905444FF4007811E01CA7BAE7F2
:105150001EA7B8E7009850F82610761CF6B2601922
:1051600001F0F2F8054460190CA101F015F90544AD
:10517000BE4203D205F10A004045EBD3284697E72B
:10518000940200204173736572740D0A00000000E0
:1051900046696C653A200000081200200D0A0000E4
:1051A0004C696E653A200000536F757263653A2052
:1051B0000000000048657864756D70730D0A00008A
:1051C000426F6F746C6F6164657200004170706C47
:1051D00069636174696F6E000A4608B10020704708
:1051E0004FF40071104600F0EBBD00002DE9F047D0
:1051F0000D46044601F04AFB0646FEF7E1FC074671
:105200003046FEF7F5FC064614B10020BDE8F087F5
:1052100028461B4901F0C0F804462819394601F018
:10522000BBF80444281917A101F0B6F81449044446
:105230002819C91F01F0B0F8044400274FF00108F5
:10524000DFF8449013E0B8F1000F04D128190FA142
:1052500001F0A2F80444F00707D059F827102819E4
:1052600001F09AF804444FF0000876087F1C0EB154
:10527000052FE8D3281903A101F08EF82044C5E7D3
:10528000637100080D0A0000747200082C200000F1
:1052900070B50C4608B1002070BD4FF4007529466A
:1052A0002046FBF772F90748FAF7EFFF0246054977
:1052B0002046FBF760F829462046BDE87040FEF71F
:1052C000A1BC00006B7100082DE9F041084D0646B5
:1052D0000F462846FAF7D9FF044616B10020BDE86C
:1052E000F081024629463846FBF745F82046F6E7A6
:1052F000207E000810B50B464FF4007408B1002062
:1053000010BD224602491846FBF735F8204610BD6D
:105310004C12002006490B68091D0A68091D09681E
:105320000360C0E901214FF0A531C1607047000062
:10533000E8F7FF1F10B5084654022146FBF725F990
:10534000204610BD70B5244D4FF0FF346878A97821
:10535000884201D0012000E000204FF4FD721FA11F
:10536000FEF7E2F86878022803D0C0B101281AD00D
:1053700022E01C484FF4FA7490F82000E0B10128B4
:105380000AD0022818D0032816D04FF4037213A1B4
:105390000020FEF7C9F80FE044F620640CE0A8787E
:1053A000022808D008E0A878022801D018B103E04C
:1053B00040F6C41400E00024601C05D14FF40772CD
:1053C00006A1FEF7B1F80024A868A04201D9012087
:1053D00070BD002070BD0000840200202866696C4A
:1053E00065290000E00F002070B50346002002464A
:1053F000012609E0DC0704D08D1A6D1E06FA05F4BB
:1054000020435B08521CD2B28A42F3D370BD000025
:1054100010B525210748FBF7B8F8064825212530A7
:10542000FBF7B3F8044800214160017041708170BE
:10543000C17010BD940D00207C02002030B58FB0EB
:1054400014210AA8FBF7C3F828216846FBF7BFF828
:10545000FCF702FAFBF7FCFB01250024CDE90A5416
:1054600029460AA8FBF76CFC20B1412216A10020B6
:10547000FEF75AF84FF48030CDE90050022502942F
:10548000CDE907504FF4E01009906846FBF77CFD2A
:1054900020B14D220CA10020FEF746F80F20CDE9E7
:1054A0000A054FF48060CDE90C4002210AA80E9451
:1054B000FBF746FC002804D0582203A10020FEF789
:1054C00033F80FB030BD00002866696C6529000014
:1054D0002DE9F04100250024FFF722F806460521BA
:1054E0004C48FBF774F821214B48FBF74EF821217B
:1054F0004A48FBF74AF809214948FBF768F80521B3
:105500004448FBF764F800BF00BF0AE0454A52F880
:105510002510414A101900F017FF2044C4B2681C3E
:10552000C5B2042DF2DB00222146601CC4B23A4809
:105530004254002400250AE03B4A52F82510374A1D
:10554000101900F001FF2044C4B2681CC5B2042D3C
:10555000F2DB00222046611CCCB230490A54002400
:105560002F4908193149096800F0EEFE2044C4B201
:105570002046611CCCB22A4900220A54FEF7C0FF23
:105580000746042239462348FAF7F5FE2149002050
:1055900008710024300BFFF7C5F801462448224665
:1055A000641C8154C6F30320FFF7BCF80146204871
:1055B0002246641C8154C6F30310FFF7B3F801467A
:1055C0001B482246641C815406F00F00FFF7AAF81E
:1055D000014617482246641C815400222146641C5F
:1055E00042540024134830222146641C4254322283
:1055F0002146641C425435222146641C4254342204
:105600002146641C425400222146641C4254BDE8D9
:10561000F0810000E4010020AE030020CF03002051
:10562000F00300205003002060030020D001002080
:10563000E9010020EE0100202DE9F041364E074639
:10564000B0694169384688470546B069816938467E
:105650008847044635B12CB14FF4806845450AD8D7
:10566000012009E040F235122CA10020FDF75CFF7B
:105670000220BDE8F08100204FF49D7227A1FDF7C4
:1056800053FFB8FBF5F105FB118048B1002040F253
:105690003B1222A1FDF748FFAC4203D3012002E0F8
:1056A0000120F4E700204FF49E721CA1FDF73CFF9F
:1056B000B4FBF5F005FB1040C0B1002040F23D12F4
:1056C00016A1FDF731FFB7FBF4F004FB1070381A98
:1056D000C6E903047060444500D34446B460B16930
:1056E000096A29B1884704000AD101E00120E5E7F1
:1056F000307850B1B069C168F0688847040004D0C0
:10570000B069406880472046B3E7FF220548B1688A
:10571000FAF733FF0020ACE7440200202866696CEA
:10572000652900009405002070B50025002400269E
:105730001148FAF7AAFDC6B2022000EB4600C2B239
:105740000E482146641C425403222146641C4254E4
:1057500000BF0EE00848611C425D2046CCB20749FC
:105760000A5400222046611CCCB204490A54681C29
:10577000C5B2B542EEDB70BD70030020F903002016
:1057800010B531210948FAF722FF09490748FAF70D
:10579000E6FD08490548FAF7E2FD07490348FAF72C
:1057A000DEFD06490148FAF7DAFD10BD700300205E
:1057B000E4010020E9010020AE030020F0030020F6
:1057C00010B5EFF3108111F0010F72B6084C094BC0
:1057D000D96844F821004FF0070001F10101B1FB45
:1057E000F0F400FB1410D86000D162B610BD0000C8
:1057F00010210020C802002010B5094C207840B1CB
:1058000000F05EF86068C168064888470021217092
:1058100010BDC12204A10020FDF786FE022010BDAC
:1058200004020020600400202866696C65290000DD
:1058300070B5134C0546207808B1862202E0022D8F
:1058400006D38C220FA10020FDF76EFE022070BD52
:10585000FFF7C6F9A0604FF482710C48FAF7B7FE63
:105860000120207006480C3000EB05106060416894
:10587000064888470028EAD00321217070BD000047
:10588000040200202866696C65290000600400207D
:105890002DE9F041094D0E460746002405EB0410A2
:1058A000314602683846904710B12046BDE8F08185
:1058B000641CE4B2022CF1D30320F7E710020020AD
:1058C00010B5FFF78DF906498968884201D101209A
:1058D00000E00020BDE81040632202A1FDF724BED5
:1058E000040200202866696C6529000010B500F1EB
:1058F000080103220C4607A0FAF7E6FC002806D0B0
:105900000322214604A0FAF7DFFC08B1032010BDF2
:10591000012010BD42494E004845580070B5154D54
:1059200006460C462878012806D0A52212A10020A0
:10593000FDF7FAFD022070BDFFF7C2FF686822463E
:10594000314683680E4898470446132806D0142C25
:1059500006D02CB103202870204670BD0220FAE743
:105960002878012800D00020B32203A1FDF7DCFD38
:10597000F2E70000040200202866696C6529000037
:105980006004002010B5FFF72BF9074949688842E9
:1059900001D1012000E00020BDE810404FF4B572B5
:1059A00002A1FDF7C1BD0000840200202866696CD9
:1059B0006529000002480021C068FFF702B9000015
:1059C000840200200148C068FFF7FFB8840200206D
:1059D00072B603494A6802434A6062B670470000E3
:1059E000DC020020054903464A681342FCD048689F
:1059F00072B64A6882434A6062B67047DC02002091
:105A00000149086170470000DC02002009490020BC
:105A1000086048608860C860086148614FF0E02114
:105A2000054A4A61054BF02283F8142D886107204E
:105A300008617047DC0200207EFC0A000FE000E0F5
:105A40000149C86070470000DC020020014948613C
:105A500070470000DC02002003484169002901D0A2
:105A60000020084770470000DC02002002498860DF
:105A700088680028FCD17047DC02002002480078CA
:105A8000012800D00020704760020020884203D324
:105A9000904201D8012070470020704710B50B4C90
:105AA0000221A068FFF793F860680321B0FBF1F2D0
:105AB00001FB1201401C6060002905D1A068BDE80F
:105AC00010400121FFF783B810BD0000F401002051
:105AD0002DE9F0411E4C15460E4694F8230038B1CE
:105AE000BDE8F04140F2C1221A490020FDF71CBD7B
:105AF000E8051FD0002040F2C5221649FDF714FD2D
:105B000094F8210040F2C6221249FDF70DFD294606
:105B10003046FFF703FF0027012613280CD0142876
:105B200011D084F82470616929446161BDE8F041B5
:105B300000F088B80120DEE7FFF75EFE84F82170F0
:105B400084F8236000E0002084F82460EBE7000084
:105B5000E00F0020AC59000870B51B4D06460C46FE
:105B600095F8210088B1002040F286221749FDF700
:105B7000DBFC601C00D0012040F287221349FDF7B6
:105B8000D3FC6868401C02D002E00120ECE76C60A6
:105B900095F82700032801D185F827606868A0429E
:105BA00003D195F82700B04201D0032008E0304629
:105BB000FFF73EFE20B945F80C4F01216975A97524
:105BC000BDE8704000F03EB8E00F0020AC5900087E
:105BD00030B4194C94F82050032D02D025683DB103
:105BE00007E030BC40F2362214A10020FDF79CBC37
:105BF0002060A068401C00D1A16094F82700032811
:105C000001D184F82730A069904205D9E06990421B
:105C100002D90AB103200CE0481C02D0A0688842D7
:105C2000F8D1032B03D094F827009842F2D100203A
:105C3000A26130BC00F006B8E00F00202866696C55
:105C4000652900002DE9F0470446132803D0142CE1
:105C500001D0012000E0002040F2E62243A1FDF740
:105C600063FC444D95F8200003280CD0296891B1BD
:105C7000D5E9060282420ED368B1D5E9010290420D
:105C800009D1012008E0BDE8F04740F2EA2237A13F
:105C90000020FDF749BC002085F8250095F82690E6
:105CA00019B995F82710032901D0012100E000213E
:105CB000884620B195F8241009B1012600E000269D
:105CC00095F8231011B108B1012000E000208246B0
:105CD00028690027401C10D06868401C00D00120B3
:105CE0004FF4427221A1FDF71FFC69682869401A30
:105CF00069694002814200D90127032014B185F867
:105D000020001DE0B9F1000F09D00FB10624F6E71D
:105D1000B8F1000FF3D0002EF1D10424EFE7BAF16F
:105D2000000FECD10EB1022003E0B8F1000F03D058
:105D3000012085F8200012E095F8200003280BD1FF
:105D400095F8210030B1FFF757FD002185F82110AB
:105D500004B9044608480470B9F1000F03D1BDE846
:105D6000F04700F081BDBDE8F08700002866696C4F
:105D700065290000E00F00208402002010B50D4CC2
:105D8000207830B100202070FDF7CCFB40B11E2000
:105D900010BD842208A10020FDF7C6FB022010BD23
:105DA000607810B9FDF75AFE08B1002010BD24201C
:105DB00010BD0000600200202866696C65290000A3
:105DC0002DE9F0410F460446FAF7DFFB204685A196
:105DD00000F0E2FA0546601990A100F0DDFA0544F2
:105DE000601997A100F0D8FA0544601998A100F055
:105DF000D3FA054460199AA100F0CEFA0544FDF7E4
:105E000092FC08B19AA100E09AA1601900F0C4FACE
:105E10000544601980A100F0BFFA0544601996A1FD
:105E200000F0BAFA0544FDF780FC08B190A100E04B
:105E300090A1601900F0B0FA0544601976A100F055
:105E4000ABFA0544601992A100F0A6FA0544FDF7EB
:105E50006EFC08B186A100E086A1601900F09CFAF2
:105E6000054460196CA100F097FA0544FDF7F6FDB2
:105E700008B18DA600E08FA6601991A100F08CFA00
:105E800005446019314600F087FA0544601962A1A3
:105E900000F082FA05446019314600F07DFA0544AD
:105EA00060198BA100F078FA0544FDF7D7FDA0B981
:105EB000FEF77AFC88B1601989A100F06DFA0544FB
:105EC000FEF786FC01466019042200F098FA0544AA
:105ED000601951A100F060FA0544FDF7C1FDA0B9B9
:105EE000FEF794FC88B1601983A100F055FA0544CF
:105EF000FEF7A0FC01466019042200F080FA054478
:105F0000601945A100F048FA054460197FA100F02E
:105F100043FA0544601980A100F03EFA0544601977
:105F20003DA100F039FA0544601986A100F034FA69
:105F300005446019012100F038FA0544601936A1C2
:105F400000F02AFA0544601982A100F025FA054400
:105F5000601985A100F020FA054460192EA100F017
:105F60001BFA0544FEF720FC80B160197FA100F008
:105F700013FA0544FEF736FC0146601900F0E4F917
:105F80000544601924A100F007FA054460197CA1BA
:105F900000F002FA0544FEF72BFC0146601900F000
:105FA000D3F9054460191CA100F0F6F90544601905
:105FB00078A100F0F1F97B4905446019496800F0C7
:105FC000F4F90544601914A100F0E6F928442044CE
:105FD00075A100F0E1F939462046BDE8F041FDF732
:105FE00011BE000023204441504C696E6B2046696D
:105FF000726D77617265206279204D7573654C61B1
:1060000062202D20736565206D7573656C61622D4E
:10601000746563682E636F6D0D0A00004275696CCC
:10602000642054696D653A204E6F762033302032FB
:106030003031392031333A30303A35380D0A0000EA
:10604000556E697175652049443A2040550D0A0026
:106050004849432049443A2040440D0A00000000CA
:106060004175746F2052657365743A20000000001A
:1060700031000000300000004175746F6D6174697B
:106080006F6E20616C6C6F7765643A2000000000D1
:106090004F766572666C6F772064657465637469AA
:1060A0006F6E3A2000000000426F6F746C6F616485
:1060B00065720000496E7465726661636500000078
:1060C0004461706C696E6B204D6F64653A2000000E
:1060D0002056657273696F6E3A2040560D0A0000B3
:1060E000426F6F746C6F616465722056657273697C
:1060F0006F6E3A2000000000496E7465726661633D
:10610000652056657273696F6E3A20004769742086
:106110005348413A2000000032343164343332664F
:106120003833313837646539656332653032303938
:106130003937326266323030303130623565386638
:10614000000000004C6F63616C204D6F64733A2057
:106150000000000055534220496E74657266616309
:1061600065733A20000000004D534400426F6F7485
:106170006C6F61646572204352433A2030780000AE
:10618000496E74657266616365204352433A2030FC
:106190007800000052656D6F756E7420636F756EC8
:1061A000743A20009402002055524C3A2040520D7F
:1061B0000A00000030B510A387B00ECB8DE80E00AA
:1061C00000250C4809226946FAF7D5F80D48094C14
:1061D0001822457009340CA16846FAF79CF9172279
:1061E00069462046FAF7C7F8A57007B0BDE8304009
:1061F00000F02EB8C81F0020090220000101008015
:10620000FA000000C4020020090400000208065041
:10621000040705820240000007050202400000005A
:1062200002484078002800D001207047F402002086
:10623000FBF700BD054910B50020C870FFF7BAFF95
:10624000FCF764FDBDE81040FBF7F6BEF402002049
:1062500010B5FEF7C5FC074C60600020FEF7B3FCEC
:10626000E060FDF785F9002060700349A070A06030
:10627000086010BD840200201C03002070B5144685
:106280000D460646FFF77EFB074B1868002809D02D
:106290000120FEF7DBFB224629463046BDE8704070
:1062A00000F06EBB70BD00001C03002070470000B2
:1062B0002DE9F04115460E460746FFF763FB1048EF
:1062C000006800281AD00F490F4C0020886094F80D
:1062D0002000032812D00120FEF7B8FB2A463146E1
:1062E000384600F01FFD94F82000032806D02A4607
:1062F00031463846BDE8F041FDF76CBDBDE8F081A0
:106300001C03002084020020E00F002006484FF00C
:10631000011201780548C180002101704170C0E977
:10632000022101617047000008750008F402002096
:1063300010B5EFF3108000F0010472B6FDF768FAB3
:10634000002C00D162B610BD70B50D460446090E92
:1063500000F014F80646A019C5F3074100F00EF846
:106360000644A019C5F3072100F008F80644E9B275
:10637000A01900F003F8304470BD0000054A02EB9C
:10638000111301F00F011B780370515C4170022062
:1063900070470000F47000080346002001E01A5422
:1063A000401C0A5C002AFAD17047F0B5064600206E
:1063B00002460B460A2504E0B3FBF5F3401C42F10C
:1063C0000002002BF8D150EA020301D10120002283
:1063D00000231F460EE0B1FBF5F405FB1414B1FBDE
:1063E000F5F13034B0EB030CBCF1010C03F1010307
:1063F00006F80C401C1A77EB0204ECD3F0BD2DE933
:10640000F04115460E460746FFF7CFFF0446A84267
:106410000AD2302229463846FAF7AFF8281B38440A
:106420003146FFF7C2FF2846BDE8F0812DE9F84369
:1064300080462E48006840B1016A31B14046884725
:10644000002800D00120BDE8F88329488146FAF7EA
:10645000E5F8041EF7D000200425074600902A46E0
:1064600041466846F9F787FFD4340AE0201DFAF761
:10647000D5F8024631460098FFF708FB012830D0D6
:1064800014342046FAF7CAF80600EFD1201DFAF7B7
:10649000C5F80028EAD13FB323E0002608EB050148
:1064A00004226846F9F767FF4846FAF7B7F800F1A3
:1064B0000C040AE0201DFAF7B1F8024639460098AC
:1064C000FFF7E4FA01280BD014342046FAF7A6F8B7
:1064D0000700EFD1201DFAF7A1F80028EAD11EB17C
:1064E0002D1D0C2DD9D9ADE70020ACE7A40100206B
:1064F000E26F00080B49096811B1496A01B1084708
:1065000001783A290AD1007A302809D0322807D0F8
:10651000332805D0342803D0352801D00020704717
:1065200001207047A40100202DE9FF5F99469246A3
:106530008B460098FDF78EFC40F2971240A1FCF7C5
:10654000F3FF41490026414D087BCA7A497B42EA64
:106550000020484309EB0001491EB1FBF0F7B9F1F7
:10656000000F19D00024A7F10108EE6809E0E968DE
:10657000481C82B2364800F0B7FCE868401C641C36
:10658000E8604445F3D34FF6FF723148E96800F004
:10659000ABFCE868401CE8602869202802D34FF46F
:1065A000D6721FE02B49202201EB4014401C2861C9
:1065B00029492046F9F7DFFE0B2220460099F9F71A
:1065C000DAFE04F11C014846FAF733F8300C207566
:1065D000000A6075A676300AE076A968102909D30A
:1065E0004FF4DD7216A10020FCF79EFF002004B0DE
:1065F000BDE8F09F174B01EB4100C03B174A43F841
:10660000202003EB8002164E5660BBF1000F01D034
:1066100043F820B0BAF1000F01D0C2F804A00A4834
:10662000491C037BC67A407B46EA032343437B43F2
:106630009360A9602878401C28702046D7E70000A6
:106640002866696C652900004C1200209C0200201D
:106650004C1400200C170020D87400083553000893
:10666000C96F0008C07A70471C30F9F7D7BF000027
:1066700010B50446FFF7F8FF88B1E07EA17E41EA3D
:1066800000220848921E017BC37A407B43EA012125
:10669000054B5B69B3FBF1F102FB001010BD4FF03D
:1066A000FF3010BD4C1200209C020020C1727047C8
:1066B00070B50F48017DC07C50EA01240C48017B75
:1066C000C07A40EA012501D06C430EE00848203032
:1066D000F9F7A4FF10B100FB05F406E0002440F236
:1066E0008B1204A12046FCF71FFF204670BD00005E
:1066F0004C1200202866696C652900002DE9F041E4
:106700000F4680464FF4007631464E48F9F75FFF5A
:1067100031464D48F9F75BFF4C4C0025C0214C48F1
:10672000E560F9F754FF4A487100C030F9F74FFFB0
:10673000256125704748C4E901053246464941486C
:106740006561F9F7E8FE3F4E07F58037307BF17A57
:1067500041EA0020B7FBF0F7707B40F62D01414382
:10676000B7EB410F09D24FF4AC723CA10020FCF70B
:10677000DBFE777B41F25A000DE04FF69171484302
:10678000B84209D240F25B1234A10020FCF7CCFEE3
:10679000777B4FF6917047432A492031B7F5803F08
:1067A00004D3F574280A3075384603E0F774380AC4
:1067B00030750020F9F73DFF707B40F2FF11B7FB09
:1067C000F0F001EB4000C0F34F27F782302225495B
:1067D0001F48F9F7A0FE1E497802486108620420AC
:1067E0006561A060002000EB400201EB820263695A
:1067F0009268401C1A4462610428F4D34FF6F87280
:1068000029461148E56000F06FFBE1684FF6FF7222
:10681000491C0D48E16000F067FBE0681149401C2D
:10682000C4E903050A4D2022C03528463031F9F766
:10683000A2FD28460B224146F9F79DFD012020616B
:10684000BDE8F0814C1200204C1400209C02002076
:106850004C160020013D0008887200082866696C0B
:10686000652900008874000810B5FFF7A3F8FCF74D
:10687000AFFE28B904484178022901D10121817075
:10688000BDE81040FFF79EB88402002010B5FFF766
:1068900079F80148007810BD8402002010B5044644
:1068A000FFF770F8FCF764FE0649074A24B102209E
:1068B00048708870012002E00020487088701060E5
:1068C00010BD0000840200201C0300202DE9F041CF
:1068D0000446FFF757F8FFF76DF8FCF779FE80B133
:1068E000FEF730FD214A4EF660239168994201D2AD
:1068F0002144916028B1947855785470012C06D1C8
:1069000003E0BDE8F041FFF75DB80220907000267B
:106910009660FFF757F80127CDB1012D17D0022D52
:1069200015D1134D95F82000032804D085F8267062
:106930000020FFF787F995F82000032812D00020E7
:106940004FF489720BA1FCF7EFFD00F0E3F80B4D5B
:1069500054B1012C08D0022C02D1FCF709FE2F60A3
:10696000BDE8F0810120EBE72E60F9E7840200200A
:10697000E00F00202866696C652900001C030020D8
:106980002DE9F0478A460446154600265102504636
:10699000F9F7FBFDDFF84890002006EB460209EB13
:1069A00082018442896800EB512188460ED38C42D3
:1069B0000CD2A8EB0407AF4200D32F4659F822307F
:1069C000201A3A46514698473C44ED1B002D04D00E
:1069D000761CF6B24046102EDFD3BDE8F0870000EB
:1069E0004C16002001494860704700009C020020BE
:1069F0001CB52F4CE07F10B104F11F0000E02DA06A
:106A00004FF08061FFF77AFE2D48FDF79FFD0346AA
:106A1000207D10B12648143000E02AA00022284929
:106A2000FFF782FD2A48FDF791FD03460022284921
:106A300028A0FFF779FDFFF729FF40B12848FDF7AF
:106A400085FD03460022264926A0FFF76DFD284B51
:106A500041219A1C2748FCF7E9FE58B12648FDF76A
:106A600075FD0346002224492448FFF75DFD0021FF
:106A7000FFF71CFE4FF00060019021480090FCF7EA
:106A8000EFFF002813D0DDE900104FF48062F9F722
:106A9000D0FB00280BD11B48FDF758FD02B0034680
:106AA000BDE810400022174917A0FFF73DBD1CBDEF
:106AB000D26F00084441504C494E4B20202020000A
:106AC0009152000853484F502020202048544D0038
:106AD000D951000844455441494C5320545854005E
:106AE000ED5100084641494C2020202054585400C4
:106AF0009402002008120020A150000867720008CC
:106B000000C00008C95200084E4545445F424C2071
:106B10005458540010B5FCF7A1FF20B1FFF7B6FEA2
:106B200008B9FAF7F1FEFCF79BFF40B1FCF7CCFE89
:106B300018B9FCF7B5FE012801D1FAF7E5FE0248C5
:106B40004168491C416010BD9402002070B50C469C
:106B50000546FDF705FD10B9FDF700FD08B101225E
:106B600000E000221AB9FCF7E0FD00286FD074B1F4
:106B7000012C6CD10B2245492846F9F75AFB002815
:106B800065D1FFF7D5FBBDE87040FFF76DBE0B2266
:106B90003F492846F9F74DFB00284CD00B223DA178
:106BA0002846F9F746FB00284DD00B223CA1284689
:106BB000F9F73FFB002847D00B223CA12846F9F704
:106BC00038FB002845D00B223BA12846F9F731FBC2
:106BD0000028D8D00B223BA12846F9F72AFB002831
:106BE0003ED00B223AA12846F9F723FB002838D0E3
:106BF0000B223AA12846F9F71CFB48B30B223AA115
:106C00002846F9F716FB78B30B223AA12846F9F784
:106C100010FB50B30B223AA12846F9F70AFB38B112
:106C20000B223AA12846F9F704FB00282DD10120B8
:106C3000FCF788FEA7E7FCF713FF0028A3D001208C
:106C4000FCF786FE9FE70120FCF789FE9BE71CE02E
:106C50000CE0BDE870409F222FA10020FCF764BC2F
:106C60000120FCF77DFE8EE70BE00BE02C4C20684A
:106C70000068804720680069804720684068804736
:106C800081E70120FCF76DFE7DE770BD67720008AB
:106C90004C7000084155544F5F52535443464700CF
:106CA000484152445F525354434647004153534571
:106CB00052542020414354005245465245534820E7
:106CC000414354004155544F5F4F4E2043464700C7
:106CD0004155544F5F4F4646434647004552415346
:106CE00045202020414354004F56464C5F4F4E20D4
:106CF000434647004F56464C5F4F46464346470083
:106D00004D53445F4F4E2020414354004D53445F48
:106D10004F464620414354002866696C65290000AF
:106D2000087100082DE9F05F0446002615468B46E1
:106D30003046DFF85090DFF850A01CE006EB46022A
:106D400009EB82028442916800EB512188460DD301
:106D50008C420BD2A8EB0407AF4200D32F465368F6
:106D6000201A3A46594698473C44ED1B002D06D060
:106D7000761C4046F6B2DAF808108E42DED3BDE843
:106D8000F09F00004C1600209C020020FEB5044637
:106D900090F8300015460F46302801D3606B31E083
:106DA000C0F13006AE4200D3164620443246F9F711
:106DB000E2FA94F830003044C1B284F8301030293F
:106DC00001D20020FEBD00233744AD1B1A462046E9
:106DD000FDF79EF808B302A90022009101AB11460D
:106DE000FDF7D4F80028EDD10198606394F83020C5
:106DF0002146FDF7BBF90028E4D194F83010606B10
:106E0000084460632A463946FDF7B0F90028D9D115
:106E1000606B284460631420FEBD1C20FEBD000092
:106E20002DE9F84F894681184FF48063B3EB412F69
:106E300007D2BDE8F84F40F27E2227A10020FCF7E0
:106E400073BB41024B0951024FEA511B0091244987
:106E500001EB431A10B10026224F33E00126FBE775
:106E600009EB46140AEB4615202221462846F9F77D
:106E7000E0F930B3214628460B22F9F7DAF978B168
:106E800000208046D7F804C023462A462046022127
:106E9000E0472078E52805D0B8F1000F07D010E0D2
:106EA0000120EEE72A4623461046012107E020464E
:106EB000FCF7D0FF28B123462A46184600217C68FB
:106EC000A047761C5E45CBD350464946009ABDE8A4
:106ED000F84FF9F750BA00002866696C6529000080
:106EE0000C1700209C02002030B44B00012404EB5E
:106EF0004101B1F5007F06D330BC40F23B1204A142
:106F00000020FCF711BBC254120A425430BC704737
:106F10002866696C652900002DE9F04786B00024D9
:106F200016460F460546039404940DF110080DF122
:106F30000C094FF4807A0594CDF800A0CDE90198B2
:106F40006B1C05AA31463846FDF7C6FE68B102281B
:106F500013D001281DD0042825D0052801D00628EB
:106F6000EAD1052821D0012020E0049A22B3691C2F
:106F70000398FDF7FBF804461EE0049A2AB1691C49
:106F80000398FDF7F3F8040016D10598361A074464
:106F9000D2E7049A22B1691C0398FDF7E7F804468A
:106FA00054B9132408E0152406E0002040F26112D1
:106FB00003A1FCF7B9FA162406B02046BDE8F08715
:106FC0002866696C65290000704700C0000800044D
:106FD00000000000000030303030000000000000F1
:106FE00000000000002048454C505F464151485485
:106FF0004D4D41494E54454E414E43456874747061
:10700000733A2F2F6D6265642E636F6D2F6461700C
:107010006C696E6B000000000000000000000000C2
:107020000000000000000000000000000000000060
:107030000000000000000000000000000000000050
:107040000000000000000000000000005354415206
:10705000545F494641435400447D0008E87C0008E1
:10706000C87C0008A07D00087C790008907C00089E
:1070700094790008E07B0008807B0008607D0008B0
:107080003C7C0008047B0008407B0008C87D0008A9
:10709000007D0008307A0008047A0008DC790008D6
:1070A000607A00081C7C0008847D00084C7700088A
:1070B0000C770008D0760008907A0008487900081C
:1070C000A47800086C7800089477000870760008AF
:1070D000A476000844760008E475000814760008D9
:1070E00004790008E4770008207800081C7E000876
:1070F000E078000830313233343536373839616260
:107100006364656600000000000000009548000808
:107110007D5D00080D4F0008F13A0008853A00082F
:1071200025500008B93B00087D5A00080000000007
:107130000C71000800000000FFFFFFFFFFFFFFFFD2
:10714000FFFFFFFFFFFFFFFF000000000000000047
:10715000000000000000000000000003747970656A
:107160003A20006572726F723A20003C21646F63AE
:10717000747970652068746D6C3E0D0A3C212D2D6C
:10718000206D62656420506C6174666F726D20576B
:1071900065627369746520616E6420417574686509
:1071A0006E7469636174696F6E2053686F72746383
:1071B0007574202D2D3E0D0A3C68746D6C3E0D0AD1
:1071C0003C686561643E0D0A3C6D657461206368CE
:1071D00061727365743D227574662D38223E0D0A06
:1071E0003C7469746C653E4D7573654C61622053E7
:1071F000686F7020576562736974652053686F7299
:10720000746375743C2F7469746C653E0D0A3C2F71
:10721000686561643E0D0A3C626F64793E0D0A3C0C
:107220007363726970743E0D0A77696E646F772EAE
:107230006C6F636174696F6E2E7265706C616365EB
:107240002822405222293B0D0A3C2F736372697039
:10725000743E0D0A3C2F626F64793E0D0A3C2F6824
:10726000746D6C3E0D0A0041535345525420205416
:1072700058540000E07E0008FC7E0008EC7E000808
:10728000F47E0008D47E0008EB3C904D534430530C
:10729000342E310002080100022000501FF80100C6
:1072A000010001000000000000000000000029743F
:1072B0001902274441504C494E4B2D444E444641FF
:1072C000543136202020FAB8C0070520018ED0BCEA
:1072D0000010B8C0078ED8BE6D00E80B00EBFEB4FE
:1072E0000EB700B307CD10C38A044608C07405E882
:1072F000EDFFEBF4C3504C454153452052454D4FF3
:107300005645205448452041524D204D4245442089
:107310004441504C494E4B20555342204445564918
:10732000434520414E44205245424F4F542054483B
:10733000452053595354454D2E2E000000000000A7
:10734000000000000000000000000000000000003D
:10735000000000000000000000000000000000002D
:10736000000000000000000000000000000000001D
:10737000000000000000000000000000000000000D
:1073800000000000000000000000000000000000FD
:1073900000000000000000000000000000000000ED
:1073A00000000000000000000000000000000000DD
:1073B00000000000000000000000000000000000CD
:1073C00000000000000000000000000000000000BD
:1073D00000000000000000000000000000000000AD
:1073E000000000000000000000000000000000009D
:1073F000000000000000000000000000000000008D
:10740000000000000000000000000000000000007C
:10741000000000000000000000000000000000006C
:10742000000000000000000000000000000000005C
:10743000000000000000000000000000000000004C
:10744000000000000000000000000000000000003C
:10745000000000000000000000000000000000002C
:10746000000000000000000000000000000000001C
:10747000000000000000000000000000000000000C
:1074800000000000000055AAF5520008C96F00086E
:107490000002000081500008C96F000800000000D1
:1074A00081500008C96F0008000000002D5000083E
:1074B000216E000800040000000000000000000031
:1074C0000000002800000000000000000000418EC5
:1074D000BB320000000000000000000000000000BF
:1074E0000000000100000000764876480000DC83C0
:1074F00076480000000000000000000000000000CE
:1075000001020304060708090000004002024000CF
:107510000002400000000000000000000000000029
:107520000000000000000000CD1C0008000000006A
:107530003D230008000000000000000000000000E3
:10754000000000000000000000000000000000003B
:10755000000000000000000000000000000000002B
:10756000000000000000000000000000000000001B
:10757000000000001201100100000040280D04026C
:1075800000010102030100000000040309040803D4
:10759000410052004D0024034400410050004C00C3
:1075A00069006E006B00200043004D00530049004D
:1075B00053002D004400410050001A0330003000F9
:1075C0003000310041003000300030003000300029
:1075D0003000300010035500530042005F004D00A2
:1075E00053004300496E206170706C696361746977
:1075F0006F6E2070726F6772616D6D696E67207358
:107600006563746F72206572617365206661696C71
:1076100065642E00496E206170706C6963617469E5
:107620006F6E2070726F6772616D6D696E67206D2D
:10763000617373206572617365206661696C65644E
:107640002E000000496E206170706C69636174697E
:107650006F6E2070726F6772616D6D696E672077F3
:1076600072697465206661696C65642E00000000B3
:10767000496E206170706C69636174696F6E20700F
:10768000726F6772616D6D696E6720696E6974698A
:10769000616C697A6174696F6E206661696C65649A
:1076A0002E000000496E206170706C69636174691E
:1076B0006F6E2070726F6772616D6D696E67207595
:1076C0006E696E6974206661696C65642E000000E5
:1076D000546865206865782066696C652063616E12
:1076E0006E6F742062652070726F6772616D6D6578
:1076F000642E204C6F676963206661696C757265E2
:10770000206F636375727265642E00005468652093
:107710006865782066696C652063616E6E6F7420A1
:107720006265206465636F6465642E2050617273C6
:107730006572206C6F676963206661696C7572653C
:10774000206F636375727265642E00005468652053
:107750006865782066696C652063616E6E6F742061
:107760006265206465636F6465642E2043686563A9
:107770006B73756D2063616C63756C6174696F6E9A
:10778000206661696C757265206F636375727265DE
:10779000642E0000546865206170706C69636174C8
:1077A000696F6E2066696C6520666F726D6174200A
:1077B000697320756E6B6E6F776E20616E642063E7
:1077C000616E6E6F742062652070617273656420F3
:1077D000616E642F6F722070726F6365737365647E
:1077E0002E000000496E206170706C6963617469DD
:1077F0006F6E2070726F6772616D6D696E67206E5B
:107800006F7420737570706F72746564206F6E2072
:1078100074686973206465766963652E00000000F2
:10782000496E206170706C69636174696F6E20705D
:10783000726F6772616D6D696E67206661696C65F4
:107840006420626563617573652074686520757076
:10785000646174652073656E742077617320696E4E
:10786000636F6D706C6574652E0000005468652050
:107870007374617274696E67206164647265737396
:1078800020666F722074686520696E746572666127
:107890006365207570646174652069732077726F09
:1078A0006E672E00546865207374617274696E6728
:1078B000206164647265737320666F7220746865FA
:1078C00020626F6F746C6F616465722075706461A3
:1078D00074652069732077726F6E672E0000000058
:1078E00054686520626F6F746C6F616465722043C9
:1078F000524320646964206E6F7420706173732E2C
:1079000000000000496E206170706C6963617469E9
:107910006F6E2070726F6772616D6D696E67206146
:10792000626F727465642064756520746F20616E87
:10793000206F7574206F6620626F756E64732061AE
:107940006464726573732E005468652068657820DE
:1079500066696C65206F6666736574206C6F616420
:107960002061646472657373206973206E6F742084
:10797000636F72726563742E0000000054686520A6
:107980007472616E736665722074696D6564206FD0
:1079900075742E0046696C652073656E74206F7572
:1079A00074206F66206F7264657220627920504384
:1079B0002E20546172676574206D69676874206E4B
:1079C0006F742062652070726F6772616D6D65649F
:1079D00020636F72726563746C792E00466C6173FC
:1079E0006820616C676F726974686D207772697462
:1079F0006520636F6D6D616E64204641494C555240
:107A000045000000466C61736820616C676F7269A5
:107A100074686D20657261736520616C6C20636FA2
:107A20006D6D616E64204641494C55524500000021
:107A3000466C61736820616C676F726974686D2051
:107A4000657261736520736563746F7220636F6D17
:107A50006D616E64204641494C555245000000005E
:107A6000466C61736820616C676F726974686D2021
:107A700077726974652076657269667920636F6DC7
:107A80006D616E64204641494C555245000000002E
:107A9000546865206865782066696C6520796F7523
:107AA0002064726F707065642069736E2774206340
:107AB0006F6D70617469626C652077697468207499
:107AC000686973206D6F6465206F722064657669E4
:107AD00063652E2041726520796F7520696E204D97
:107AE00041494E54454E414E4345206D6F64653FBC
:107AF000205365652048454C50204641512E48543E
:107B00004D00000054686520696E7465726661639B
:107B100065206669726D77617265204641494C4502
:107B20004420746F20696E697469616C697A65209C
:107B300074686520746172676574204D4355000058
:107B400054686520696E7465726661636520666954
:107B5000726D77617265204641494C454420746FCF
:107B600020756E696E697469616C697A65207468E4
:107B70006520746172676574204D435500000000F4
:107B800054686520696E7465726661636520666914
:107B9000726D77617265204641494C454420746F8F
:107BA00020646F776E6C6F61642074686520666C0A
:107BB0006173682070726F6772616D6D696E6720A6
:107BC000616C676F726974686D7320746F2074687C
:107BD0006520746172676574204D43550000000094
:107BE00054686520696E74657266616365206669B4
:107BF000726D77617265204641494C454420746F2F
:107C00002072657365742F68616C742074686520D8
:107C1000746172676574204D43550000456E6420A1
:107C20006F662073747265616D2068617320626590
:107C3000656E207265616368656400005468652044
:107C4000696E74657266616365206669726D7761DD
:107C50007265204641494C454420746F20646F771B
:107C60006E6C6F61642074686520666C6173682057
:107C70006461746120636F6E74656E747320746FD9
:107C80002062652070726F6772616D6D65640000BF
:107C9000506F737369626C65206D69736D61746395
:107CA00068206265747765656E2066696C6520730F
:107CB000697A6520616E642073697A652070726FDD
:107CC0006772616D6D656400416E20696E746572E6
:107CD0006E616C206572726F7220686173206F63D1
:107CE0006375727265640000416E206572726F7216
:107CF00020686173206F63637572726564000000B1
:107D000054686520696E7465726661636520666992
:107D1000726D77617265204641494C454420746F0D
:107D200020756E6C6F636B20746865207461726778
:107D3000657420666F722070726F6772616D6D6915
:107D40006E6700004F7065726174696F6E207761B5
:107D500073207375636365737366756C0000000050
:107D600054686520666C61736820616C676F206D74
:107D7000697373696E6720666F7220612072656730
:107D8000696F6E00456E64206F6620737472656162
:107D90006D20697320756E6B6E6F776E000000004A
:107DA000416E206572726F72206F636375727265C7
:107DB0006420647572696E672074686520747261EE
:107DC0006E7366657200000054686520696E7465A4
:107DD0007266616365206669726D776172652041C4
:107DE000424F525445442070726F6772616D6D69E5
:107DF0006E672E20496D6167652069732074727902
:107E0000696E6720746F2073657420736563757283
:107E1000697479206269747300000000000000003A
:107E20004120626F6F746C6F61646572207570645D
:107E30006174652077617320737461727465642066
:107E400062757420756E61626C6520746F20636F5B
:107E50006D706C6574652E0D0A52656C6F616420DF
:107E600074686520626F6F746C6F616465722074F2
:107E70006F206669782074686973206572726F720A
:107E8000206D6573736167652E0D0A0068747470E8
:107E9000733A2F2F73686F70343436393232313978
:107EA000332E74616F62616F2E636F6D2F3F73703D
:107EB0006D3D323031332E312E313030303132366B
:107EC0002E6432312E333638313434653258333201
:107ED00065704400696E74657266616365000000D8
:107EE000696E7465726E616C000000007573657276
:107EF0000000000074617267657400007472616E46
:107F00007369656E740000004D42454420202020B6
:107F100056465320202020202020202020202020D2
:107F2000302E3100447F0008000000205003000084
:107F300028010008AC7F000850030020F82400004E
:107F4000840100084113CA6F43080112C022084A85
:107F5000020C01BE12201A500401CC3808010102A3
:107F600006020208013A04062F0101060606040172
:107F70007A1001110D20089996974C011A13653A51
:107F80001408854B14088D6D14081F371B087710D3
:107F90001A891013196F1B08231001892CA24A0497
:107FA000C79B087F9412600280400000FFFFFFFF24
:107FB000FFFFFFFFFFFFFFFFFFFFFFFFFFFFFFFFD1
:107FC000FFFFFFFFFFFFFFFFFFFFFFFFFFFFFFFFC1
:107FD000FFFFFFFFFFFFFFFFFFFFFFFFFFFFFFFFB1
:107FE000FFFFFFFFFFFFFFFFFFFFFFFFFFFFFFFFA1
:10C00000382F00201DC3000825C3000805EA0008DA
:10C0100029C300082BC300082DC300080017FBAF7D
:10C020008F9E939B08999697FB00000031C20008F1
:10C0300031C3000800000000B9C2000809C30008AD
:10C0400037C3000837C3000837C3000837C30008E8
:10C0500037C3000837C3000837C3000837C30008D8
:10C0600037C3000837C3000837C3000837C30008C8
:10C0700037C3000837C3000837C3000837C30008B8
:10C0800037C3000837C3000837C3000837C30008A8
:10C09000D528010837C3000837C3000837C3000894
:10C0A00037C3000837C3000837C3000837C3000888
:10C0B00037C3000837C3000837C3000837C3000878
:10C0C00037C3000837C3000837C3000837C3000868
:10C0D00037C3000837C300088D02010837C30008C2
:10C0E00037C3000837C3000837C3000800F002F860
:10C0F00000F05AF80AA090E8000C82448344AAF1A8
:10C100000107DA4501D100F04FF8AFF2090EBAE8A5
:10C110000F0013F0010F18BFFB1A43F0010318477B
:10C1200008D7000028D700000A444FF0000C10F890
:10C13000013B13F0070408BF10F8014B1D1108BFA5
:10C1400010F8015B641E05D010F8016B641E01F845
:10C15000016BF9D113F0080F1EBF10F8014BAD1C95
:10C160000C1B09D16D1E58BF01F801CBFAD505E0B3
:10C1700014F8016B01F8016B6D1EF9D59142D6D30D
:10C18000704700000023002400250026103A28BF35
:10C1900078C1FBD8520728BF30C148BF0B60704739
:10C1A0001FB51FBD10B510BD00F03AFB1146FFF7DB
:10C1B000F7FF08F059F800F058FB03B4FFF7F2FF5F
:10C1C00003BC00F05BFB000080F309887047EFF3CD
:10C1D00009807047684680F3098804480078C007E2
:10C1E00014BF0220032080F314887047848601085E
:10C1F000DFF818C0EFF305831B0618BF6047EFF3A5
:10C200001483DB0708BF604700DF704779500108DF
:10C21000DFF818C0EFF305831B0618BF6047EFF384
:10C220001483DB0708BF604700DF704785520108B1
:10C23000EFF30980816911F8021C39BB90E80F10F7
:10C24000E047EFF3098C194B93E80600914218D0B0
:10C2500059B10CB44FF0010381F821302CE9F00FF3
:10C26000C1F824C009F0A2FA0CBC1A60D2F824C0AC
:10C27000BCE8F00F92F821308CF309881BB192F8DA
:10C280002000CCF800006FF0020E704710B5084A8D
:10C290001268914209D8074C54F8214090E80F10D9
:10C2A000A047EFF3098C8CE80F0010BDA00100201F
:10C2B0008CC800088CC8000809F064F9114B93E899
:10C2C000060091421BD00CB44FF0000381F82130DE
:10C2D000EFF3098C2CE9F00FC1F824C009F066FADD
:10C2E0000CBC1A60D2F824C0BCE8F00F8CF30988AB
:10C2F00092F821301BB192F82030CCF800306FF06A
:10C30000020E7047A001002009F012FBD6E70000E2
:10C3100008F07CF909F00CFBD0E7000009488047E1
:10C3200009480047FEE7FEE7FEE7FEE7FEE7FEE717
:10C33000FEE7FEE7FEE7FEE704480549054A064B2F
:10C3400070470000E9FE0008EDC000083829002011
:10C35000382F0020382B0020382B00200048704751
:10C36000D4280020B2F120030AD5C2F1200320FA1C
:10C3700002F001FA03F321FA02F140EA03007047E8
:10C3800021FA03F04FF00001704740EA010310B5B5
:10C390009B070FD1042A0DD310C808C9121F9C4255
:10C3A000F8D020BA19BA884201D9012010BD4FF047
:10C3B000FF3010BD1AB1D30703D0521C07E0002094
:10C3C00010BD10F8013B11F8014B1B1B07D110F8F1
:10C3D000013B11F8014B1B1B01D1921EF1D11846F4
:10C3E00010BD10B5431C02E010F8011B71B18107AC
:10C3F000FAD14FF0013202C88C1A8C4314EAC211F0
:10C40000F9D0C01A0A0603D0C01E10BDC01A10BD54
:10C410000A0401D0801E10BD0902FCD0401E10BDD0
:10C4200040EA010370B59B072ED14FF00136042A74
:10C430002AD308C810C99D1B9D43121F15EAC615B3
:10C4400017D0D8B2E1B2401A50EA056110D198B2C3
:10C45000A1B2401A50EA05410AD123F07F4024F0EE
:10C460007F41401A50EA052102D1180EA0EB14605A
:10C4700070BDA342DBD018BA21BA884201D901208D
:10C4800070BD4FF0FF3070BD0AB9002070BD10F8CC
:10C49000013B11F8014B63B1A3420AD1521E08D0EF
:10C4A00010F8013B11F8014B1BB1A34201D1521E00
:10C4B000EDD1181B70BD421E12F8013F002BFBD1BD
:10C4C00011F8013B002B02F8013BF9D17047032A18
:10C4D00040F2568010F0030C00F0158011F8013B7B
:10C4E000BCF1020F624498BF11F801CB00F8013B88
:10C4F00038BF11F8013BA2F1040298BF00F801CB4C
:10C5000038BF00F8013B11F0030300F0B080121FA8
:10C51000C0F03680A1EB0301022BD1F800C000F07F
:10C52000118000F21E804FEA1C2351F804CF121F25
:10C5300043EA0C6340F8043BBFF4F5AF01F101019D
:10C5400000F01EB84FEA1C4351F804CF121F43EA13
:10C550000C4340F8043BBFF4F5AF01F1020100F0D9
:10C560000FB84FEA1C6351F804CF121F43EA0C23A3
:10C5700040F8043BBFF4F5AF01F10301AFF30080D5
:10C58000D20724BF11F8013B11F801CB48BF11F8C5
:10C59000012B24BF00F8013B00F801CB48BF00F895
:10C5A000012B7047431A28BF9A427FF690AF032AA7
:10C5B0001044114440F2498010F0030F1EBF11F8DF
:10C5C000013D521E00F8013D10F0030F7FF4F6AF5D
:10C5D00011F0030300F0FA80121FC0F03680A1EBC7
:10C5E0000301022BD1F800C0C0F0118000F21E80C0
:10C5F0004FEA0C4351F804CD121F43EA1C4340F8A4
:10C60000043DBFF4F5AF01F1020100F01EB84FEA9E
:10C610000C6351F804CD121F43EA1C2340F8043D7B
:10C62000BFF4F5AF01F1010100F00FB84FEA0C23A0
:10C6300051F804CD121F43EA1C6340F8043DBFF4D7
:10C64000F5AF01F10301AFF30080D20724BF11F869
:10C65000013D11F801CD48BF11F8012C24BF00F8AD
:10C66000013D00F801CD48BF00F8012C704710B51E
:10C67000203AC0F00B80B1E81850203AA0E81850DA
:10C68000B1E81850A0E81850BFF4F5AF5FEA027C9B
:10C6900024BFB1E81850A0E8185044BF18C918C00A
:10C6A000BDE810405FEA827C24BF51F8043B40F8AB
:10C6B000043B08BF7047D20728BF31F8023B48BF90
:10C6C00011F8012B28BF20F8023B48BF00F8012BCE
:10C6D000704702F0FF0343EA032242EA024200F0FD
:10C6E00002B84FF000020429C0F0128010F0030CD1
:10C6F00000F01B80CCF1040CBCF1020F18BF00F855
:10C70000012BA8BF20F8022BA1EB0C0100F00DB803
:10C710005FEAC17C24BF00F8012B00F8012B48BF61
:10C7200000F8012B70474FF0000200B51346944605
:10C730009646203922BFA0E80C50A0E80C50B1F179
:10C740002001BFF4F7AF090728BFA0E80C5048BF8D
:10C750000CC05DF804EB890028BF40F8042B08BF2B
:10C76000704748BF20F8022B11F0804F18BF00F827
:10C77000012B7047427801788378C07841EA022122
:10C7800041EA034141EA006070474FEA1022087015
:10C790004A704FEA10428A704FEA1062CA707047BE
:10C7A000704770477047431A28BF9A427FF65FAFC1
:10C7B000104410F0030F11441EBF11F8013D521E2A
:10C7C00000F8013D10F0030F7FF4F6AF103AC0F00F
:10C7D0000A8010B531E91850103A20E91850BFF41A
:10C7E000F9AFBDE81040530724BF31E9081020E934
:10C7F000081044BF51F8043D40F8043D12F0030F07
:10C8000008BF7047D20728BF31F8023D48BF11F872
:10C81000012C28BF20F8023D48BF00F8012C7047CA
:10C820007546FFF79BFDAE4605006946534620F06E
:10C830000700854618B020B5FFF77EFDBDE8204013
:10C840004FF000064FF000074FF000084FF0000BCC
:10C8500021F00701AC46ACE8C009ACE8C009ACE87F
:10C86000C009ACE8C0098D46704710B50446AFF367
:10C8700000802046BDE81040FFF79FBC014918200A
:10C88000ABBEFEE72600020070470000000000007B
:10C890002DE9F04704788A4604B90124244A244D3E
:10C8A00001262248571410354FF48048012C08D037
:10C8B000022C14D000248AF800404FF00110BDE88B
:10C8C000F08706700D219146104608F07DF82F6024
:10C8D0000E21484608F078F8C5F800801BE00221D8
:10C8E00001700D219146104608F06EF82F600E2160
:10C8F000484608F069F8C5F800800E4F0721384611
:10C9000008F062F80B4980201031086001220521EF
:10C91000384608F007F801220C21484608F002F8D2
:10C920000021484608F082F82E60C4E7E8020020A3
:10C93000000C0140000801402DE9F04102787F2AF7
:10C9400003D0BDE8F04100F055BA01F8012B44785E
:10C9500001F8014B861C0D464FF0021708E02946EE
:10C96000304600F047FA074406EB104680B2054413
:10C97000641EF4D23846BDE8F08100002DE9F04F86
:10C9800087B00446059000208E1CCDE90101C24904
:10C990000870C24A14F8011B0546D175927D824683
:10C9A00091426FD214F8011B5FEA01096AD014F8B2
:10C9B00001BB5FEACB7101D00B2100E00A21884660
:10C9C0005FEA8B7171D5BAF1000F3AD0B348454593
:10C9D00047890FD15FEACB600CD46946584602F014
:10C9E00083FA02281CD17F1E03D3AB4909780029A2
:10C9F000F3D0FFE00A2D03D00A25284602F094F870
:10CA0000DFF894A269460E2002F06EFA022805D1E2
:10CA10007F1E03D39AF800100029F3D04FF0000ACC
:10CA20000128E6D1009906F8011B0099090A06F8C9
:10CA3000011B0099090C06F8021B0099090E06F863
:10CA4000011C5FEACB6152D5E7782046FFF792FEE2
:10CA500067F31F60914F0490241DB88903904046EE
:10CA6000454502D0054602F05FF88C48DFF8288281
:10CA700047890021584602F037FA022803D00128DE
:10CA800007D107E0DEE07F1E03D398F800100029ED
:10CA9000EFD0AFE0814847896946584602F024FA52
:10CAA000022803D0012818D107E040E07F1E14D3EC
:10CAB00098F800100029EFD00FE07849009A096932
:10CAC0001140049A914208D00399491E0391491CD0
:10CAD00003D098F800100029DCD07049009A096949
:10CAE0001140049A91426ED040F010006BE0BAF110
:10CAF000000F72D14046454502D0054602F014F8B9
:10CB00006648DFF8948147890021584602F0ECF925
:10CB1000022802D001286DD106E07F1E6AD398F862
:10CB200000100029F0D065E04FF0010A55E0BAF19D
:10CB3000000F29D00A2D03D00A25284601F0F4FF62
:10CB40005648478969460E2002F0CEF9022802D0E5
:10CB500001284FD107E07F1E791C4BD04E49097840
:10CB60000029EFD046E0009806F8010B00984FF03E
:10CB7000000A000A06F8010B0098000C06F8020BE8
:10CB80000098000E06F8010CE7782046FFF7F2FD4A
:10CB900067F31F60241D00905FEA8B6103D53F4956
:10CBA0000861012019E04046454502D0054601F0E4
:10CBB000BBFF3A48DFF8E08047896946584602F0F3
:10CBC00093F9022802D0012814D106E07F1E11D368
:10CBD00098F800100029F0D00CE00199491C01914F
:10CBE0002D49097831B9A9F101015FEA01097FF402
:10CBF000DEAE0CE0B9F1000F09D014F8011B8A0772
:10CC000001D5C90600D5241DA9F10109F2E70128C3
:10CC100034D10A2D02D00A2001F086FF1F481E4F92
:10CC2000BAF1000F45891ED069460E2002F05CF96A
:10CC3000022802D0012821D105E06D1E1ED33978CB
:10CC40000029F1D01AE0009906F8011B0099090AA1
:10CC500006F8011B0099090C06F8021B0099090E41
:10CC600006F8011C0AE000210E2002F03DF902281E
:10CC700004D16D1E02D339780029F4D0DDE9011208
:10CC80001170029948700298311A059807B0201A5D
:10CC900041EA0040BDE8F08F04000020E8020020D7
:10CCA0002DE9F84F00258946CE1C504902462846FA
:10CCB0000D704F4F12F8011BF975BB7D994227D2B9
:10CCC000517812F8023B53EA012421D012F801AB4B
:10CCD00090465FEACA7001D00B2000E00A2083462C
:10CCE00001F022FF5FEA8A705ED54148DFF8FC80E0
:10CCF00047890021504602F0F7F8022802D00128A7
:10CD000068D131E07F1E65D398F800100029F0D07B
:10CD100060E03CB9BBF10A0F02D00A2001F004FF29
:10CD20004FF00E0A324847896946504602F0DCF857
:10CD3000022802D001284DD106E07F1E4AD398F880
:10CD400000100029F0D045E0009906F8011B009979
:10CD5000090A06F8011B0099090C06F8021B009944
:10CD6000090E06F8011C6D1C641ED2D232E040464A
:10CD700098F80370FFF7FEFC67F31F6000901C48F3
:10CD800008F1040847896946504602F0ADF80228C8
:10CD900002D001281ED106E07F1E1BD3134909785B
:10CDA0000029F0D016E06D1C641EE0D2BBF10A0F22
:10CDB00002D00A2001F0B8FE0D480C4F4489002132
:10CDC0000E2002F091F8022804D1641E02D33978B3
:10CDD0000029F4D089F800502A0A89F8012089F83E
:10CDE0000200A6EB0900BDE8F88F00000400002057
:10CDF000E80200202DE9F0470278A2F180031F2B02
:10CE000003D800F085F9BDE8F08701F8012B0F4643
:10CE100010F801CB00254026FF23B449B44A4FF057
:10CE20000114BCF1170F7AD2DFE80CF00C364E5229
:10CE3000FDFCFB79FA677A79797979797E83879530
:10CE40009FC2E60000787B1C0021062820D006DC6B
:10CE500005281DD2DFE800F01C1C1C1C0C00F0286B
:10CE60000DD0FD2814D0FE280FD0FF2810D108E0E7
:10CE70000522A0491846FFF72AFB052108E01320E8
:10CE800004E01E705D70022102E004201870012190
:10CE9000397001F10210B6E7027822B1012A0AD0F6
:10CEA0003B700C4617E14078C00701D0924809E07A
:10CEB0009148001D06E04078C00701D08F4801E08E
:10CEC0008E48001D066028E03946FFF7E1FC2EE0A1
:10CED000894C1570103C00220D21204607F022FDE0
:10CEE00000220E21204607F01DFD00220C212046C5
:10CEF00007F018FD3D700124EDE042780078814B89
:10CF000040EA02227E480068B0FBF3F00323801C55
:10CF1000B0FBF3F05043401EFDD13D70C1E7E1E0AE
:10CF20007D703D700224D6E0394600F00FFC0446C7
:10CF3000D1E0394600F0DCFBF9E710F8014B0CB901
:10CF40004FF480740146204602F06EFFE41DE008B5
:10CF50003D7004044DE0007800F00301491C117598
:10CF6000C0F3800050753D70B5E007F8015B012506
:10CF70002C4610F8018B15E010F8016B8146014634
:10CF80003A46304601F05EFF16F03F0000D14020E7
:10CF9000C01DC1080D446D1C09EB0100320601D50E
:10CFA0000F440C44B8F10108E6D265F31F4492E047
:10CFB00010F8014B002194750B460BE002EB030CBB
:10CFC00010F8016B8CF8186002EB430C5B1CACF89A
:10CFD00020103144A342F1D3002006E013181B7E39
:10CFE000C91A02EB4003401C1986A042F6D33D70DB
:10CFF000240404F101146EE01178022918D100789C
:10D00000D075917D884213D20E2001F08DFD01F084
:10D01000AFFE3D707870010AB970010CF97003E041
:10D020005CE036E015E005E0000E3871364C52E069
:10D030003B7050E00178117281784378334C43EAB9
:10D04000012151810179C37843EA012090813D702B
:10D0500041E012783946012A15D0022A16D004463A
:10D06000401C10F8012B42B110F8013B9E0701D57E
:10D07000DB0600D5001D521EF6D1001B0D7000040A
:10D080007D70801C53E700F01DF950E7FFF776FC38
:10D090004DE704461078394601280BD002280DD000
:10D0A0000D704D70BD700320E17889070AD540F4FA
:10D0B000802410E0204600F087FAF5E72046FFF7CD
:10D0C000EFFDF1E7A178627842EA01214FF4802276
:10D0D00002EB8144044304F1011094E6394600F068
:10D0E000FDFB24E707F8013C20468CE60100020026
:10D0F000E8020020BE850108100C01401008014024
:10D100002801002040420F00050001000100050039
:10D110002DE9FE4F027801F8012B0D4610F8011B96
:10D120004FF00114671C803906464FF0000A4FF09B
:10D1300001084FF002190D2974D2DFE801F007173A
:10D1400022384173737349566065690006F0FEFE2C
:10D150000646FFF746F9C4B22C70681C22463146D9
:10D16000FFF7B5F904F58034A41C5BE0072468469A
:10D1700003F040FA224669462846FFF7A8F92B4CEF
:10D1800050E0684603F036FA0422314602A8CDF892
:10D1900008A0FFF79CF902980090684603F04AFA4D
:10D1A000002003F0C5FA85F80080214C3AE03E21CA
:10D1B000681C09F0BDFE00F580342870A41C31E025
:10D1C0003778701C394609F04BFF85F8008025E060
:10D1D00085F80080307828B1012803D085F800A0B8
:10D1E0004C461FE007F0BEF9FAE785F8008005F02D
:10D1F0008DFD10B9022009F037FC3C4612E0307872
:10D2000008F0E0FD2870EBE708F0AAFD2870F4E7CD
:10D210003778701C394608F079FE287004EB074413
:10D2200004F101142046BDE8FE8F00000900010052
:10D230000200050038B52148816941F0040181618F
:10D24000816901F004010091816941F00801816167
:10D25000816901F008010091816941F0100181614B
:10D26000816901F010010091816941F02001816123
:10D270008069134D00F0200000900D21284607F032
:10D28000A3FB0F4C6814103420600E21284607F0D1
:10D290009BFB4FF48040206001220C21284607F0C0
:10D2A00041FB0021284607F0C1FB01202060062138
:10D2B000284607F089FB4020206038BD001002405E
:10D2C000000C01402DE9F04F87B004460590002086
:10D2D000DFF8ECA2CDE901018D1C8AF80000039073
:10D2E0006678A41C8046002E7ED014F8019B5FEA6D
:10D2F00089717AD5B8F1000F31D0B248478909F069
:10D30000110001280CD16946484602F077FA02283C
:10D3100014D17F1E03D39AF800100029F3D0FFE048
:10D3200069460E2002F06AFA022805D17F1E03D357
:10D330009AF800100029F3D04FF000080128EED130
:10D34000009905F8011B0099090A05F8011B0099CD
:10D35000090C05F8021B0099090E05F8011C5FEA8B
:10D36000C9614ED5E7782046FFF704FA67F31F60DE
:10D3700004909448241DB0F80CB05FEAC97011D035
:10D38000904847890021484602F038FA022802D026
:10D39000012806D106E07F1E03D39AF80010002969
:10D3A000F0D0BDE0874847896946484602F026FA32
:10D3B000022802D0012815D106E07F1E12D39AF868
:10D3C00000100029F0D00DE07E49009A0969114053
:10D3D000049A914206D0BBF1010B03D39AF80010D6
:10D3E0000029DFD0774901E0BAE046E00969009AF8
:10D3F0001140049A914201D040F01000012817D149
:10D4000039E070494F895FEAC97115D0B8F1000F52
:10D4100031D10021484602F0F1F9022802D001285A
:10D420007ED106E07F1E7BD39AF800100029F0D051
:10D4300076E04FF001081EE06946484602F0DEF94A
:10D44000022802D001286BD106E07F1E68D39AF82B
:10D4500000100029F0D063E0009905F8011B009945
:10D46000090A05F8011B0099090C05F8021B00992F
:10D47000090E05F8011C002147E0B8F1000F22D089
:10D480005048478969460E2002F0B8F9022802D0B8
:10D49000012845D106E07F1E42D39AF800100029EA
:10D4A000F0D03DE0009805F8010B00984FF000081F
:10D4B000000A05F8010B0098000C05F8020B009813
:10D4C000000E05F8010CE7782046FFF753F967F3E3
:10D4D0001F60241D00905FEA896103D53949086106
:10D4E000012013E0374847896946484602F086F92B
:10D4F000022802D0012813D106E07F1E10D39AF82B
:10D5000000100029F0D00BE0012103910199491C82
:10D5100001919AF8001019B9761E7FF4E6AE09E081
:10D5200046B114F8011B8A0701D5C90600D5241D90
:10D53000761EF5E7012834D1B8F1000F21D021483B
:10D540005746468969460E2002F058F9022802D053
:10D55000012826D105E0761E23D339780029F1D0A1
:10D560001FE0009905F8011B0099090A05F8011B45
:10D570000099090C05F8021B0099090E05F8011C19
:10D580000FE0039969B10F485746468900210E20E4
:10D5900002F034F9022804D1761E02D3397800292A
:10D5A000F4D0DDE901121170029948700298291A2D
:10D5B000059807B0201A41EA0040BDE8F08F00004E
:10D5C00004000020E80200202DE9F84F0025DFF8D4
:10D5D00018B1024628468A46CE1C8BF80050917836
:10D5E0005378D21C53EA012473D012F8019B904661
:10D5F0005FEA89715DD55FEAC9713AD03B484789D6
:10D600000021484602F0FAF8022802D0012860D131
:10D610002FE07F1E5DD39BF800100029F0D058E06A
:10D6200024B95FEAC97001D04FF00E092F48D846DF
:10D6300047896946484602F0E1F8022802D00128ED
:10D6400047D106E07F1E44D398F800100029F0D09F
:10D650003FE0009906F8011B0099090A06F8011B32
:10D660000099090C06F8021B0099090E06F8011C26
:10D670006D1C641ED4D22CE0404698F80370FFF76E
:10D6800079F867F31F600090184808F1040847898B
:10D690006946484602F0B2F8022802D0012818D1A3
:10D6A00006E07F1E15D39BF800100029F0D010E093
:10D6B0006D1C641EE0D20D485F46448900210E2097
:10D6C00002F09CF8022804D1641E02D339780029A4
:10D6D000F4D08AF800502A0A8AF801208AF8020059
:10D6E000A6EB0A00BDE8F88F04000020E802002045
:10D6F00070B50C46C578FFF73DF865F31F60104D17
:10D7000048B110490023104A0968B0EB910F05D3C6
:10D71000012050700FE0FF2020700EE000EB51015F
:10D72000491EB1FBF0F05370022803D90321B0FB6E
:10D73000F1F000E0012050602370284670BD000029
:10D740000100040028010020E80200202DE9F04734
:10D7500010F8015B8A4610F8014BC778FFF70AF80A
:10D7600067F31F60494F0646E00707F1040807D03A
:10D77000E8074FF4005101D0396001E0C8F800100B
:10D78000A00707D5A9074FF4804001D5386001E014
:10D79000C8F80000600709D5A808C1074FF080004D
:10D7A00001D03B4901E03A49091D086020060CD52B
:10D7B0004FEAD51908F0A8F95FEAC9714FF00100E6
:10D7C00001D0386001E0C8F80000DFF8C0C0304F79
:10D7D000ACF1040C083FACF104010023DEB32D488A
:10D7E000864200D906464FF0E02293612A48DFF8CE
:10D7F000AC800068B0FBF8F0704350610520106108
:10D80000E00705D0DCF80000C0F34030A8421CD18E
:10D81000A00705D50868C0F30030B0EB550F14D150
:10D82000600705D53868C0F3C010B0EB950F0CD178
:10D83000A00602D5B3EB551F07D120060AD508680C
:10D8400000F00100B0EBD51F04D01069C0F3004018
:10D850000028D5D01361DCF80000C0F3403208681E
:10D86000C0F3003042EA40023868C0F3C01042EA18
:10D8700080023868C0F3401042EAC002086842EAF9
:10D88000C0108AF800000648BDE8F087100C01407F
:10D8900010080140C0C62D002801002040420F00A2
:10D8A000010006000A4800210A4A0170417012680E
:10D8B000094BB2FBF3F2921E426001726422428174
:10D8C000818101220161027541758175FFF7B2BC4A
:10D8D000E80200202801002080969800F8B5164A3A
:10D8E0000D4600271178012903D0FF23022912D108
:10D8F0000BE00679401CFEF73DFF66F31F600090C9
:10D900006946002001F07AFF12E004460078D075E5
:10D91000917D884201D32B700BE0082001F004F9BF
:10D920002679601CFEF726FF66F31F6001F02EFDCE
:10D930002F700248F8BD0000E80200200100050039
:10D9400001078A0E07490A44D2F8001C000602D5D6
:10D9500048F6CF7001E04CF68F700140C2F8001C11
:10D9600070470000005000400207930E0C4A30B58B
:10D970001344D3F8002C000648F68F7402EA040022
:10D9800048F2800582EA010202D502F0300101E08E
:10D9900002F4405108432843C3F8000C30BD000096
:10D9A0000050004030B585B00546002400F03CF939
:10D9B0000120002103900091CDE9011504A96846DA
:10D9C00000F092F800B1012400F0E2F805B0204622
:10D9D00030BD000006490020C8610648016941F0D9
:10D9E00004010161016941F04001016170470000DB
:10D9F000B021002000200240064A0021D1610649E2
:10DA00000A6942F002020A614861086940F0400078
:10DA100008617047B021002000200240044B002222
:10DA2000DA61044A136943F001031361018070470E
:10DA3000B0210020002002400E49C868C2060E48EE
:10DA400003D5C26942F00202C261CA68520703D517
:10DA5000C26942F00102C261CA69D20707D0C26935
:10DA600042F00402C261C86920F00100C8611420BC
:10DA7000C860704700200240B021002070B5044605
:10DA800000F0CEF90546114E09E0601C07D024B124
:10DA900000F0C6F9401BA04201D9032070BDF06818
:10DAA000C007F2D1F068800601D52020F060F06850
:10DAB000C00605D4F069C00702D1F068400703D55D
:10DAC000FFF7BAFF012070BD002070BD00200240AA
:10DAD00031B500F0A5F9044600F0A2F90099001B49
:10DAE0008842F9D338BD00002DE9F04705462648A5
:10DAF0000F460126017E01290FD0012181460176C2
:10DB00002868DFF888804CF25034022808D0A246FA
:10DB10002046FFF7B3FFA8B131E00220BDE8F0874F
:10DB20002046FFF7ABFF08BB0120FFF753FF20465D
:10DB3000FFF7A4FFD8F81010064621F00401C8F83A
:10DB400010101CE04FF0FF303860AC6811E0204648
:10DB5000FFF752FF5046FFF791FFD8F8101006006C
:10DB600021F00201C8F8101001D03C6007E004F574
:10DB70008064D5E9020100EB8120A042E7D80021B2
:10DB800089F818103046C9E7B02100200020024073
:10DB90000348016941F080010161002070470000E5
:10DBA000002002402DE9F05F05461D48884600240C
:10DBB000017E16461F46012909D0012181460176C2
:10DBC0004CF2503A5046FFF759FF18B123E00220BB
:10DBD000BDE8F09F012D02D0022D00D00425D346D0
:10DBE000DFF840A015E0220130463946FEF7BAFBC7
:10DBF00081B208EB4400FFF711FF5846FFF73EFFE4
:10DC0000DAF8102022F00102CAF8102018B9641CBA
:10DC1000E4B2AC42E7D3002289F81820D8E700002C
:10DC2000B02100200020024005480169090605D501
:10DC30000449416004494160002070470120704759
:10DC40000020024023016745AB89EFCD2DE9F84F55
:10DC5000DFF8A091002309F1040A0AF1040B1C4625
:10DC60004FF00F080BF1040E01270A68A7403A4055
:10DC7000BA4272D1DFF880C14D68A5EB0C0665454C
:10DC80002BD00DDC032D34D005DC35B3012D19D09C
:10DC9000022D2FD11BE0112D16D0122D2AD119E003
:10DCA000B6F5881F19D006DCB6F5803F15D0B6F55D
:10DCB000801F1FD111E0B6F5001F0ED0B6F5041F6E
:10DCC00018D10AE0CB6815E0CB681B1D12E0CB68C9
:10DCD00008330FE0CB680C330CE08B682BB1012BC1
:10DCE0004FF0080303D0476104E0042302E007611A
:10DCF00000E00023FF2A01D8064601E000F10406F7
:10DD00004FEA840501D9A5F12005376808FA05FC1A
:10DD100027EA0C0703FA05F547EA050737604D685F
:10DD2000ED0060D5354DAE6946F00106AE61AD69D6
:10DD300024F0030605F001050095314D7719BE6802
:10DD4000A5072D0F08FA05FC26EA0C06DFF8B4C07B
:10DD5000604503D14FF0000C17E044E0DFF8A8C0A5
:10DD6000604502D14FF0010C0FE0DFF8A0C0604524
:10DD700002D14FF0020C08E0DFF894C0604502D1F8
:10DD80004FF0030C01E04FF0040C0CFA05FC4CEAD8
:10DD9000060CC7F808C04D68D9F80060ED034D4681
:10DDA00001D5164300E096432E604D68DAF8006016
:10DDB000AD03554601D5164300E096432E604D68ED
:10DDC000DBF80060ED025D4601D5164300E09643A6
:10DDD0002E604D68DEF80060AD02754601D5164331
:10DDE00000E096432E60641C102CFFF43DAFBDE8AC
:10DDF000F88F0000000401400000111000100240E4
:10DE00000000014000080140000C014000100140EA
:10DE1000001401400AB1016170470904FBE70000EA
:10DE2000EFF3108010F0010F72B608480068406AE6
:10DE3000074B4FEA90021868A2EB0002C2F30D02F2
:10DE40001044186000D162B67047000070210020B5
:10DE500024010020074810B5016841F0100101605D
:10DE6000032000F05DF80F2000F006F800F056F8EF
:10DE7000002010BD0020024010B588B005A96846FA
:10DE800000F020F90398B0F5806F08D0B0F5A06FCE
:10DE900035D0B0F5C06F34D0B0F5E06F33D001208D
:10DEA0001A494FF0804200240968B1FBF0F04FF4AA
:10DEB0007A61B0FBF1F11648491E02604FF6FF721D
:10DEC000C0E90324C0E9011444611248C16941F06A
:10DED0000101C161C06900F0010006900C4800F02A
:10DEE00042FC002809D10C480460094800F057FCA6
:10DEF000002802D1064800F06FFC08B010BD0220D7
:10DF0000CEE70420CCE70820CAE700002801002063
:10DF10007021002000100240240100207047000002
:10DF2000064A00F0070110684FF6FF03184040EA68
:10DF30000120034908431060704700000CED00E029
:10DF40000000FA052DE9F047DFF8688104460E4627
:10DF5000D8F8000000F00700B0420CD2D8F800104A
:10DF600021F007013143C8F80010D8F8000000F094
:10DF70000700B04273D120784F4F800705D57868ED
:10DF8000A16820F0F000084378602078C00755D0E1
:10DF90006068012201280CD0022828D0022393FABD
:10DFA000A3F1B1FA81F141F02001490904D03968A7
:10DFB00003E04FF40033F2E7796A93FAA3F3B3FA7C
:10DFC00083F303F01F039A40114248D0796821F08F
:10DFD000030101437960FFF723FF0546606841F2C2
:10DFE000883101280CD00228894615D022E04FF054
:10DFF0000073D4E7FFF714FF411B494501D916E030
:10E0000089467868C0F381000128F3D116E0FFF754
:10E0100007FF411B49450AD87868C0F381000228F0
:10E02000F5D10BE0FFF7FCFE411B494502D9032067
:10E03000BDE8F087786810F00C0FF3D1D8F8001025
:10E04000404601F00701B1420BD9016821F00701F8
:10E0500031430160006800F00700B04201D00120A8
:10E06000E6E72078400705D57868E16820F4E060AD
:10E07000084378602078000706D57868216920F485
:10E08000605040EAC100786000F06CF87968F022D6
:10E0900092FAA2F201F0F001B2FA82F2D140074AFC
:10E0A000515CC840064908600F20FFF7E5FE0020DC
:10E0B000BEE700000020024000100240B48A0108C0
:10E0C000280100200F2202600C4A536803F003036A
:10E0D0004360536803F0F0038360536803F4E06324
:10E0E000C36052684FF4E06303EAD202026104485D
:10E0F000006800F007000860704700000010024050
:10E100000020024008480949006849684FF4E0626D
:10E1100092FAA2F201F4E061B2FA82F2D140044A2A
:10E12000515CC840704700002801002000100240E8
:10E13000C48A010808480949006849684FF46052D8
:10E1400092FAA2F201F46051B2FA82F2D140044A8A
:10E15000515CC840704700002801002000100240B8
:10E16000C48A010810B519A085B00FC88DE80F004A
:10E170001AA01B4B0068049059681A4801F00C0261
:10E18000042A1DD0082A1BD14FF4701494FAA4F469
:10E1900001F47012B4FA84F4E240C9031DF80220BD
:10E1A00010D559684FF4003393FAA3F301F400310A
:10E1B000B3FA83F3D94004AB595CB0FBF1F05043A0
:10E1C00005B010BD08485043FAE7000002030405FB
:10E1D000060708090A0B0C0D0E0F101001020000B3
:10E1E0000010024000127A0000093D002DE9F84FAE
:10E1F00004460078FE4EC0074FF001057FD07068DE
:10E200004FF40038C0F38100012807D07068C0F3D4
:10E21000810002281BD17068C00318D598FAA8F0B5
:10E22000B0FA80F040F02000400901D0306800E0F2
:10E23000706A98FAA8F1B1FA81F101F01F0105FAAC
:10E2400001F108425BD06068002879D057E060682F
:10E25000B0F5803F0BD010B1B0F5A02F11D03068D1
:10E2600020F480303060306820F4802002E0306894
:10E2700040F480303060606818B3FFF7D1FD074686
:10E2800009E0306840F480203060F0E7FFF7C8FD17
:10E29000C01B642870D898FAA8F0B0FA80F040F05B
:10E2A0002000400901D0306800E0706A98FAA8F1B7
:10E2B000B1FA81F101F01F0105FA01F10842E5D040
:10E2C0001DE0FFF7ADFD074604E0FFF7A9FDC01B09
:10E2D0006428DFD898FAA8F0B0FA80F040F0200067
:10E2E000400901D0306800E0706A98FAA8F1B1FAEC
:10E2F00081F101F01F0105FA01F10842E5D1207812
:10E30000DFF8F08280074FF0000A4FF002075AD57D
:10E3100070684FF0F80B10F00C0F07D07068C0F366
:10E32000810002281CD17068C00319D497FAA7F0A5
:10E33000B0FA80F040F02000400902D0306801E0DF
:10E340008AE0706A97FAA7F1B1FA81F101F01F0132
:10E3500005FA01F108422BD0206901287CD127E081
:10E36000206988B395FAA5F0B0FA80F048F82050FB
:10E37000FFF756FD814606E04DE1FFF751FDA0EBAA
:10E380000900022886D897FAA7F0B0FA80F040F08A
:10E390002000400901D0306800E0706A97FAA7F1C8
:10E3A000B1FA81F101F01F0105FA01F10842E4D050
:10E3B00030689BFAABF220F0F8016069B2FA82F2A1
:10E3C00090400143316025E0FFE795FAA5F1B1FAED
:10E3D00081F148F821A0FFF723FD814605E0FFF712
:10E3E0001FFDA0EB09000228CCD897FAA7F0B0FADD
:10E3F00080F040F02000400901D0306800E0706AF1
:10E4000097FAA7F1B1FA81F101F01F0105FA01F1C4
:10E410000842E4D1207800076DD5A069B8B395FA19
:10E42000A5F0B0FA80F008EB8000C0F88054FFF748
:10E43000F7FC814605E0FFF7F3FCA0EB090002289A
:10E44000A0D897FAA7F0B0FA80F040F06000B5EBE2
:10E45000501F02D130680CE063E197FAA7F0B0FAE0
:10E4600080F040F06000B7EB501F01D1306A00E04F
:10E47000706A97FAA7F1B1FA81F101F01F0105FA6C
:10E4800001F21042D7D00120FFF722FB33E0FFE773
:10E4900095FAA5F1B1FA81F108EB8101C1F880A4E8
:10E4A000FFF7BEFC814605E0FFF7BAFCA0EB0900D0
:10E4B000022899D897FAA7F0B0FA80F040F06000EF
:10E4C000B5EB501F01D130680BE097FAA7F0B0FA16
:10E4D00080F040F06000B7EB501F01D1306A00E0DF
:10E4E000706A97FAA7F1B1FA81F101F01F0105FAFC
:10E4F00001F21042D8D12078400763D5F06940F08E
:10E500008050F061F069DFF8F0B000F080500090CA
:10E51000DBF8001041F48071CBF80010FFF780FCAD
:10E52000814605E0FFF77CFCA0EB0900642872D867
:10E53000DBF80000C005F5D5E06801280AD008B175
:10E54000052813D0306A20F001003062306A20F0D4
:10E55000040002E0306A40F001003062E06841F2FD
:10E56000883B80B3FFF75CFC81460AE0306A40F0EC
:10E5700004003062EEE7FFF753FCA0EB09015945B8
:10E5800049D897FAA7F0B0FA80F040F04000B5EB18
:10E59000501F01D130680BE097FAA7F0B0FA80F075
:10E5A00040F04000B7EB501F01D1306A00E0706AC4
:10E5B00097FAA7F1B1FA81F101F01F0205FA02F111
:10E5C0000842D8D033E0FFE7FFF72AFC814605E098
:10E5D000FFF726FCA0EB090159451CD897FAA7F0D4
:10E5E000B0FA80F040F04000B5EB501F08D105E0D4
:10E5F00000100240000042420070004030680CE011
:10E6000097FAA7F0B0FA80F040F04000B7EB501F47
:10E6100002D1306A01E08AE0706A97FAA7F1B1FA94
:10E6200081F101F01F0205FA02F10842D0D1E06940
:10E6300098B37168C1F38101022972D002284FF0AA
:10E6400080714FF0007B50460AD091FAA1F1B1FAE7
:10E6500081F148F82100FFF7E3FB04465F4669E0DB
:10E660008A4691FAA1F1B1FA81F1C14648F8210038
:10E67000FFF7D6FBA84607465D4604E0FFF7D0FB50
:10E68000C01B022853D895FAA5F0B0FA80F040F0EC
:10E690002000400902D0306801E060E0706A95FA1D
:10E6A000A5F1B1FA81F101F01F0208FA02F1084266
:10E6B000E4D1206AB0F5803F05D17068A16820F4EC
:10E6C000003008437060D4E908010843716821F400
:10E6D0007411084370609AFAAAF0B0FA80F04746C5
:10E6E00049F82080FFF79CFB044604E0FFF798FB05
:10E6F000001B02281BD895FAA5F0B0FA80F040F074
:10E700002000400901D0306800E0706A95FAA5F158
:10E71000B1FA81F101F01F0107FA01F10842E5D0D9
:10E720001DE01EE0FFF77CFB001B022802D903203E
:10E73000BDE8F88F97FAA7F0B0FA80F040F020001B
:10E74000400901D0306800E0706A97FAA7F1B1FA89
:10E7500081F101F01F0105FA01F10842E2D1002028
:10E76000E6E70120E4E710B50446022084F839000A
:10E770002068016A41F21112114207D1016A921018
:10E78000114203D1016821F001010160204600F02F
:10E7900021F8002084F8390084F8380010BD10B545
:10E7A000040003D094F8390010B107E0012010BD37
:10E7B000002084F83800204600F00DF8022084F88C
:10E7C0003900211D206801F0C3FB012084F83900C5
:10E7D000002010BD70477047022180F83910016891
:10E7E0000A6842F001020A60012180F83910002015
:10E7F000704770B5044690F838000D4601280DD0DA
:10E80000012684F83860022084F8390042B1042AD5
:10E8100018D0082A2AD00C2A4DD139E0022070BD28
:10E82000206801F0D3FB2068816941F00801816113
:10E830002068816921F004018161206881692A6969
:10E84000114311E0206801F0EDFB2068816941F47B
:10E85000006181612068816921F4806181612068A3
:10E8600081692A6941EA0221816124E0206801F07E
:10E8700007FC2068C16941F00801C1612068C169D5
:10E8800021F00401C1612068C1692A69114311E0C6
:10E89000206801F021FC2068C16941F40061C16178
:10E8A0002068C16921F48061C1612068C1692A6959
:10E8B00041EA0221C16184F83960002084F83800FF
:10E8C00070BD10B50446022084F839002068016A42
:10E8D00041F21112114207D1016A9210114203D183
:10E8E000016821F001010160204600F021F80020BC
:10E8F00084F8390084F8380010BD10B5040003D046
:10E9000094F8390010B107E0012010BD002084F810
:10E910003800204600F00DF8022084F83900211D4F
:10E92000206801F015FB012084F83900002010BD9B
:10E930007047704710B504460068012201F03AFBA9
:10E9400007492068884203D1416C41F40041416489
:10E950002068016841F001010160002010BD000045
:10E96000002C014070B5040018D0022084F8390052
:10E970002068C16821F40051C16020680025C5608D
:10E980002068056120684561204600F038F8E5639D
:10E9900084F8395084F83850002070BD012070BDD3
:10E9A00070B5040004D094F83900002510B106E0D9
:10E9B000012070BD84F83850204600F021F8022074
:10E9C00084F839002068C16821F40051C1602046F4
:10E9D00001F0A4FB2068016921F4904101612068E5
:10E9E000416921F02A0141612068C16841F4005168
:10E9F000C160E563012084F83900002070BD7047D4
:10EA000070470000EFF308840EF00F000D2801D1CD
:10EA1000EFF30984A08B04F12005800500D52D1D9E
:10EA20005FEACE6000D44835704604F0D9F9EFF3C0
:10EA3000098004F0D5F9EFF3088004F0D1F9EFF381
:10EA4000148004F0CDF9284604F0CAF9606904F096
:10EA5000C7F9A06904F0C4F9E06904F0C1F91248EB
:10EA6000006804F0BDF91048001F006804F0B8F910
:10EA70000D48001D006804F0B3F90B481030006821
:10EA800004F0AEF908480830006804F0A9F9064817
:10EA90000C30006804F0A4F94A2204A1002003F01D
:10EAA000AFFF01F045FAFEE72CED00E02E2E5C2EC4
:10EAB0002E5C2E2E5C736F757263655C6461706C86
:10EAC000696E6B5C486172644661756C745F486125
:10EAD0006E646C65722E6300002070471CB507F0F1
:10EAE00043FC00281CD09E208DF80000E7208DF804
:10EAF00001006946102001F097F9012407F034FC69
:10EB000000280DD000208DF800006946082001F093
:10EB10008BF901A9002007F0BBFB012801D104B14A
:10EB20001CBD00201CBD00000349497809B100F05C
:10EB300005B800F063B80000E80200202DE9F043BA
:10EB40002B4C4FF4804727606314251D2B602360F6
:10EB50002B6023602F602B6023602B602360254E89
:10EB600080223260244991F817C001EB4C09B9F8B2
:10EB7000201019B12B602360491EFBD11E49DFF81C
:10EB80007480183108F104081CF8011009E05FEAEC
:10EB9000C07C01D0326001E0C8F800202B60236007
:10EBA0004008491EF3D1B9F8301079B1C00701D03F
:10EBB000326001E0C8F800202B602360326001E081
:10EBC0002B602360491EFBD1276006E02760C00749
:10EBD00001D0326001E0C8F800202B6023602B6078
:10EBE00023602F602B6023603260BDE8F08300005B
:10EBF000100C014010080140E80200202DE9F04708
:10EC0000584D4FF48048C5F8008005F1040C6F148E
:10EC1000CCF80070544B59680A46521EFDD12F6043
:10EC20000A46521EFDD1CCF800700A46521EFDD194
:10EC30002F600A46521EFDD1CCF80080CCF800703F
:10EC40000A46521EFDD12F600A46521EFDD1CCF855
:10EC500000700A46521EFDD12F600A46521EFDD199
:10EC6000424E80243460DA7D03EB420A9146BAF8C2
:10EC7000203053B1CCF800700A46521EFDD12F60EF
:10EC80000A46521EFDD15B1EF4D1374B183319F8DA
:10EC90000330DFF8D89009F104090FE0C20701D072
:10ECA000346001E0C9F80040CCF800700A46521EFA
:10ECB000FDD12F600A46521EFDD140085B1EEDD1EA
:10ECC000BAF830203AB3C00701D0346001E0C9F887
:10ECD0000040CCF800700846401EFDD12F60084669
:10ECE000401EFDD1346008E0CCF800700846401E9C
:10ECF000FDD12F600846401EFDD1521EF4D1C5F84B
:10ED00000080CCF800700846401EFDD12F600846F8
:10ED1000401EFDD110E0C5F80080C00701D034606E
:10ED200001E0C9F80040CCF800700846401EFDD153
:10ED30002F600846401EFDD1CCF800700846401EEA
:10ED4000FDD12F600846401EFDD1CCF80080CCF8E4
:10ED500000700846401EFDD12F60491EFDD1346071
:10ED6000BDE8F087100C0140E802002010080140C7
:10ED7000F0B5314C4FF4804626606314251D2B609E
:10ED80002E4A51680846401EFDD123600846401EA9
:10ED9000FDD12E602B600846401EFDD12360084641
:10EDA000401EFDD12B600846401EFDD12360084661
:10EDB000401EFDD1D27D4AB12B600846401EFDD1D8
:10EDC00023600846401EFDD1521EF5D10027DFF812
:10EDD00070C01F222B600846401EFDD1DCF80000E9
:10EDE0002360C0F3401E0846401EFDD147EACE70A6
:10EDF0004708521EEED126602B600846401EFDD10A
:10EE0000DCF800002360C0F340120846401EFDD12C
:10EE100047EAC2702B600A46521EFDD123600A46A3
:10EE2000521EFDD12E602B600A46521EFDD123607A
:10EE3000491EFDD1F0BD0000100C0140E802002089
:10EE4000080801402DE9F04F814610F03F0000D145
:10EE50004020DFF888B0DFF888E05FEA49644FF4CB
:10EE600080434FF0800AABF104084FF4005C01D5F9
:10EE7000444600E05C4623602BE0002611F8015B6D
:10EE800008231EE0EC07544601D0164F01E0154F51
:10EE90003F1D3C60CBF800C0DEF8044027467F1ED3
:10EEA000FDD1104F083F3F68C8F800C0C7F34017B6
:10EEB000641EFDD174086D08401E44EAC7165B1E2F
:10EEC00001D00028DED1DE405FEA096301D502F8F7
:10EED000016B0028D1D1BDE8F08F0000140C014077
:10EEE000E802002010080140034A52780AB100F0FD
:10EEF00005B800F0CDB80000E80200202DE9F04F81
:10EF0000604E4FF480438B4633605D10371D3D608B
:10EF100035603B603D6035603D6035605A49C97D74
:10EF200019B13D603560491EFBD1584C4108C907F5
:10EF3000A4F1040C4FF0800202D0CCF8002000E0D5
:10EF400022603D60DFF84491A9F10C09D9F8001066
:10EF50003560C1F3401149004FEA90085FEAC87874
:10EF600002D0CCF8002000E022603D60D9F800809B
:10EF70003560C8F3401841EA08014FEAD0085FEA5B
:10EF8000C87802D0CCF8002000E022603D60D9F8BB
:10EF90000080CE46C8F34018356041EA8809B9F1CF
:10EFA000010F01D0336059E0DFF8DC80810798F869
:10EFB000160098F81780A0EB080A2BD500211F2017
:10EFC000F0463D60D8F800403560640941EAC471FC
:10EFD0004908401EF5D1BAF1010014D03D60D8F8BF
:10EFE0000040C4F3401400E03D603560401EFBD19A
:10EFF00033603D60356041EAC470BBF1000F2FD033
:10F00000CBF800002CE033603D60D8F80000C0F37E
:10F010004014EFE7DBF800001F215FEAC07802D060
:10F02000CCF8002000E022603D6035604008491EB9
:10F03000F3D1BAF101010AD0C00702D0CCF8002008
:10F0400000E022603D603560491EFBD1AAE73360D5
:10F05000C00702D0CCF8002000E022603D6035609F
:10F060003D6035603B603D603560CCF8002006486F
:10F07000007A01E03D603560401EFBD24846BDE8A5
:10F08000F08F0000100C0140E8020020140801403D
:10F090002DE9FC4FDFF8E8C24FF480468E46CCF8ED
:10F0A00000600CF104087310C8F80030B54C6168BA
:10F0B0000A46521EFDD1CCF800300A46521EFDD140
:10F0C000C8F80060C8F800300A46521EFDD1CCF8DE
:10F0D00000300A46521EFDD1C8F800300A46521EC2
:10F0E000FDD1CCF800300A46521EFDD1E47D5CB162
:10F0F000C8F800300A46521EFDD1CCF800300A464E
:10F10000521EFDD1641EF3D19F4F4208D207A7F1D2
:10F1100004054FF0800401D02C6000E03C60C24642
:10F12000C8F800300A46521EFDD1DFF85CB2ABF1E0
:10F130000C0BDBF80020CCF80030C2F340128846FC
:10F14000B8F10108FCD152004FEA90085FEAC87894
:10F1500001D02C6000E03C60CAF800308846B8F16D
:10F160000108FCD1DBF80080DFF814C2C8F34018B6
:10F170009946CCF800300B465B1EFDD1C30842EA2D
:10F180000802DB0701D02C6000E03C60CC46CAF8E6
:10F1900000900B465B1EFDD1DBF80030E146C3F367
:10F1A0004018774BC3F800C08C46BCF1010CFCD171
:10F1B00042EA88020192012A0AD01E604A46CAF831
:10F1C00000900846401EFDD11A60491EFDD1AEE0F8
:10F1D0006C4A5FEA807C907DD27DA0EB02000090BB
:10F1E00055D500271F22CC46CAF800C00846401E4D
:10F1F000FDD1DBF80000C3F800C0C0F3401808469A
:10F20000401EFDD147EAC8704708521EECD1009855
:10F21000401E020025D0CAF800C00846401EFDD19D
:10F22000DBF80000C3F800C0C0F340180846401ED9
:10F23000FDD1521E0AD0CAF800C00846401EFDD1BA
:10F24000C3F800C00846401EFDD1F2E71E60CAF8B0
:10F2500000C00846401EFDD1C3F800C0491EFDD1C4
:10F260000DE01E60CAF800C00846401EFDD1DBF864
:10F270000000C3F800C0C0F34018491EFDD147EAA2
:10F28000C870BEF1000F52D0CEF800004FE0DEF89B
:10F2900000001F22D4465FEAC07801D02C6000E055
:10F2A0003C60CCF800908846B8F10108FCD1C3F866
:10F2B00000908846B8F10108FCD14008521EEAD1FE
:10F2C000009A521E24D0C00701D02C6000E03C60A0
:10F2D0004F46CCF800900846401EFDD11F600846FE
:10F2E000401EFDD1521E09D0CCF800700846401EC9
:10F2F000FDD11F600846401EFDD1F3E71E60CCF82B
:10F3000000700846401EFDD11F60491EFDD10EE071
:10F310001E60C00701D02C6000E03C604A46CCF87B
:10F3200000900846401EFDD11A60491EFDD14F468F
:10F33000D446CAF8009013494A681046401EFDD1D1
:10F340001F601046401EFDD1CCF80060CCF8007064
:10F350001046401EFDD11F601046401EFDD12C609E
:10F360000C7A08E0CCF800701046401EFDD11F60FA
:10F370001146491EFDD1641EF4D20198BDE8FC8FF0
:10F38000100C0140E8020020140801402DE9F04F64
:10F390005B4E4FF4804434606510371D3D60594A20
:10F3A00051680B465B1EFDD135600B465B1EFDD1DF
:10F3B000A1463C603D600B465B1EFDD135600B46AF
:10F3C0005B1EFDD13D600B465B1EFDD135600B46DB
:10F3D0005B1EFDD1D47DB4F1000A09D03D600B461F
:10F3E0005B1EFDD135600B465B1EFDD1641EF5D161
:10F3F000DFF814C18024CCF800403D600B465B1E52
:10F40000FDD135600B465B1EFDD13D600B465B1E9A
:10F41000FDD135600B465B1EFDD13D600B465B1E8A
:10F42000FDD135600B465B1EFDD1DFF8DC801F236C
:10F43000A8F104089346C20702D0C8F8004001E0D2
:10F44000CCF800403D600A46521EFDD135600A46A8
:10F45000521EFDD140085B1EEDD19BF81630A3EB88
:10F460000A02521E25D0C00702D0C8F8004001E0B1
:10F47000CCF800402B463D600846401EFDD133606D
:10F480000846401EFDD1521E08D03B600846401E73
:10F49000FDD133600846401EFDD1F4E7C6F8009068
:10F4A0003B600846401EFDD133600846401EFDD13A
:10F4B00010E0C6F80090C00702D0C8F8004001E094
:10F4C000CCF800403D600846401EFDD1356008463E
:10F4D000401EFDD13D600846401EFDD13560084606
:10F4E000401EFDD1C7F800903D600846401EFDD18A
:10F4F0003560491EFDD1C8F80040BDE8F08F00001E
:10F50000100C0140E80200201408014000F01F0226
:10F51000012191404009800000F1E020C0F8001175
:10F520007047000070B5104C0D21204605F065FABB
:10F530000D4D6014103528600E21204605F05DFA4F
:10F540004FF48040286001220C21204605F013FA78
:10F55000206820F00F002060206840F00700206045
:10F560000120286070BD0000000C01402DE9F04131
:10F5700017460D4680460026FEF756FBA80706D024
:10F5800000206A220DA103F03BFA00240DE00120C7
:10F59000F7E757F8242008EB840100230220FEF748
:10F5A00001FB08B1012603E0641CB4EB950FF0D316
:10F5B000FEF7EEFA3046BDE8F08100002E2E5C2EFC
:10F5C0002E5C2E2E5C736F757263655C6869635F79
:10F5D00068616C5C73746D33325C73746D33326666
:10F5E00031303378625C666C6173682E63000000B2
:10F5F0002DE9F05F7F4C4FF480478B464FF0000CB5
:10F6000027606514261D35607B4A51680B465B1EDA
:10F61000FDD125600B465B1EFDD1C30701D02760DD
:10F6200000E0376035600B465B1EFDD125600B4660
:10F630005B1EFDD10CEB00084FEA500C5FEACC7367
:10F6400001D0276000E0376035600B465B1EFDD1BE
:10F6500025600B465B1EFDD1E0444FEA900C5FEA4B
:10F66000CC7301D0276000E0376035600B465B1E2D
:10F67000FDD125600B465B1EFDD108EB0C03C008D5
:10F680005FEAC07C01D0276000E0376035608C46BF
:10F69000BCF1010CFCD125608C46BCF1010CFCD105
:10F6A0001844C00701D0276000E037603560084685
:10F6B000401EFDD125600846401EFDD137603560F3
:10F6C0000846401EFDD125600846401EFDD127603A
:10F6D00035600846401EFDD125609046491EFDD18B
:10F6E000DFF810A10022AAF1100A0E21504605F001
:10F6F00019F9276098F814100A1E0BD0D8F80430B6
:10F7000035601846401EFDD125601846401EFDD1CB
:10F71000491EF5D13560D8F804000146491EFDD1D7
:10F72000DFF8D0C0ACF1080CDCF800102560C1F3A4
:10F73000003103465B1EFDD1356003465B1EFDD1E3
:10F74000DCF800302560C3F30033C1468046B8F1D1
:10F750000108FCD141EA43013560C84603465B1EFF
:10F76000FDD1DCF800302560C3F300338446BCF1E2
:10F77000010CFCD141EA83094AB135600146491EBA
:10F78000FDD125600146491EFDD1521EF5D10E2145
:10F79000504605F019F937600023D8F80410584690
:10F7A00020225FEAC07C01D0276000E0376035602E
:10F7B0008C46BCF1010CFCD125608C46BCF1010CDF
:10F7C000FCD103444008521EEBD1D80701D027607A
:10F7D00000E0376035600846401EFDD12560491EB7
:10F7E000FDD10E21504605F0EFF8376027604846FE
:10F7F000BDE8F09F100C0140E8020020034A527857
:10F800000AB100F005B800F021B90000E8020020BC
:10F810002DE9F04F8B4B8A464FF4804701461F601D
:10F820005E141D1D2E601E60C00701D01F6000E029
:10F830002F602E601E604808C40701D01F6000E0E2
:10F840002F602E601E600A188808C40701D01F6050
:10F8500000E02F602E601E600244C808C40701D07B
:10F860001F6000E02F602E601E601044C00701D0B2
:10F870001F6000E02F602E601E602F602E601E60F3
:10F880001F602E601E60DFF8BC91A9F11009D9F845
:10F89000042022F07062C9F80420D9F80420C9F8C5
:10F8A00004201F60DFF8A0B19BF81400021E03D0F3
:10F8B0002E601E60401EFBD12E60DFF88881A8F10B
:10F8C0000808D8F800001E60C0F300302E60D8F899
:10F8D00000401E60C4F3003440EA44002E60D8F8B3
:10F8E00000401E60C4F3003440EA8400012817D0B1
:10F8F00002287CD004287AD0213203D02E601E60EA
:10F90000521EFBD1D9F8042022F07062C9F80420FD
:10F91000D9F8042042F04072C9F804202F608EE02C
:10F92000890731D50024224620212E60D8F800C056
:10F930001E60CCF3003C6408624444EACC74491E67
:10F94000F3D12E60D8F800101E6082EA1132D10780
:10F9500000D00820BAF1000F01D0CAF800409BF88F
:10F96000141019B12E601E60491EFBD1D9F8042075
:10F9700022F07062C9F80420D9F8042042F04072E5
:10F98000C9F804202F6029E01AB12E601E60521EB3
:10F99000FAE7D9F8042022F07062C9F80420D9F8F7
:10F9A000042042F04072C9F804202F600024DAF8E5
:10F9B000001020225FEAC17C01D01F6000E02F60B0
:10F9C0002E601E600C444908521EF3D1E10702D09C
:10F9D0001F6001E00BE02F602E601E609BF8081096
:10F9E00069B32F602E601E60491EFBD127E09BF893
:10F9F00015404CB15FEA817C06D54FF0210C2E609A
:10FA00001E60BCF1010CFAD11AB12E601E60521EAC
:10FA1000FAE7D9F804C02CF0706CC9F804C0D9F822
:10FA200004C04CF0407CC9F804C02F603CB1890789
:10FA300005D42F6021212E601E60491EFBD11F605E
:10FA4000BDE8F08F100C0140E80200202DE9F04FD6
:10FA5000F34A04464FF480408B4600261060171D81
:10FA60004FF4005CC7F800C0EE4B59680D466D1EA0
:10FA7000FDD1C2F800C00D466D1EFDD1E50701D0D5
:10FA8000106000E03860C7F800C00D466D1EFDD163
:10FA9000C2F800C00D466D1EFDD106EB04086608D5
:10FAA000F50701D0106000E03860C7F800C00D46CF
:10FAB0006D1EFDD1C2F800C00D466D1EFDD146443D
:10FAC000A5085FEAC57801D0106000E03860C7F88B
:10FAD00000C08846B8F10108FCD1C2F800C08846D1
:10FAE000B8F10108FCD12E44E5085FEAC57801D0E1
:10FAF000106000E03860C7F800C08846B8F101081F
:10FB0000FCD1C2F800C08846B8F10108FCD13544E8
:10FB1000ED0701D0106000E03860C7F800C00D4666
:10FB20006D1EFDD1C2F800C00D466D1EFDD13860BE
:10FB3000C7F800C00D466D1EFDD1C2F800C00D46CD
:10FB40006D1EFDD11060C7F800C00D466D1EFDD1C1
:10FB5000C2F800C00D466D1EFDD1DFF8C4A2AAF1A7
:10FB6000100ADAF8046026F07066CAF80460DAF861
:10FB70000460CAF80460814610601D7D2E1E0BD003
:10FB8000C7F800C00846401EFDD1C2F800C00846B4
:10FB9000401EFDD16D1EF3D1C7F800C00846401EBF
:10FBA000FDD19F4D083D2868C2F800C0C0F3003069
:10FBB0008846B8F10108FCD1C7F800C00B465B1EAF
:10FBC000FDD12B68C2F800C0C3F300338846B8F1FA
:10FBD0000108FCD140EA4300C7F800C00B465B1E99
:10FBE000FDD12B68AE46C3F30033C2F800C00D460A
:10FBF0006D1EFDD140EA8300012823D002286FD07A
:10FC000004286DD021360BD0C7F800C00B465B1E10
:10FC1000FDD1C2F800C00B465B1EFDD1761EF3D1AC
:10FC2000DAF8043023F07063CAF80430DAF80430EC
:10FC300043F04073CAF804304946C7F80090116099
:10FC4000BDE8F08FA3074CD54FF0000845462024AF
:10FC5000C7F800C00B465B1EFDD1DEF80030C2F8CD
:10FC600000C0C3F300360B465B1EFDD14FEA5803BC
:10FC7000354443EAC678641EEAD16446C7F800C03A
:10FC8000684E0B465B1EFDD1DEF800301460C3F3F6
:10FC90000033491EFDD15D40E90700D00820BBF1CB
:10FCA000000F01D0CBF80080337D53B175683C6004
:10FCB0002946491EFDD114602946491EFDD15B1E0F
:10FCC000F5D1DAF8043023F07063CAF80430DAF8BA
:10FCD000043043F04073CAF80430C7F8009045E0A0
:10FCE00058E05EB1C7F800C00B465B1EFDD1C2F8FC
:10FCF00000C00B465B1EFDD1761EF2E7DAF8044029
:10FD000024F07064CAF80440DAF8044044F0407407
:10FD1000CAF80440C846C7F800900026DBF8003057
:10FD20002025DC0702D0C2F8008001E0C7F800807F
:10FD3000C7F800C00C46641EFDD1C2F800C00C46D6
:10FD4000641EFDD11E445B086D1EEAD1F30702D08C
:10FD5000C2F8008001E0C7F800806446C7F800C020
:10FD60000B465B1EFDD11460491EFDD12D490C7A56
:10FD700074B1C7F800904D68C7F800C02946491E05
:10FD8000FDD1C2F800C02B465B1EFDD1641EF3D12D
:10FD9000494654E7234B93F81580B8F1000F0ED075
:10FDA000A3070CD52125C7F800C00B465B1EFDD16B
:10FDB000C2F800C00B465B1EFDD16D1EF3D15EB1D3
:10FDC000C7F800C00B465B1EFDD1C2F800C00B4651
:10FDD0005B1EFDD1761EF2E7DAF8045025F070655F
:10FDE000CAF80450DAF8045045F04075CAF80450D7
:10FDF0004D46C7F80090B8F1000F0FD0A3070DD4FF
:10FE00003D602124C7F800C00B465B1EFDD1C2F83F
:10FE100000C00B465B1EFDD1641EF3D115600FE7D9
:10FE2000100C0140E8020020F0B5144C0023DFF86C
:10FE300048C04FF480471A46ACF1040E7E10656846
:10FE400016E012B911F8013B0822DC0702D0CEF807
:10FE5000007001E0CCF80070CCF800602C46641E05
:10FE6000FDD1CEF800602C46641EFDD15B08521E09
:10FE7000401EE6D2F0BD0000140C0140E802002054
:10FE8000144A10B55068144B10F00C01134803D0FD
:10FE9000042901D0082901D0036012E05168536899
:10FEA00001F470114FF0020413F4803F04EB914110
:10FEB00002D053689B0301D5094B00E0064B594320
:10FEC00001605168074AC1F30311515C0268CA40DE
:10FED000026010BD0010024000127A0028010020CC
:10FEE00000093D00B48A01080D48016841F0010194
:10FEF000016041680B4A1140416001680A4A1140A3
:10FF00000160016821F480210160416821F4FE0153
:10FF100041604FF41F0181600449C00308607047CD
:10FF2000001002400000FFF8FFFFF6FE08ED00E0C1
:10FF3000BFF34F8F04480168044A01F4E0611143A4
:10FF40000160BFF34F8FFEE70CED00E00400FA05FF
:10FF5000F0B50268144C154D154E4FF08047A04285
:10FF600005D0B84203D0A84201D0B04203D122F05C
:10FF700070034A681A43A04205D0B84203D0A84291
:10FF800001D0B04203D122F44073CA681A43026020
:10FF90008A68C2620A688262A04201D1096901636B
:10FFA00001214161F0BD0000002C0140000400402F
:10FFB0000008004010B50123046A8B409C43046292
:10FFC000036A8A401343036210BD000030B5026A21
:10FFD00022F001020262036A4268846924F0730518
:10FFE0000C682C4323F002058B682B430C4DA84270
:10FFF00006D123F00805CB6843EA050323F0040388
:020000040801F1
:1000000007D14D6922F4407245EA02058A6942EA45
:1000100005024260846149684163036230BD0000AB
:10002000002C014030B5026A22F010020262026A1E
:10003000436884690D6824F4E64444EA05248D6825
:1000400022F0200242EA05120C4DA84206D1CD68EA
:1000500022F0800242EA051222F0400207D14D69E7
:1000600023F4406343EA85038D6943EA85034360D3
:10007000846149688163026230BD0000002C014048
:1000800030B5026A22F480720262036A4268C4696F
:1000900023F4007324F073050C682C438D6843EA45
:1000A00005230C4DA84206D1CD6823F4006343EA32
:1000B000052323F4806307D14D6922F4405242EABC
:1000C00005128D6942EA05124260C4614968C16344
:1000D000036230BD002C014030B5026A22F4805228
:1000E0000262036A4268C4690D6824F4E64444EA83
:1000F00005248D6823F4005343EA0533064DA842D6
:1001000004D14D6922F4804242EA85124260C46102
:1001100049680164036230BD002C01402DE9F041C3
:10012000044600680169E26821F44051114301610D
:10013000A16820690143606901432068C26841F2F7
:100140000C639A430A43C26020684169A26921F4A2
:100150004071114341614C4920686426322788422E
:100160003CD1FDF7E7FF00EBC00101EB0010616837
:100170008900B0FBF1F5FDF7DDFF00EBC00101EBFD
:1001800000106168B8468900B0FBF1F0B0FBF6F0F2
:100190006FF01801484305EB800107EB0110B0FB3D
:1001A000F6F000F0F005FDF7C5FF00EBC00101EB34
:1001B000001061688900B0FBF1F0B0FBF6F005EBD0
:1001C0000015FDF7B7FF00EBC00101EB00106168FF
:1001D0008900B0FBF1F7FDF7ADFF3BE0FDF792FFC3
:1001E00000EBC00101EB001061688900B0FBF1F584
:1001F000FDF788FF00EBC00101EB00106168B84615
:100200008900B0FBF1F0B0FBF6F06FF01801484345
:1002100005EB800107EB0110B0FBF6F000F0F005F4
:10022000FDF770FF00EBC00101EB00106168890071
:10023000B0FBF1F0B0FBF6F005EB0015FDF762FF47
:1002400000EBC00101EB001061688900B0FBF1F721
:10025000FDF758FF00EBC00101EB00106168890059
:10026000B0FBF1F0B0FBF6F06FF01801484307EB7C
:10027000800108EB0110B0FBF6F0216800F00F00E0
:1002800028448860BDE8F0810038014070B5154809
:100290000468154DA00612D52868C6B2134802F0AE
:1002A0003FFC132804D93146104802F0A9FC06E0AF
:1002B00005D14FF013020EA10C4802F0F6FC200607
:1002C00007D5104802F03DFC20B10E4802F05AFC60
:1002D000286070BD0448083001680B4A1140016075
:1002E00070BD00000044004004440040E0230020B2
:1002F0003C4441504C696E6B3A4F766572666C6F48
:10030000773E0A00D02100207FFFFFEF00207047DA
:100310000348D0E90410081A02490988081A7047EE
:100320001C020020F48A010870B50B4D0C460346F0
:10033000D5E90C0188420BD9401A844200DD0446FD
:1003400022461846FCF7C3F8686B2044686300E057
:100350000024204670BD00001C02002000207047D1
:100360002DE9F041194F0C460646D7E90401401A21
:1003700017490988081A002802DC0020BDE8F0812E
:10038000844200DD0446D7E90602002590420FD3DF
:10039000104B021919448A420AD30D1A98462A466C
:1003A0003146FCF794F82E44641B4046C7F8188089
:1003B00034B122463146FCF78AF8B8692044B86166
:1003C0003969601901443961D8E700001C02002036
:1003D000F48A0108F226002010B5054C6068002858
:1003E00005D10120606000F005F80020606010BDBC
:1003F0001C0200202DE9F047244CA06800283ED0C4
:10040000D4E90401421AE0684FF0000652EA000104
:1004100037D021461E4FC969DFF87880DFF8789021
:100420001E4D7AB1A069814205D338888B182844C3
:10043000834200D3421A99F8003038F813009042F2
:1004400000DA02461648E660007840F0800002F0CC
:100450000BFAE1690144E1616269024462613B882F
:100460002B448B4200D1E561216991420BD199F86F
:10047000002038F81210814205D10120E060BDE86B
:10048000F087A660FBE7E660F9E700001C020020A9
:10049000F48A0108F88A01085F020020F226002091
:1004A000F28A010810B50B4C206A18B1A06A401CF2
:1004B000A06210BD01202062606200F00DF80020F3
:1004C00060622062D4E90C018842F2D0401AFFF742
:1004D00045FF10BD1C02002010B5134C1348164BED
:1004E000216B0A1A12481B780088821A114830F8CA
:1004F000130082420EDB1148007801F0EDFD216B04
:1005000008442063A06A00280CD0616A002909D140
:10051000401E06E00120E062606A002802D0A06A66
:10052000401CA06210BD00001C02002032270020E9
:10053000F68A0108F88A01085F020020F38A0108A0
:1005400010B50446400702D52046FFF7ABFF200751
:1005500004D52046BDE81040FFF73EBF10BD7047F0
:10056000002070470020704710B50C4800F042F89A
:10057000002812D00948FCF7FDF80949020A087062
:100580004A70020C8A70000EC870044802790A7121
:1005900042794A7180798871012010BD540200208F
:1005A000F025002010B510480024104944608460F4
:1005B000C4600461C0E90541C0E9071444620C4904
:1005C0008462C0E90B414163048000F138014FF4BB
:1005D0001650FCF7DAF804480821383004714471E9
:1005E000817100F019F810BD1C020020F2260020D5
:1005F0003227002070B5074D044621462868FCF7D5
:10060000C4F82879A07168796071A87920710120F7
:1006100070BD0000E002002010B506F031FC03F0D0
:1006200057FE012010BD10B506F08AFC012010BD58
:100630000120704710B50446FCF79CF80749086094
:10064000A079087160794871207988710020C8719B
:10065000BDE81040084606F085BC0000E00200201E
:1006600010B511480024114944608460C4600461DD
:10067000C0E90541C0E9071444620D498462C0E93C
:100680000B4141630480FFF7CEFF07494FF416503A
:100690003831FCF77AF80448082138300471447185
:1006A0008171FFF7C7FF10BD1C020020F226002059
:1006B0003227002010B5FFF7D3FF10BD70B51948E1
:1006C000007800282DD0184C00250126206A50B94A
:1006D000D4E90C01884206D11449884203D0216331
:1006E000E56225626163A06A70B1206A60B9E06A60
:1006F00050B92662FFF7F0FE2562D4E90C0188426A
:1007000002D0401AFFF72AFED4E90101084308D1BC
:10071000D4E90401884204D06660A660FFF76AFE4F
:10072000656070BD5D0200201C02002032270020A1
:1007300070B504460D480068C1698847A0B90C4DE2
:10074000DFF830C02CB100DF2860002006F08CF903
:100750000AE000DF2968401AB0F5967F01D3012036
:1007600000E0002003F0C0FD012070BDBC86010840
:10077000DC020020715901080020704700207047FA
:10078000024910B50880FFF753FF10BD1C0200207E
:1007900070B50A4C2046E578FBF7ECFF65F31F6067
:1007A0000749FBF7F2FF0648217901716179417130
:1007B000A1798171FFF73EFF70BD0000F025002098
:1007C0005402002000B50346FDF7BAF843F23001A9
:1007D00018465DF804EBFDF7C7B80000F0B5827865
:1007E000224D4179047902F00F0344EA01211606F3
:1007F0006F682C8802F00F0207EB021204D5491C27
:1008000021F00101146011E094603E2909D91F31E3
:1008100021F01F014FF0FF3404EB411444F4004475
:1008200003E0491C21F001014C02D4602A880A44EB
:100830002A80C07810F0030006D0012807D00228D3
:1008400008D003280AD107E04FF4007106E04FF406
:10085000806103E0002101E04FF4C061044A1943C4
:1008600002EB8300C0F8001CF0BD000084010020F2
:1008700000500040002802D10149D0200880704774
:100880008401002000F0E4BA0949CA1350B10120E4
:100890000860002008600B1D18604FF4E0500860ED
:1008A000044803E0032008600248001F026070470C
:1008B000405C0040140C014010B50B4C0B48A28862
:1008C0000078824200D902461AB90749002014393B
:1008D00008718020216801F0C7FF21680144216070
:1008E000A188081AA08010BD70020020D28A0108D9
:1008F00010B5064C0020A288216801F0EDFB2168AC
:1009000001442160A188081AA08010BD7002002057
:1009100070470021FDF728B843F22001FDF724B805
:100920002DE9F0476E4F0446A7F1080580074FF008
:100930000009A5F1140622D501F060FF3878C0093E
:10094000FFF7E6FFF888A8803878C0F3411121B19D
:1009500001295AD002296FD165E07978DFF88481C6
:100960000C2969D2DFE801F0060C681368182768C3
:100970002B31384601F0E2FC1FE0FFF79DFF67E0F6
:10098000002005E001F04AFFD8F8000039E001201E
:1009900001F014FDC0B3F5E710F01F0F4CD1B8788B
:1009A000012140F08000307000F07F0001F018FF5E
:1009B00001F034FF4CE001F0BDFB28B3DDE710F09F
:1009C0001F0F39D146481B3812E001F047FDD8B15E
:1009D00001F024FF444813E000F01F0001282BD150
:1009E000707888B13879B178884225D23F49084477
:1009F0002860C2E701F0F8FD30B101F00FFF3C487C
:100A0000006828B3804723E016E010F01F0013D0E1
:100A1000012811D100F00AF9D0B900F063F9B8B992
:100A200000F0B2F807E010F01F0F05D100F08EF9CA
:100A300070B900F0D5F958B93878000603D4F888B1
:100A400008B1002000E0802001F0D4FEA5F8049059
:100A5000600721D5387800061CD4A888E0B1FFF7DC
:100A600047FFA888C0B93878C0F3411161B10129A6
:100A70000AD110F01F0007D0012805D100F066F858
:100A800050B900F037F838B9802001F0B3FEA5F86E
:100A9000049001E001F0C8FE200712D53878000666
:100AA00006D5A888317908430BD0FFF705FF08E089
:100AB0003078010605D500F07F003070002101F08C
:100AC0008FFE600602D50020FFF77CFE200604D5CD
:100AD000BDE8F0478020FFF775BEBDE8F087000055
:100AE000780200205C8B0108548B010877010020FC
:100AF000588B010810B51249124A087912789042B1
:100B000003D0114A1278904217D1487820B10228B8
:100B100005D0202811D10DE0FFF72EFE05E0C878A2
:100B2000897841EA0020FFF729FE30B101F076FE16
:100B3000012010BDFFF72CFEF7E7002010BD0000DC
:100B400078020020F08A0108F18A010810B50B49EB
:100B50000B4A08791278904203D00A4A12789042E0
:100B600009D14878092806D100F07AFB18B101F0C4
:100B700055FE012010BD002010BD000078020020AD
:100B8000D38A0108D48A010870B52349234A087919
:100B90001278904203D0224A127890423AD11E48ED
:100BA0004978204CC27883781F4D43EA02200429FB
:100BB0001FD007DC79B101290FD002290BD00329FE
:100BC00028D111E0202906D0212919D022291AD0B4
:100BD00023291FD11AE02C6010E0FFF7C3FC05E0C9
:100BE0002C60FFF769FE09E0FFF7BAFC0028F7D197
:100BF00010E0FFF78BFB0BE001F010FE012070BD51
:100C0000FFF7B2FCF2E7FFF7BBFD01E0FFF790FD55
:100C10000028F1D1002070BD78020020F08A010880
:100C2000F18A0108F0250020700200202DE9F04132
:100C3000244E254930790978884203D02349097820
:100C400088423CD17078224C224D234F0C2836D25A
:100C5000DFE800F03506212C3535353535162431E1
:100C600000F01AFA58B3F078012802D0032803D014
:100C700003E01A48206000E02560FFF71DFE12E047
:100C8000F078022802D0032803D00CE0144820603A
:100C900009E0256007E000F0E7F909E000F0BAFAA2
:100CA0000BE001F0BBFD0120BDE8F08100F0EAF9A6
:100CB00028B12760E1E700F0C9FA0028F1D100204F
:100CC000F2E7000078020020D38A0108D48A0108E4
:100CD0007002002082010020F02500203126002033
:100CE0007226002010B51548154A017912789142F4
:100CF00022D101464278C8788B788C7943EA00206B
:100D0000CB79FE2A44EA032109D0FF2A14D198B9ED
:100D100091B901F025F978B101F080FD0AE058B9E8
:100D2000012909D100F0F0FD30B1074905480860FC
:100D3000FFF7C2FD012010BD002010BD7802002089
:100D4000E68A0108F02500207002002070B51E4DD3
:100D50001E49002668780978884232D16879297955
:100D600041EA002002282CD1194CAA782AB300208D
:100D700003E0217801B10C44401C411C8A42F8D8A0
:100D80002078C8B103F088F80146E01CFBF793FB1C
:100D9000104A01261460E979AB79207843EA0121F1
:100DA00081420BD90C4990800978491E084206D12E
:100DB0000A490120087002E0002602E09180FFF756
:100DC0007BFD304670BD000078020020FC8A0108DF
:100DD0003801002070020020D28A01086002002041
:100DE00010B5154A1549002450780978884220D159
:100DF0005079117941EA002007281AD1114B104887
:100E000001241860417A007A40EA0121D079927970
:100E100042EA0020884209D90B4899800078401E98
:100E2000014204D109490120087000E09880FFF7D1
:100E300043FD204610BD000078020020FD8A010815
:100E40009A8B010870020020D28A010860020020FB
:100E5000074800214170C16001614161418081808A
:100E60008161C161C18001810162418170470000DF
:100E7000800200202DE9F047484EB0887188494F24
:100E8000DFF81C817D1C0024884216D3B069A0B90C
:100E90007461B480012339787A1C184606F062FB2D
:100EA0007080708848B1776198F80000012801D8F7
:100EB000756102E07088401C708070884FF00109F5
:100EC000B0BBF06808B1F46032E0316981B398F8E2
:100ED000000001280DD83C70B48002237A1C002148
:100EE000012006F03FFB7080708800B175613461AD
:100EF0001EE03D78C846202D00D3002508FA05F0F5
:100F0000084218D0681CC1B23970B48002237A1C20
:100F1000012006F027FB7080708818B17761708817
:100F2000401C7080306908FA05F820EA080030613A
:100F3000708830B902E06D1CEDB2DCE7B0690028C2
:100F400028D07088B188DFF86480401A85B2164FC7
:100F500098F8000037F81000A84200D2054614485F
:100F60002A467169007840F0800001F07DFC7069CC
:100F7000104928447061B088284480B2B080098844
:100F8000884209D298F8000037F81000A84203D12F
:100F9000C6F81890BDE8F087B461FBE78002002036
:100FA000E08A010830260020DC8A01085F02002068
:100FB000D58A0108E28A0108F8B51C4C1C4D1D4F6A
:100FC0002089002618B9E5613888E0802681E0880C
:100FD0002189421A1848E169007801F07DF800047F
:100FE000E169000C0144E161218901448BB2238154
:100FF00009D039888B4206D2114A1049127831F84B
:101000001210814210D90F48017801200129009067
:1010100003D80021064A022003E029786A1C022036
:101020005B1E06F021FB2681F8BD00008002002037
:1010300071260020E48A0108D68A0108DC8A0108AA
:101040005F020020E18A010810B50446000702D5BE
:101050002046FFF70FFF600704D52046BDE810408B
:10106000FFF7AABF10BD0000034804498078085C60
:101070000349087001207047780200208001002099
:10108000F025002010B506F06BFA02490870012027
:1010900010BD0000F02500200B4910B5C8780022D3
:1010A000012804D0022804D0032806D103E0074A0F
:1010B00002E0002010BD064A521C8978002306F089
:1010C00051FA012010BD00007802002030260020D7
:1010D000810100202DE9FC5F4548007800287DD083
:1010E000444D042300262978B146481C2870424804
:1010F000007800EB400293405B1E0192994202DBB4
:1011000085F8009001263D4A00241188FF2901D26C
:10111000491C11803A4931F810003849009009887B
:10112000884200D1012439490020DFF8D8804FF0EF
:10113000010BDFF8D4A091F800E045E0002276B181
:101140001AF800105346FF2901D2491C195418F807
:10115000001021B11AF800308B4200D3012201990E
:1011600018F8007002238B4007FA03F1009B9942A4
:1011700002DA0FB1012300E000233CB133B1D5F80E
:1011800010C00BFA00F141EA0C0129612049095C09
:101190008F420ED01AF800708F4208D3D5F810C0D5
:1011A0000BFA00F747EA0C072F6185F8009008F862
:1011B00000103AB123B92A690BFA00F111432961F1
:1011C0000AF80090401CC0B27045B7D314B10B4967
:1011D000A1F800902869002808D000E006E068889F
:1011E000002803D1BDE8FC5FFFF744BEBDE8FC9FCB
:1011F0005D020020800200205F0200207C010020B0
:10120000D88A01087F0100207E010020E08A0108C1
:1012100080010020094809498078C97810B1084A3E
:10122000815409E0084A0020064B127802E0195464
:10123000401CC0B29042FAD30120704778020020CF
:101240007F01002080010020E08A0108034810B5DA
:10125000807806F007FA012010BD00007802002017
:1012600038B50D490022C878012804D0022804D0DE
:10127000032806D103E0002038BD084A00E0084AF0
:10128000521C00230093CB798C79897844EA03239C
:1012900006F0EAF9012038BD78020020712600200E
:1012A000810100202DE9F041EFF3108010F0010FD3
:1012B00072B6DFF8E8804FF00002D8F81040C8F8A6
:1012C000102000D162B6600507D501F025FA06F0BE
:1012D000A5FA3348006800B18047200505D501F024
:1012E000ADFA3048006800B18047E00405D501F050
:1012F000B1FA2D48006800B18047A00503D52B48FE
:10130000006800B180472A4D600403D5296809B1FF
:1013100002208847274FA0042BD5296849B3012014
:1013200026E0EFF3108010F0010F72B622484FF064
:101330000B0250F8210001F10101B1FBF2F602FBB2
:101340001611C8F8081000D162B686B2050C28063E
:1013500004D557F8261009B108208847280408D575
:1013600057F8261029B1280501D5022000E00420F5
:10137000884720040FD5EFF3108000F0010272B609
:10138000D8E90210814201D1012000E0002002B919
:1013900062B60028C5D0BDE8F081000084010020BD
:1013A000008B0108048B0108088B01080C8B0108D5
:1013B000108B0108148B010874270020064810B513
:1013C000C16941F40001C1611420FEF79FF803498F
:1013D0004FF40040086010BD00100240100C0140A6
:1013E00070B500F01FF900282AD016480224164EC6
:1013F0000470447003203463307014480546FBF7D2
:10140000B9F9022808D9114920461F39FBF7BDF95F
:1014100029462046FBF7B9F90D48224609490078CC
:1014200040F0800001F020FA2846FBF7A3F9316B69
:10143000401A2946FBF7A9F9044901200839087325
:1014400070BD0000B2260020A4020020CF2800209A
:10145000E78A0108114910B50878022808D0032846
:1014600010D0042812D0052801D10020087010BD2A
:101470000B48C07B282801D0A828F8D1BDE810402F
:1014800000F086BABDE8104000F0AABD054800781B
:1014900040F0800000F0BEFDF4E70000A402002050
:1014A000A8280020E78A0108204A10B5117869B3FE
:1014B00001290ED01E48052900781BD007292BD002
:1014C00000F0A8FD1B4902200873BDE8104000F0A1
:1014D00087BD18481F38C07B2A2803D02F2805D085
:1014E000AA2822D1BDE8104000F030BBBDE8104072
:1014F00000F0BCBA012181400F480068014201D0D0
:10150000012000E0002040F2414200E009E0BDE897
:1015100010400AA101F074BA00201070106B1F284F
:1015200003D1BDE8104000F0E9B810BDA4020020CE
:10153000E88A0108C7280020680200202E2E5C2EB1
:101540002E5C2E2E5C736F757263655C7573625CC6
:101550006D73635C757362645F6D73632E6300000B
:1015600010B5134C6068E06008B1012010BD11484F
:10157000FBF700F9A0B10F480838007B000604D53E
:101580000D48007840F0800008E00A481F30FBF763
:10159000F1F8216B884203D00848007800F03AFD4A
:1015A000044901201731087300F01AFD002010BD16
:1015B000A4020020B0280020E78A0108E88A010878
:1015C000134810B5007900F08F01080605D501F029
:1015D0000F004FF48032824001E001228A400D4822
:1015E000007840F080048C4210D10B480068104213
:1015F0000CD00A48FBF7BEF80949884206D12046BC
:10160000BDE810400D22054901F02EB910BD0000C3
:1016100078020020E78A010868020020C72800201D
:101620005553425370B50B48FBF7A4F8094C0225FB
:10163000173440B1A4F11F00007B000608D406480F
:10164000007800F0E7FC257300F0CAFC002070BDB4
:10165000012070BDB0280020E88A010870B511484B
:10166000FBF788F8104C216B884202D820630320D6
:1016700000E0042020700D480D49226B007840F0F6
:10168000800001F0F1F807481F300546FBF772F8BB
:10169000216B401A2946FBF778F8024900201731E0
:1016A000087370BDB0280020A4020020E78A01085A
:1016B000B2260020064810B5028807480549007880
:1016C00000F00AFD05490863BDE81040FFF7ECBED5
:1016D000EE8A0108B2260020E88A0108A402002050
:1016E00010B50446400702D50020FFF7E3FF2007AE
:1016F00003D5BDE81040FFF7ADBE10BD2DE9F05F8A
:101700007A4E326B1F2A01D2134600E01F230020BD
:10171000774D784902E00C5C2C54401C9842FAD377
:10172000DFF8D8810127DFF8D0A198F800001F2A40
:1017300040F0800B69D16E48FBF71CF87049884275
:1017400063D1281DFBF716F8694C1F34211DFBF7E8
:101750001CF8A4F11700FBF70DF804F10801FBF7E2
:1017600014F8687B18B9A87B08B1102801D9277331
:1017700089E0E87B4FF002092A283ED022DC1A28B3
:1017800050D00FDC0428F2D006DCE8B30328EED1F9
:10179000BDE8F05F00F0A2BB1228E8D1BDE8F05F21
:1017A00000F0BAB8232845D007DC1B2836D01E2805
:1017B000DDD1BDE8F05F00F0DDB825283ED0282857
:1017C000D5D147E09E2841D00FDC5528CFD004DC8E
:1017D0002F2853D03528CAD103E05A2826D0912883
:1017E000C5D1BDE8F05F00F045BCA1282AD0A328F0
:1017F0005CD0A8282ED0AA28B9D100F0ABFA0028D6
:1018000006D0287B000601E004E053E049D437709D
:10181000BDE8F09FBDE8F05F00F034BCBDE8F05FCC
:1018200000F00EBCBDE8F05F00F064BABDE8F05F08
:1018300000F02CBABDE8F05F00F012BBBDE8F05F2D
:1018400000F0E6BABDE8F05FFFF7CABDBDE8F05FA3
:1018500000F09ABB00F07EFA0028D9D0287B000661
:1018600005D586F80090BDE8F05F00F091B89AF8D1
:10187000000000F0CFFB84F80C9004E0287C800787
:1018800005D400202073BDE8F05F00F0A9BB00F094
:1018900061FA0028BCD0287B000602D4377037627A
:1018A000B6E798F8000040F08000E2E7584600F004
:1018B000B1FB5CE74446584600F0ACFB2078114C85
:1018C00000F00F014FF480308840216855460843EE
:1018D00020609AF8000000F09DFB2878874020687F
:1018E000074306202760307092E70000A402002022
:1018F000A8280020B2260020E88A0108E78A01080B
:10190000555342436C020020024900200870012018
:1019100070470000F025002010B5FFF783FE002877
:1019200020D0114B0020802118705970022199702D
:10193000D97020241C7158719871D8710B480168B6
:1019400008200A7812B11A54491C00E01C54401CAB
:10195000C0B22428F5D3064924200863BDE810400E
:10196000FFF77CBE10BD0000B2260020340100202D
:10197000A40200200548C07CC107044800F11F00F4
:1019800000D00121017300F02BBB0000A82800202B
:101990002DE9F041304D314FDFF8C480A969686A04
:1019A000002688420AD33878002440F0800000F0F6
:1019B00031FB88F80C6000F013FB08E02A49294845
:1019C000097830F81140E86A844200D30446FFF7F2
:1019D000C7FD00B90024A86A68B374B1A96AE869B0
:1019E00022460144387840F0800000F03DFFA86AAC
:1019F0002044A862E86A001BE862D5E90410AA6ADC
:101A00004143914203D1AE62696A08446862144856
:101A100008300746FAF7AEFE001B3946FAF7B5FE66
:101A2000002C06D0E86A002803D10320287088F82B
:101A30000C60BDE8F081002CDFD0E96A2869014420
:101A4000491EB1FBF0F26869824200D90246E96999
:101A5000686A05F09BFEC1E7A4020020E78A01083E
:101A6000C7280020EA8A01085F0200202DE9F04122
:101A7000324EDFF8CC800025B169706A884208D305
:101A800030483563007800F0C5FA88F80C5000F053
:101A9000A7FAFFF765FD20B1306B10B3B06A10B143
:101AA0000FE035631DE0F16A30690144491EB1FB66
:101AB000F0F27069824200D90246F169706A05F05D
:101AC00065FE0020204A336BB16A08E0F7690C1804
:101AD0003C5D175CBC4201D0356202E0401C98427C
:101AE000F4D3346BB06A0119B162F06A071BF76274
:101AF000D6E9042042438A4203D1B562716A0844A0
:101B000070620F4808300546FAF734FE001B29467C
:101B1000FAF73BFE002C0ED017B1307805280AD119
:101B2000306A30B1002088F80C00BDE8F04100F0C8
:101B300057BA0120F7E7BDE8F0810000A4020020B9
:101B4000C7280020E88A0108B22600202DE9F041CC
:101B5000DFF80481414F0026D8F81810D8F8240087
:101B6000884208D33E48C8F83060007800F052FA46
:101B70003E7300F035FAFFF7F3FC08B9C8F830609F
:101B8000D8F83010D8F828000844D8F81010884247
:101B900007D9BDE8F0414FF4807232A1002000F077
:101BA0002FBF0020384907E0D8F82830D8F81C406B
:101BB0000A5C0344401CE254D8F830209042F3D32E
:101BC000D8F8280011000844C8F82800D8F82C20BC
:101BD000A2EB0102C8F82C2022D0454692B988B168
:101BE00029690844401EB0FBF1F46869844200D9B9
:101BF00004462246E969686A05F0E2FDAE62686A59
:101C000020440CE0D5E904125143814208D1E9692E
:101C1000686A05F0D5FDAE626969686A0844686261
:101C20000E4808300546FAF7A5FDD8F83040294699
:101C3000001BFAF7AAFD002C0BD0D8F82C0018B125
:101C400098F80000052804D13E73BDE8F04100F08B
:101C5000C7B9BDE8F0810000A4020020C728002019
:101C6000E88A01082E2E5C2E2E5C2E2E5C736F757A
:101C70007263655C7573625C6D73635C75736264DB
:101C80005F6D73632E630000B226002070B5FFF70E
:101C9000C9FC002826D0FFF763FC002822D0124898
:101CA000002106220170114B427081701A7A0824BB
:101CB000D201C270017141718171C1710C481C6304
:101CC0000546FAF757FD082808D9094920461F3963
:101CD000FAF75BFD29462046FAF757FDBDE870404C
:101CE000FFF7BCBC70BD0000B2260020A40200209B
:101CF000CF28002070B5FFF795FC002822D0FFF711
:101D00002FFC00281ED010480321002201700F492B
:101D1000427004240B7ADB018370C2700C480C63A0
:101D20000546FAF727FD042808D9094920461F3936
:101D3000FAF72BFD29462046FAF727FDBDE870404B
:101D4000FFF78CBC70BD0000B2260020A40200206A
:101D5000CF2800202DE9F0412948FAF70BFD284D46
:101D600000BA113D20F0FF04287D264E04430020D8
:101D7000C6E90940E87B2F280AD004DC28280BD0CC
:101D80002A281CD104E0A82810D0AA2817D109E0DD
:101D9000FFF7E6FB00282FD0E87DA97D41EA00206F
:101DA00044BA0CE0FFF7DCFB002825D01448001DE6
:101DB000FAF7E0FC00BA20F0FF04287E0443306903
:101DC00044430F48F4620938FAF7D4FC0C4F01265B
:101DD0000E3768B1A04211D0287B000604D50A480E
:101DE000007840F0800001E00848007800F012F927
:101DF0003E7300F0F5F80020BDE8F0810120FBE71C
:101E0000B9280020A4020020E78A0108E88A010816
:101E100010B5FFF707FC00281CD0FFF7A1FB002836
:101E200018D00D4A0D489169491E0B0E03700B0C1A
:101E300043700B0A8370C17011690B0E03710B0C98
:101E400043710B0A8371C17108201063BDE8104013
:101E5000FFF704BC10BD0000A4020020B226002041
:101E600070B5FFF7DFFB002830D0FFF779FB0028C3
:101E70002CD017480021174A017041708170082149
:101E8000C17091690C240B0E03710B0C43710B0A8A
:101E90008371C1710221017211690B0C43720B0A2B
:101EA0008372C1720C4814630546FAF763FC0C2870
:101EB00008D9094920461F39FAF767FC2946204608
:101EC000FAF763FCBDE87040FFF7C8BB70BD0000C7
:101ED000B2260020A4020020CF28002010B5FFF772
:101EE000A1FB002835D01B4870211B4B017000213D
:101EF0004170DC685A6832EA040406D00624847013
:101F0000282404734173DA6008E0DAB1134A127BC3
:101F1000E2B105228270202202734173C170017107
:101F2000417181710A22C271017241728172C17262
:101F30008173C1730174417412201863BDE81040AD
:101F4000FFF78CBB022282703A22E5E781700173B1
:101F5000E3E710BDB2260020A4020020C72800201D
:101F6000054910B5002008600449FAF70EFC044941
:101F700007200870012010BD6C020020C728002037
:101F8000A4020020FFF7ECBF70B5FFF74BFB002861
:101F90001DD00F4820220021027041700D4CC177E6
:101FA0000320226320700C480949007840F080002B
:101FB00000F05AFC09480546FAF7DCFB216B401A91
:101FC0002946FAF7E2FB054901200839087370BD7C
:101FD000B2260020A4020020E78A0108CF280020B2
:101FE00010B508490848FAF7D0FB08480D22054902
:101FF000007840F0800000F037FC054905200870AB
:1020000010BD0000C728002055534253E78A01083D
:10201000A402002010B5044600F0ECFB200605D514
:1020200004F00F014FF48030884001E00120A0400F
:1020300002490A681043086010BD000068020020D1
:102040000A4810B5817C00F11F0429B101202073DA
:10205000BDE81040FFF7C4BFC07C054900F0010097
:10206000486005F0ABFB0020F1E70000A828002045
:10207000A4020020024900200873FFF7B1BF00004E
:10208000C728002010B51048FAF774FB0E4C17341F
:1020900078B1A4F11F00007B000604D50B4800783E
:1020A00040F0800001E00A480078FFF7B3FF01200C
:1020B00004E0FFF755FA002805D000202073BDE8A2
:1020C0001040FFF78DBF10BDB0280020E78A01083F
:1020D000E88A01087047000070B5134B064600F00F
:1020E0000F005B68114C03EB00108368808904EBE0
:1020F0004304C0F30905954200D9154600236A1C24
:1021000007E034F8040B01F8010B000A01F8010B99
:102110005B1CB3EB520FF4D34FF440513046FBF746
:1021200023FC284670BD00008401002000600040B0
:10213000FFF746BA7CB54F4EA6F11C05307805F185
:10214000140410F01F0002D001286CD17BE04A4932
:10215000F0780B7847491C39CA781C3106288978F1
:1021600010D006DC012809D0022814D003287FD122
:1021700041E007282AD00F287AD155E03F48206057
:1021800012205EE0002B73D01AB13D4820600A2077
:1021900057E03C48FAE70BB9012A69D01AB13A482E
:1021A000009000200BE03948FAE7009A13782BB131
:1021B000D378967846EA03231A440092401C814261
:1021C000F3D10098017871B3206036E05BB31AB1A7
:1021D0002F48009000200BE02E48FAE7009A137871
:1021E0002BB1D378967846EA03231A440092401C18
:1021F0008142F3D1E5E728480090032901D000206F
:1022000008E001F0A7FE0BE000990A780AB111443A
:102210000091401CB1788142F6D10098017811B14B
:10222000206000780DE023E01C48007800281ED0D4
:102230001B48009020600178D1B1C178827842EAD1
:102240000120019005E001A9684600F02DF8002862
:102250000DD0A1880198814208D9124980B2A0808E
:102260000978491E084201D10120287101207CBD56
:1022700000207CBD78020020CD8A0108868B0108F1
:10228000998B0108988B0108098D01087D8C010844
:102290000B8D01080A8D01080C8D0108CE8A0108FA
:1022A000448C0108D28A010870B5194A194C1B4E9A
:1022B000D378194A2578212B1478154A127902D03F
:1022C000222B22D116E0AA4201D0A2421DD1144AEB
:1022D0001378144A12780BB9012A16D042B1124A67
:1022E00002601046114A128810443060092009E04B
:1022F0000F4AF5E7AA4201D0A24206D10D4830604C
:102300000D4800880860012070BD002070BD0000ED
:1023100078020020D38A0108D48A010870020020C4
:10232000CD8A01085F020020098D0108848B010815
:102330007D8C0108608B0108828B010870B51D48F7
:102340001C4C0078A4F1080410F01F000AD0194AB0
:10235000A4F11405184B69781279012806D00228D7
:1023600026D109E01348163820601FE001B3A87891
:1023700082421DD2002015E002F08F00020605D532
:1023800000F00F064FF48032B24001E0012282409B
:1023900009B900070CD1A868104209D0E8681040BC
:1023A00000D001201870000A58702360012070BD11
:1023B000002070BD78020020F025002070B5264B6B
:1023C000024619461878498810F01F00A3F11C0630
:1023D00004D0012829D0022827D111E0012924D1D5
:1023E00032B1012000F03EFAF08840F0020005E032
:1023F000002000F037FAF08820F00200F08029E099
:10240000187900F08F04200605D504F00F004FF472
:102410008035854001E00125A540707828B120076E
:1024200003D0B068284200D009B1002070BD2AB1A5
:10243000204600F0DFF9F06828430AE030692842BE
:1024400008D12046FEF7BEF92046FFF771FEF0687E
:10245000A843F060012070BD780200202DE9F05FF4
:102460005B480026017811F01F0F6FD1584F80781C
:102470001C3FB1464FF0010A4FF4803B00287BD04F
:10248000544801783846C07809B901285ED008B1AF
:10249000514C6CE0514C6AE06078022804D004286A
:1024A00047D0052861D146E049486179807881426A
:1024B0003AD1787020794B49B8700020484A098891
:1024C00002E002F80090401C8842FAD30125B84689
:1024D0000AFA05F0D8F80810084202D02846FEF79C
:1024E00018FAD8F808100BFA05F0084203D045F0A6
:1024F0008000FEF70EFA6D1C102DE9D34FF001108D
:10250000C8E902090120C8F81090FEF7B3F9E07994
:102510004006B8F8060002D540F0010001E020F0C6
:102520000100A8F8060020E0E078A17841EA002048
:102530001CE0E67819E0C6B9A07800F08F052806FF
:1025400005D505F00F010BFA01F002E03AE00AFAB6
:1025500005F0B96801432046B960FEF73FF9284607
:10256000FEF7DAF9284600F02BF9207804442078A9
:10257000002891D121E0FFE74D4687F80190012422
:102580005E46B9680AFA04F0084202D02046FEF717
:10259000C0F9B96806FA04F0084203D044F080009C
:1025A000FEF7B7F9641C102CEBD34FF00110C7E90C
:1025B000020500203D61FEF75DF9054879788078D5
:1025C000884202D00020BDE8F09F0120FBE7000018
:1025D00078020020CD8A0108098D01087D8C010850
:1025E00077010020D08A01082DE9F84F45480027DF
:1025F0003E460078BA4600F01F00B94601287ED159
:1026000040491C394878002876D0002000903E4888
:1026100002780846C0780AB9012870D08B4608B104
:102620003A4C65E03A4C63E06078022804D0042814
:102630000CD005285AD11BE061799BF8010081423A
:1026400054D0E078A17841EA002050E02D48A778E6
:10265000E67801794FF00009B94247D18078B0425D
:1026600044D1012000902B4810F807A0C6553DE04A
:1026700024490879B84239D1A07800F08F085FEA80
:10268000086005D508F00F004FF48035854002E062
:10269000012505FA08F58878B04215D1DBF8081055
:1026A00020462943CBF80810DBF80C10A943CBF8DF
:1026B0000C10FEF793F84046FEF72EF9404600F066
:1026C0007FF849EA050911E056450FD119EA050FCF
:1026D0000CD1DBF808104046A943CBF80810DBF812
:1026E0000C10A943CBF80C10FEF713F92078044422
:1026F0002078002898D10098BDE8F88FFFE70020E7
:10270000FAE7000078020020CD8A0108098D01084F
:102710007D8C0108770100204FF0E0214FF48010FC
:102720000022C1F880011E4802601E48006818B1EE
:102730004FF40050410001E00020014608431A49CF
:102740000968002901D04FF4007140EA010002D06D
:102750004FF4807101E04FF0000140EA010013499D
:1027600040F41C400860134811494FF050030260C8
:1027700048684FF09002036082604FF0D0020A80F8
:1027800048F2FF71C1600C494FF4485008600B4992
:102790004FF0800008604FF01400FCF7B7BE000057
:1027A000445C0040108B01080C8B0108405C004029
:1027B00084010020505C0040005C00404C5C004004
:1027C000FBF7BEB810B5FDF775FFBDE81040FFF789
:1027D000D9BB10B5FEF77EFCBDE81040FDF76EBF1B
:1027E000002903D1024940F08000086070470000D2
:1027F0004C5C004041F21001FBF7B6B808220249D8
:102800000020FFF769BC00007802002002488168C0
:102810004FF4007001F014BD60000020002211464A
:10282000802000F021B8000002480349027800200F
:10283000FFF752BCD28A0108F02500200448016845
:1028400041F008010160016841F004010160704736
:10285000405C00400248016821F0080101607047B7
:10286000405C004070470000F0B5174F1546064623
:102870007A6800F00F0002EB0012144B126803EBB1
:10288000420400236A1C08E091F801C011F802EB31
:102890005B1C4EEA0C2C44F804CBB3EB520FF3D381
:1028A000796801EB00114D60094901EB8000D0F817
:1028B000000CC0F30110012803D030213046FBF793
:1028C00053F82846F0BD000084010020006000405D
:1028D000005000402DE9F047244A1068244F20F0B2
:1028E0001F013B691943396100F4FE41C94311607E
:1028F000DFF88090000448F2800632D59046D8F880
:10290000000001042DD510F00F0009EB8005D5F86B
:10291000004C07D1210405D5210503D479688989A4
:10292000890515D064F31F4003F0FEF9200406D595
:1029300044EA060040F68F710840C5F8000C2006F6
:10294000DDD5344348F60F700440C5F8004CD6E797
:102950002106EDD5C4F30E0161F31F4003F0E4F945
:10296000E6E7BDE8F047FFF751BF0000445C0040D8
:1029700084010020005000400020704710B5002A5C
:1029800006DA22F00042D21D22F00703102203E0F3
:10299000D21C22F003030C2213B19C188C4201D9E3
:1029A000012010BD024401448360C0E90021C91A1E
:1029B000D018884202D810600246F9E70020106063
:1029C00010BD000010B5044603F036F8002805D00D
:1029D0004FF6FF71DFF808C0206800DF10BD00006F
:1029E0001D55010810B5044603F026F8002803D051
:1029F000DFF808C0206800DF10BD00006D5401083A
:102A00002DE9F04116460F4600281CD1EFF3108047
:102A100000F0010572B600231A461946184600F068
:102A200003FA040003D13146384600F04DFA05B9E7
:102A300062B6002C07D1EFF30380C00603D1BDE8D6
:102A4000F04105F0D9B9BDE8F081704710B52822F2
:102A50000D490E48F9F70BFE05F0A2FA0C4805F0F7
:102A600099FA05F0A9F80B490B4A0C4B08604FF492
:102A70000071B0FBF1F01160094901221A60086091
:102A800009490848086010BDF8860108FC150020B7
:102A90000D340108D8020020B4020020B802002042
:102AA000BC020020FC130020C002002000B591B041
:102AB000FDF72EFC402801D9402000E060B181B232
:102AC000684604F035FA010006D06846FDF748FC78
:102AD00010B1012001F0E4FB04F0D4FA01464028D3
:102AE00001D9402100E059B16846FDF71DFC38B11D
:102AF00081B2684604F0B4FA10B1012001F0D0FBB5
:102B000001F0E6FB11B000BD0448417880788142B5
:102B100001D001207047002070470000F80000201D
:102B200030B50546EFF3108000F0010472B6284678
:102B300000F007F8A968081A401E002C00D162B600
:102B400030BDEFF3108101F0010372B6D0E900123D
:102B50008A4201D3501A02E080681044401A002BC8
:102B600000D162B67047EFF3108313F0010F72B615
:102B7000C0E902214FF000010160416000D162B65E
:102B80007047000070B50446EFF3108000F00105B7
:102B900072B6D4E90001884201D0012000E0002093
:102BA00043220EA1FFF72CFFE16820680E5C401C59
:102BB0002060A16888420CD302D14FF0010001E0EF
:102BC0004FF000004FF0480204A1FFF719FF00206A
:102BD000206005B962B6304670BD00002E2E5C2E16
:102BE0002E5C2E2E5C736F757263655C6461706C15
:102BF000696E6B5C636972635F6275662E63000069
:102C000070B50446EFF3108000F0010572B66268FB
:102C1000E06881546068401C6060A16888420CD301
:102C200002D14FF0010001E04FF000004FF03102FF
:102C300009A1FFF7E5FE00206060D4E900018842A9
:102C400001D0012000E00020362203A1FFF7D8FECA
:102C5000002D00D162B670BD2E2E5C2E2E5C2E2E65
:102C60005C736F757263655C6461706C696E6B5CDC
:102C7000636972635F6275662E6300002DE9F0413F
:102C800014460E460746FFF75CFF844200D22046FA
:102C90000546002404E03846FFF774FF3055641CF5
:102CA000AC42F8D32846BDE8F0812DE9F041144646
:102CB0000E460746FFF734FF844200D22046054601
:102CC000002404E0315D3846FFF79AFF641CAC42F3
:102CD000F8D32846BDE8F08110B508494FF40074D8
:102CE0002246A1F11000FFF73EFF22460449BDE84D
:102CF0001040A1F11000FFF736BF0000E0210020D6
:102D0000F023002000F04ABC00F048BC0248807963
:102D1000002800D0012070478C2800200248C0798C
:102D2000002800D0012070478C2800200248007A3B
:102D3000002800D0012070478C2800202DE9F041A8
:102D40008C212448F9F7CDFC8C252348F9F712FD96
:102D5000224F214C1F4EB84213D16079217941EAAC
:102D600000258C2D01D22A4601E04FF08C0201D8BB
:102D70004FF08C0518491748F9F7A9FB002086F891
:102D800047008C211448F9F7ACFC13493846F9F791
:102D9000FCFC2571280A60714122F11DE01DF9F744
:102DA00096FB96F8490016F8481F41EA002004F8FF
:102DB000480F000A6070B078A070F078E070820070
:102DC000044905484C314C30F9F781FBBDE8F0412E
:102DD00000F0AEB800280020004F0020646C766B35
:102DE00010B5094C94F84B10102901D3002010BDE8
:102DF00004EB81014C31F9F7C8FC14F84B0F401C6F
:102E0000C0B2207010BD0000004F002010B5054C6E
:102E10004121E01DF9F765FC002104F8481F6170AD
:102E2000E17010BD004F00202DE9F0471A4F814698
:102E30001D4616468846F81DF9F7D3FA441CB9F129
:102E4000000002D04146F9F74CFC002006B130806A
:102E500005B12870F87900281CD0444502D8F91D26
:102E6000224604E0A4EB0800C1194246C91DB9F18D
:102E7000000F06D097F8490097F8483043EA002041
:102E8000308016B14846F9F722FB15B197F84A0091
:102E900028700120BDE8F087004F0020054991F817
:102EA0004B202AB101F14C02026091F84B007047AF
:102EB00000207047004F002002488079002800D091
:102EC00001207047004F00202DE9F0418846074659
:102ED000F9F787FA124D441C41263146E81DF9F7EF
:102EE00000FC412C02D83946224602E0413CE1195F
:102EF00032462C46E81DF9F7EAFA84F848804FEA92
:102F0000182084F8490000F011F908B1012003E00D
:102F100000F00EF900B1022084F84A00BDE8F0810B
:102F2000004F00200149887170470000004F0020C9
:102F300070B5002211461046FBF7CEFD092221494B
:102F40002148F9F7C4FA214C22781046627840EA09
:102F50000220A278E17840EA02401D4D40EA01607B
:102F6000A8420FD16079217941EA0020092804D2D2
:102F70006079217941EA002200E0092213491248D0
:102F8000F9F7A5FA10492846F9F7FFFB0E49092081
:102F9000888020780146607841EA0021A07841EAE3
:102FA0000041E07841EA0061A94205D160792179C8
:102FB00041EA0020092804D2BDE87040024801F02F
:102FC00051BD70BDF28D01088C28002000FC010865
:102FD000646C766B02498871084601F043BD0000BD
:102FE0008C2800200249C871084601F03BBD000052
:102FF0008C28002002490872084601F033BD000009
:103000008C2800202DE9F0410F4606464FF0FF3492
:103010000025DFF83C8012E0705D082102F002F824
:1030200084EA006408204146002C02DA81EA440464
:1030300000E06400401E10F0FF00F5D16D1CBD42A1
:10304000EADB2021204601F0EDFFC043BDE8F0811E
:10305000B71DC1042DE9F0410E4617462021C0439B
:1030600001F0E0FF04460025DFF83C8012E0705DCF
:10307000082101F0D7FF84EA006408204146002CB3
:1030800002DA81EA440400E06400401E10F0FF0010
:10309000F5D16D1CBD42EADB2021204601F0C2FFC4
:1030A000C043BDE8F0810000B71DC10470B51446EF
:1030B0000D460646B2F5806F07D24FF4EF720AA1B3
:1030C0000020FFF79DFC022070BD00F05BFC08B102
:1030D0000E2070BD2A462146304600F09FFD002894
:1030E000F7D01C2070BD00002E2E5C2E2E5C2E2EE4
:1030F0005C736F757263655C6461706C696E6B5C48
:10310000647261672D6E2D64726F705C6961705FAF
:10311000666C6173685F696E74662E630000000000
:10312000C10600F00F0000D409307047002070473E
:103130000120704710B500231A4600F067FA0028F6
:1031400000D0012010BD10B504F04AFC012800D0C9
:10315000002010BD2DE9F041154E144D4FF00064D4
:103160003078012806D04FF49C7212A10020FFF79E
:1031700047FC09E0B078022748B14FF49F720DA1D7
:103180000020FFF73DFC37700220BDE8F0812046AB
:1031900000F02CF810B137701E20F6E704F58064BB
:1031A000AC42F4D30120B0700020EEE700BC000870
:1031B000D40000202E2E5C2E2E5C2E2E5C736F759C
:1031C0007263655C6461706C696E6B5C647261678C
:1031D0002D6E2D64726F705C6961705F666C6173D7
:1031E000685F696E74662E630000000070B5214E42
:1031F00004463078012806D04FF480721EA10020CA
:10320000FFF7FEFB18E04FF48060B4FBF0F100FB29
:103210001141022511B14FF4847208E0F17869B1CF
:10322000D6E902121144A14208D040F20F1212A1B5
:103230000020FFF7E5FB3570022070BD1C4A1D49D8
:10324000944201D38C4211D30121F170C6E90240AE
:10325000204600F0ADFF222803D00028EDD03570C5
:1032600070BD204600F08EFB0028F9D035701D207F
:1032700070BD0000D40000202E2E5C2E2E5C2E2E61
:103280005C736F757263655C6461706C696E6B5CB6
:10329000647261672D6E2D64726F705C6961705F1E
:1032A000666C6173685F696E74662E63000000006F
:1032B00000C0000800FC01084FF480607047000067
:1032C00010B5242804D2064951F82000002805D161
:1032D000E12204A10020FFF793FB0AA010BD00002B
:1032E000E88501082E2E5C2E2E5C2E2E5C736F75E9
:1032F0007263655C6461706C696E6B5C6572726F41
:10330000722E63000000000001460120242901D232
:103310000148405C704700001C0000202DE9F04788
:1033200089460446804600E0641C2078402802D08C
:103330000028F9D15DE06078622847D012DC52287D
:1033400053D008DC422841D0442848D0482840D0F7
:103350004D2817D133E054283ED0552832D0562876
:1033600010D13FE0722840D006DC642837D06828AE
:103370002FD06D2806D122E074282DD0752821D0B9
:1033800076282FD01DA52046F9F72BF807462846AA
:10339000F9F727F80646A019C11908EB0902891E9A
:1033A000914225D2BA1EA11CF9F7FCF832462946F3
:1033B0002046F9F78CF820780028B6D119E000F003
:1033C000BDFD01E000F0C2FD0546DCE700F064FD54
:1033D000FAE700F091FDF7E700F0B4FDF4E700F044
:1033E00087FDF1E700F0BAFDEEE706480568CAE799
:1033F0003C44A4EB0800BDE8F08700004552524F62
:1034000052000000E4850108704700002DE9F041FA
:103410001E4615460C46074604F058FE204890F814
:10342000201003293AD0022C09D0D4B1012C35D177
:103430000068A84232D1BDE8F04103F047BB006804
:10344000A8422BD1304604F093FB0446304604F0EA
:1034500093FB0646384602F041FD034622463146BC
:1034600017E0384602F03AFD032817D0304604F042
:103470007DFB800712D4384602F030FD0746304607
:1034800004F076FB0446304604F076FB01463B46EA
:1034900022462846BDE8F04103F0F2BBBDE8F081CA
:1034A000FC1500202DE9F0411D4E0446174696F804
:1034B00022008846550260B92946404602F0CAFCFF
:1034C000032802D0214603F085FB96F8220000284D
:1034D0000FD07068A0420CD8F068A0420BD008D979
:1034E0003069401C00D134613069A04200D20446EA
:1034F0003461BDE8F081F0692A461044F061E019BA
:10350000F06096F8230020B1BDE8F041002003F000
:1035100005BC41462046BDE8F04103F0FFBA00007B
:10352000FC150020F0B518A185B009680491027857
:10353000002104AB5C5C944224D0491C0329F9D3DC
:1035400012A1002291E878006F46815C8DE8780036
:10355000A1F1610CBCF1190F14D9202901D2052960
:1035600010D14FF0000C17F80CE08E450AD00CF18A
:10357000010CBCF1100FF6D3521C0B2AE5D301202D
:1035800005B0F0BD0020FBE7E5002000222A2B2C2F
:103590002E2F3A3B3C3D3E3F5B5C5D7C70B50D4D54
:1035A00000202C7874B100212970A97809B100F0AD
:1035B000E5FA022C05D06978032902D0002800D151
:1035C000212070BD40F2331203A10020FFF718FA4A
:1035D000022070BDA80000202E2E5C2E2E5C2E2E08
:1035E0005C736F757263655C6461706C696E6B5C53
:1035F000647261672D6E2D64726F705C666C6173AE
:10360000685F6465636F6465722E63003EB51D4636
:103610000446302901D3012000E00020402211A1FE
:10362000FFF7EEF90C2204F120016846F8F74FFF8E
:103630001949019888420BD118490098884201D154
:1036400002203EBD1549FC39884208D101203EBD0B
:10365000204604F073F900B90DB103203EBD0020EF
:103660003EBD00002E2E5C2E2E5C2E2E5C736F75E0
:103670007263655C6461706C696E6B5C64726167D7
:103680002D6E2D64726F705C666C6173685F64652B
:10369000636F6465722E6300089996978F9E939B63
:1036A0002DE9FF5F4FF00004DDF838905FEA030872
:1036B00093460746254613D05FEA090010D0002044
:1036C000C8F800000646C9F80000FFF72FFDDFF834
:1036D00094A088B12448022F04D0032F0AD012E00E
:1036E000652238E0BBF1000F04D00199814201D07E
:1036F000182409E0064616E0FFF71AFD18B1012F5D
:1037000006D0032F12D01924FFF708FB98B114E05C
:103710004FF00061BBF1000F04D00198884201D046
:103720001724F1E70E46DAF80050EDE70F488668F7
:103730000F480568E8E7012F04D02CB1204604B0FB
:10374000BDE8F09F1924F9E725B1C8F80060C9F871
:103750000050F3E79D2207A10020FFF751F9022056
:10376000EDE70000F486010800C00008B401002065
:10377000BC8601082E2E5C2E2E5C2E2E5C736F757F
:103780007263655C6461706C696E6B5C64726167C6
:103790002D6E2D64726F705C666C6173685F64651A
:1037A000636F6465722E630010B50C4C207830B1E5
:1037B000AC220BA10020FFF723F9022010BDFF224D
:1037C00030211448F8F785FF012020700020607038
:1037D0006060A060E060A070E07010BDA8000020F4
:1037E0002E2E5C2E2E5C2E2E5C736F757263655CC4
:1037F0006461706C696E6B5C647261672D6E2D64C0
:10380000726F705C666C6173685F6465636F64653A
:10381000722E6300800B00202DE9FE4F474F0546B6
:10382000894638781446012807D0C12244A10020D7
:10383000FFF7E6F80220BDE8FE8FF8784FF0010AA6
:1038400018B9BD60FD6087F803A0B8784FF0030891
:10385000002852D1F868854201D1012100E0002101
:103860002044F86031B37868C0F13006A64200D930
:1038700016464049324608444946F8F728FE78681B
:10388000A41B3044B1443544786030282BD302D196
:103890004FF0010001E04FF000004FF0E30228A1DB
:1038A000FFF7AEF8D7E9011201233248FFF7AEFE69
:1038B000787001E087F8018001A8009002AB012236
:1038C0007878B968FFF7ECFEE8B9B878FC2280F0A8
:1038D00001001BA1FFF794F8019800F0F1F890B9EE
:1038E00087F802A001E0B87880B1D7E9012021492A
:1038F00000F054F838B9B87840B122464946284615
:1039000000F04CF810B187F8008094E7787801282F
:1039100004D0022804D003280DD103E0164803E0A8
:10392000164801E01648C0682919814203D30220D5
:10393000387010207FE700207DE70000A8000020FD
:103940002E2E5C2E2E5C2E2E5C736F757263655C62
:103950006461706C696E6B5C647261672D6E2D645E
:10396000726F705C666C6173685F6465636F6465D9
:10397000722E6300800B002000BC000800FC0108D0
:10398000B401002010B5EFF3108101F0010472B60C
:10399000FAF708F8002C00D162B610BD2DE9F05FEF
:1039A000384E04460025707817468846012805D011
:1039B0007B2235A10020FFF723F80BE070694FF060
:1039C000020A844209D283222FA10020FFF718F8AF
:1039D00086F801A00220BDE8F09FF0784FF0010BBF
:1039E00048B9204602F01AF9050002D086F801A075
:1039F00046E086F803B0B1464E46D6E9010281188A
:103A0000A14218D8B17851B9B1698B682B49984750
:103A1000050002D089F801A032E086F802B0FF224A
:103A20002648B168F8F755FEB068B4FBF0F100FB2A
:103A30001140201A70600FB3D6E903010844A04278
:103A400004D8204602F0EAF80500E3D17068B168B6
:103A5000B146201A0E1AB74200D23E4617493246E6
:103A600008444146F8F733FD36B1002089F80200DA
:103A70003444B044BF1BBFE70120F7E7C9F8144046
:103A80002846A8E7B80000202E2E5C2E2E5C2E2E95
:103A90005C736F757263655C6461706C696E6B5C9E
:103AA000647261672D6E2D64726F705C666C6173F9
:103AB000685F6D616E616765722E6300B00B0020F8
:103AC00070B51F4D0446687808B1472226E024B33C
:103AD000606810B3A06800B3E068F0B12069E0B19D
:103AE0006069D0B1A069C0B1E069B0B1FF224FF404
:103AF00080611448F8F7EDFD0126AE700020E870F3
:103B00006860A860E8602861C5E90504206880470E
:103B1000040008D1287838B110E04D220AA1002015
:103B2000FEF76EFF022070BDA8690069804704009F
:103B300004D0A86940688047204670BD6E70FBE7DE
:103B4000B8000020B00B00202E2E5C2E2E5C2E2EF6
:103B50005C736F757263655C6461706C696E6B5CDD
:103B6000647261672D6E2D64726F705C666C617338
:103B7000685F6D616E616765722E630070B5184C89
:103B80000025607810B1012807D00FE0CE2215A1E2
:103B90000020FEF735FF022070BDA07830B9A06983
:103BA0001D498368D4E9010298470546A069406829
:103BB00080470646FF224FF480611748F8F789FDD9
:103BC0000120A0700021E1706160A160E1602161CD
:103BD000616161700EB1304670BD284670BD000055
:103BE000B80000202E2E5C2E2E5C2E2E5C736F757E
:103BF0007263655C6461706C696E6B5C6472616752
:103C00002D6E2D64726F705C666C6173685F6D61A0
:103C10006E616765722E6300B00B002010B5EFF384
:103C2000108303F0010472B6FBF7A0FC002C00D156
:103C300062B610BD0346012201490020184700006A
:103C400030160020002070470248006840F3000052
:103C5000401C7047080C01402DE9F041534886B0E4
:103C6000816941F004018161816901F004010491DD
:103C7000816941F008018161816901F008010491C5
:103C8000816941F010018161816901F010010491A5
:103C9000816941F020018161816901F02001049175
:103CA000816941F001018161816901F001010491A3
:103CB0003F494A6822F0E06242F000724A6081693E
:103CC00041F00801816180693A4900F008000490E0
:103CD0004FF4004008600124364FCDE9000403256D
:103CE000103F694603953846F9F7B0FFDFF8C88002
:103CF0006602002231464046FAF78CF8CDE90064AE
:103D0000694640460395F9F7A1FF00224021384655
:103D1000FAF780F84020CDE900046946039538465B
:103D2000F9F794FF012231464046FAF773F8CDE9DE
:103D30000064694640460395F9F788FF0122314641
:103D40004046FAF767F8CDE90064694640460395B6
:103D5000F9F77CFF012211463846FAF75BF811208B
:103D6000CDE90040694638460294F9F76FFF260214
:103D7000002231463846FAF74DF8CDE9006469462D
:103D800038460395F9F762FF0220CDE900606946E5
:103D900003954046F9F75AFF00F03AFC07480490B3
:103DA000401E0490FCD106B0BDE8F0810010024036
:103DB00000000140100C01400008014040420F008B
:103DC0007047000008B1012200E000224FF40071AA
:103DD0000148FAF71FB800000008014008B10122AD
:103DE00000E000224FF400710148FAF713B8000018
:103DF0000008014008B1012200E000224FF40071E8
:103E00000148FAF707B800000008014010B50B4C54
:103E1000A068002811D0401EA060094821694022F6
:103E200000EB8111002003F0C5FB207C401C00F05A
:103E3000030020616068401C606010BD0800002025
:103E40002803002070B50F4C00204BF6FC31606059
:103E5000A060E06020614FF00060FFF7D3F8606081
:103E600009490A48FFF7CEF84FF48065A06029465B
:103E70000748FFF7C7F8E06029460648FFF7C2F891
:103E8000206170BD40000020FC3B010000C0000824
:103E900000BC000800FC01080048704754000020E6
:103EA0000120C106054B0A6A9A4200D00020496AE7
:103EB000034A914200D0002070470000939D939BDD
:103EC0000899969700B5FFF7EBFF002802D04FF056
:103ED0000060806A00BD0000014840687047000033
:103EE000400000200148806870470000400000202A
:103EF00000487047C804002000487047860400202E
:103F00000649074B01200A6A9A4200D00020496AFC
:103F1000044A914200D000207047000000C0000811
:103F20008F9E939B0899969700B5FFF7E9FF0028AD
:103F300001D00148806A00BD00C0000800487047F9
:103F40007904002000487047A7040020004870470B
:103F50004804002000487047D10400200048704702
:103F60005900002070B5FFF76DFF1F4800F0DAFF21
:103F700001F0F4FD1C4831212030F8F7D4FB1A4839
:103F80001A492030F8F797FA174819A12030F8F7A6
:103F900092FA15495E31A1F13E00F8F78CFA124908
:103FA000A031A1F18000F8F786FA0F4800242030F4
:103FB000F8F717FA0C4AC1B20220A93200EB41000F
:103FC00010700320507002200023A2F1890508E040
:103FD0002E5D1654401CC0B21354401C641CC0B269
:103FE000E4B28C42F4D370BD2804002054000020B9
:103FF000303030300000000010B5124C207830B165
:10400000632211A10020FEF7FBFC022010BD00225C
:1040100011461046FAF760FD08B11A2010BD0020C5
:104020006070A070E070A060E0602071206160614D
:10403000A0614FF480611248F8F753FB0120207013
:10404000002010BDD40000202E2E5C2E2E5C2E2EC3
:104050005C736F757263655C6461706C696E6B5CD8
:10406000647261672D6E2D64726F705C6961705F40
:10407000666C6173685F696E74662E630000000091
:10408000B00F002010B5002305E0DC0021FA04F495
:10409000C4545B1CDBB29342F7D310BD2DE9F05F33
:1040A000DFF8C89004468B4699F800002E4D17465D
:1040B0004FF00061012808D04FF4BD722CA1002000
:1040C000FEF79EFC0220BDE8F09F8A46544501D3CE
:1040D000AC4201D31F20F6E7FFF72AF8A0B32E1B4E
:1040E000301FB84201D93A4600E0321F5946D9F88C
:1040F0001800FEF7AFFF8046C9F818002A4884422E
:1041000009D22A48A4F1006420443A465946F8F7F7
:10411000DEF90020D7E7E019A84223D10BEB060017
:1041200010F8015C001FF8F725FB65F31F604D4692
:10413000804501D02320C6E75A4639462046FFF77E
:104140006DFD10B11C20BEE70CE04FF480621749F2
:104150005046FEF7ABFF0446FFF774FE012068707F
:104160002046B0E72220AEE700BC0008D4000020C3
:104170002E2E5C2E2E5C2E2E5C736F757263655C2A
:104180006461706C696E6B5C647261672D6E2D6426
:10419000726F705C6961705F666C6173685F696E95
:1041A00074662E630000000000040008B00F0020B9
:1041B00070B513490446114809784FF0006501298C
:1041C00007D04FF4DE720FA10020FEF719FC022089
:1041D00070BDAC4201D3844201D31F2070BDFEF7F5
:1041E000A7FF48B1AC4207D12846BDE870404FF464
:1041F00080621249FEF75ABF222070BD00BC000841
:10420000D40000202E2E5C2E2E5C2E2E5C736F753B
:104210007263655C6461706C696E6B5C647261672B
:104220002D6E2D64726F705C6961705F666C617376
:10423000685F696E74662E630000000000C00008AD
:104240000246084810B500EB810050F8040C002825
:1042500006D0114601F0DEF9BDE8104001F0CAB900
:1042600010BD00006C0A0020084910B5064808601F
:1042700001F0EAFBF7F7AEFF054A06490648DFF80A
:104280001CC000DF002010BD00C0000808ED00E0E9
:10429000C00500200A20030001430108E15701087E
:1042A000024901224A700871704700006000002036
:1042B000024901220A70C8707047000060000020A7
:1042C000024901228A704871704700006000002096
:1042D0000348DFF810C081684FF4006000DF7047CA
:1042E00060000020E95101080348DFF810C0816830
:1042F000042000DF7047000060000020E951010841
:1043000000273E463D464FF01608BA46FEF716FD1A
:10431000FEF79BFBDFF828C200DF8A4CA060FFF7A6
:104320009BFC3846FFF75AFD3046FFF74BFD284609
:10433000FFF760FDF9F7B6FA00F091FB00F090FB93
:10434000FFF710FE03F0F6F9012003F03DFD002019
:1043500003F004F90120E0714FF00B0B00237A4ABF
:1043600048F60B017948DFF8E8C100DFB9460022C2
:104370004FF6FF7140F63720DFF8D8C100DFDFF8D5
:10438000D8C100DF0446800508D56E48807918B191
:104390000120DFF8C8C100DFFCF784FF600702D509
:1043A000022002F061FBE00612D5032002F05CFB64
:1043B0000020FFF705FD002003F0D0F80020FFF7F4
:1043C0000DFD0020FFF7FEFC0020FFF713FDFEE7C8
:1043D000A00602D5032002F047FB200501D5FEF719
:1043E00065FBE0073BD05A2003F026FD5548C07915
:1043F000F8B101280DD003281CD005282FD1514930
:10440000002081F80790FFF7DBFC002003F0A6F8FE
:1044100025E0BBF1000F04D0ABF101005FEA000B17
:104420001DD1012003F09AF8464803214FF01608E9
:10443000C17114E003F08AF830B10120FFF7C0FC2D
:1044400040480221C1710AE0B8F1000F04D0A8F180
:1044500001005FEA000802D10120FFF7B1FCA007CC
:1044600085D5BAF1000F03D0FFF7ECFB68B111E07E
:10447000FFF7E8FB70B13A480068C069804748B967
:10448000002002F0F1FA012003E0022002F0ECFA31
:10449000002082462B4C207850B1E078012824D0AF
:1044A000022822D0002784F800903846FFF796FCB7
:1044B000A07850B16079012825D0022823D00025AA
:1044C00084F802902846FFF795FC607800283FF4B6
:1044D0004EAF2079012824D0022822D0002684F86B
:1044E00001903046FFF76EFC41E7012F01D0012714
:1044F00000E00027002FD8D10128D6D184F8009001
:1045000084F80390D1E7012D01D0012500E00025BA
:10451000002DD7D10128D5D184F8029084F80590D8
:10452000D0E7012E01D0012600E00026002ED8D1D0
:104530000128D6D184F8019084F80490D1E70000D6
:10454000395A01086000002038050020816A0108FE
:10455000BD590108495201089151010889510108CA
:10456000BC86010801498871704700006000002086
:10457000FFF71AB910B5044640F20111F8F7B1F887
:1045800000F064FD00202070BDE81040FFF70CB97A
:10459000012805D0022805D003280BD0D12202E043
:1045A000C52200E0C92204A10020FEF729FAFBF78A
:1045B000BFFCFEE7CD22F6E72E2E5C2E2E5C2E2EC3
:1045C0005C736F757263655C6461706C696E6B5C63
:1045D0005254585F436F6E6669672E630000000097
:1045E000FEE70000074801684FF0E020416100212C
:1045F0008161072101610448016841F07F41016048
:10460000401770478086010820ED00E07047704732
:1046100070B58EB00CA907A8F9F754FD0B98B0F54A
:10462000005F05D0B0F5205F23D0B0F5405F22D009
:1046300001202549274D00240968B1FBF0F02349EA
:10464000B0FBF1F62248C5E90004761EC5E9036413
:104650002148AC606C61816941F4006181618069CD
:1046600000F400600D902846FAF72BF928B1542287
:1046700023E00220DDE70420DBE71648FAF73DF9E6
:1046800008B15A2219E07020CDE900040294039485
:1046900004940594002269460E480694FAF7A9F896
:1046A00008B1672209E029687008486300210948B9
:1046B000FAF740F9002804D06E2208A10020FEF786
:1046C0009FF90EB070BD00002801002000127A0092
:1046D000002C014034210020001002402E2E5C2EC0
:1046E0002E5C2E2E5C736F757263655C6869635F08
:1046F00068616C5C73746D33325C73746D333266F5
:1047000031303378625C6770696F2E63000000009F
:104710002DE9FF5F05460198109C05EB000A7F4FCD
:1047200000202060F878DFF8F8B19946002818D00A
:104730000020F8705E469BF80020311D1846F7F700
:10474000C6FE307821688144084420607868727819
:10475000010CB078090442EA002001433078084493
:104760007860C0E028780A2813D00D2811D03A28A4
:104770007ED0397800297CD0FEF7D2FC00F00F0201
:1047800078781BF800301A430BF80020401C787032
:10479000A4E0634A0021084613785B1D04E0165C20
:1047A000401C3144C9B2C0B28342F8D809B10426D2
:1047B0009DE0B878002840D10120B8709BF8021025
:1047C0009BF801205E4642EA012191FA91F88BF8AC
:1047D00001804FEA18218BF802109BF8030030B1DA
:1047E00001282BD002282BD004287BD145E04C494E
:1047F000252201F12500F7F76AFE7868010C09040B
:1048000041EA0801814203D00120F87002266EE0DF
:104810003278311D4846F7F75AFE307821688144D6
:10482000084420607868B17872786FF30F0042EA2C
:104830000121084331780844786053E0012656E0AE
:1048400021680E98FF22411A4846F7F742FF206878
:104850007968091A0F9801600198AAEB0501411ABD
:10486000029801609BF804109BF80500090301E021
:1048700022E02AE041EA001019E021680E98FF22A8
:10488000411A4846F7F725FF20687968091A0F98FA
:1048900001600198AAEB0501411A029801609BF89A
:1048A00005109BF8042042EA012040BA0004786019
:1048B000022004B0BDE8F09F25211948F7F711FF49
:1048C000002038707870B8700CE07978252922D2F1
:1048D000FEF726FC7A7801010BF802103878D0B187
:1048E000002038706D1C55457FF43CAF00262168D0
:1048F0000E98FF22411A4846F7F7EBFE20687968C8
:10490000091A0F9801600198AAEB0501411A029853
:1049100001603046CDE70120E3E70000F000002011
:10492000B013002070B5012A12D0022A10D0002343
:1049300001248C400F268D00082911D3203D4168A9
:10494000AE40B14341604168AB400B4343600FE070
:104950000823EDE7046170BD022AFCD1446170BDFB
:104960000168AE40B14301600168AB400B43036096
:10497000012AF1D1EEE770B5012A12D0022A10D037
:10498000002301248C400F268D00082911D3203DDF
:104990004168AE40B14341604168AB400B43436066
:1049A0000FE00823EDE7046170BD022AFCD14461E9
:1049B00070BD0168AE40B14301600168AB400B437C
:1049C0000360012AF1D1EEE710B50F2303248A001A
:1049D000082909D3203A41689340994341604168CE
:1049E00094400C43446010BD0168934099430160BA
:1049F000016894402143016010BD10B50F230324CA
:104A00008A00082909D3203A4168934099434160BC
:104A1000416894400C43446010BD01689340994341
:104A20000160016894402143016010BD10B50F235F
:104A300007248A00082909D3203A41689340994302
:104A40004160416894400C43446010BD016893404C
:104A500099430160016894402143016010BD704793
:104A60007047000070B5134D0646EFF3108000F05C
:104A7000010472B62846F8F795FF04B962B600281B
:104A800016D1FF2210210C48F7F723FE09223146E8
:104A90000948F7F71CFDEFF3108000F0010472B62F
:104AA000054A10212846FAF761FD002C00D162B6B4
:104AB00070BD000000FC0108982800202DE9F05F7F
:104AC000DFF800810446DFF8F89098F800001546FA
:104AD0008B46012805D0A3223BA10020FDF790FFC3
:104AE0003FE04FF48060B4FBF0F300FB134301465A
:104AF00002260BB1AC222EE00A46954204D3B5FB48
:104B0000F0F302FB135008B1B32224E0B4FBF1F040
:104B100002FB10402844884201D9BA221BE098F8D1
:104B2000020078B998F8030050B1D8F80800844220
:104B300004D3D8F80C100844A04203D8C8220AE0D5
:104B4000C22208E098F8040070B1D8E904010844D2
:104B5000A04209D0D0221CA10020FDF751FF88F807
:104B600000600220BDE8F09F25486719844202D208
:104B70002448874217D84FF0010A88F804A02A4633
:104B800059462046C8E90445FFF788FA222804D090
:104B90000028E7D088F80060E4E75A462946204616
:104BA000FFF73CF818B188F800601C20DAE74F45A1
:104BB00003D3FFF747F988F801A00020D2E70000EF
:104BC00000BC0008D40000202E2E5C2E2E5C2E2E61
:104BD0005C736F757263655C6461706C696E6B5C4D
:104BE000647261672D6E2D64726F705C6961705FB5
:104BF000666C6173685F696E74662E630000000006
:104C000000FC010800C000084FF4806070470000FD
:104C100070B514460E46054620444FF48061B1EB52
:104C2000402F07D240F22E220AA10020FDF7E8FE15
:104C3000002070BD4FF400713046F7F752FD35B9D2
:104C400011481249006942013046F7F740FC600202
:104C500070BD00002E2E5C2E2E5C2E2E5C736F75A8
:104C60007263655C6461706C696E6B5C64726167D1
:104C70002D6E2D64726F705C7669727475616C5FF5
:104C800066732E63000000000C010020341D00201C
:104C900010B50B464FF4007408B1002010BD224639
:104CA00002491846F7F713FC204610BD741A00207D
:104CB0002DE9F8430C4600210E46009110B100206A
:104CC000BDE8F883DFF8C88098F80000012845D0D7
:104CD000022845D0002720462EA102F0E5FD05461A
:104CE00060192FA102F0E0FD054460192E4902F081
:104CF000DBFD054460192DA102F0D6FD05446019C5
:104D00002BA102F0D1FD05446019B8F8021002F0A1
:104D1000D4FD0544601925A102F0C6FD054477B114
:104D2000601925A102F0C0FD05446019394602F062
:104D3000BBFD054460191DA102F0B6FD054468469F
:104D4000FEF7ACF8070021D00098F8B160191DA15A
:104D500002F0AAFD05444FF4007811E01CA7BAE761
:104D60001EA7B8E7009850F82610761CF6B2601916
:104D700002F072FD054460190CA102F095FD054496
:104D8000BE4203D205F10A004045EBD3284697E71F
:104D9000040100204173736572740D0A0000000065
:104DA00046696C653A200000301800200D0A0000AA
:104DB0004C696E653A200000536F757263653A2046
:104DC0000000000048657864756D70730D0A00007E
:104DD000426F6F746C6F6164657200004170706C3B
:104DE00069636174696F6E000A4608B100207047FC
:104DF0004FF40071104602F085B900002DE9F0472C
:104E00000D46044603F010F80646FEF759FA074629
:104E10003046FEF779FA064614B10020BDE8F08767
:104E200028461B4902F040FD04462819394602F085
:104E30003BFD0444281917A102F036FD144904442F
:104E40002819C91F02F030FD044400274FF0010863
:104E5000DFF8449013E0B8F1000F04D128190FA136
:104E600002F022FD0444F00707D059F82710281952
:104E700002F01AFD04444FF0000876087F1C0EB1C2
:104E8000052FE8D3281903A102F00EFD2044C5E741
:104E9000278701080D0A0000308801082C20000037
:104EA00070B50C4608B1002070BD4FF4007529465E
:104EB0002046F7F716FC0748F7F793FA024605492C
:104EC0002046F7F704FB29462046BDE87040FEF770
:104ED00025BA00002F8701082DE9F041084D06464C
:104EE0000F462846F7F77DFA044616B10020BDE8C4
:104EF000F081024629463846F7F7E9FA2046F6E7F8
:104F00006C97010810B50B464FF4007408B10020EF
:104F100010BD224602491846F7F7D9FA204610BDBF
:104F20007418002006490B68091D0A68091D0968E4
:104F30000360C0E901214FF0A531C1607047000056
:104F4000E8F7FF1F10B5084654022146F7F7C9FBE2
:104F5000204610BD70B5244D4FF0FF346878A97815
:104F6000884201D0012000E0002040F2F1121FA190
:104F7000FDF746FD6878022803D0C0B101281AD099
:104F800022E027484FF4FA7490F82000E0B101289D
:104F90000AD0022818D0032816D040F2032213A109
:104FA0000020FDF72DFD0FE044F620640CE0A8780A
:104FB000022808D008E0A878022801D018B103E040
:104FC00040F6C41400E00024601C05D140F2132216
:104FD00006A1FDF715FD0024A868A04201D9012013
:104FE00070BD002070BD0000F80000202E2E5C2E49
:104FF0002E5C2E2E5C736F757263655C6461706CE1
:10500000696E6B5C647261672D6E2D64726F705C8B
:105010007666735F6D616E616765722E6300000076
:10502000FC15002070B5034600200246012609E069
:10503000DC0704D08D1A6D1E06FA05F420435B08C8
:10504000521CD2B28A42F3D370BD000010B52521A4
:105050000748F7F746FB064825212530F7F741FBBF
:10506000044800214160017041708170C17010BD21
:10507000B0130020F00000200146EFF3108000F094
:10508000010272B6086808B103680B60002A00D1FB
:1050900062B6704770B50D46002812D04FF6FF710A
:1050A000084C884204D222680146104600F0D4FA27
:1050B00020684570044800F0F8F8BDE8704000F042
:1050C00087BB70BDA0010020A02700207047000012
:1050D00070B51A4EF06800282ED0B08A401EB082FB
:1050E000002523E0A06838B161684160606810B1B4
:1050F000A16881606560A56010482146183800F0FD
:10510000CFFAA08AB0826078042804D10C49E08AE2
:1051100009880844A0820120607084F82000E068BB
:10512000F060E06808B10661E5602561B08A00289A
:1051300002D1F468002CD5D170BD0000B827002042
:10514000A801002070B504000FD00D4DA1780126F4
:105150002868827891420CD900F0BEFA286846701F
:105160002046BDE8704000F033BB064800F09DF8D3
:10517000F7E766702146BDE87040024800F090BA3B
:10518000A0010020A02700200321FFF783BF00001B
:1051900001480068408B7047A001002010B504460C
:1051A000008B084320836278618B062A16D0052A7B
:1051B00017D1084215D001EA000262838843208398
:1051C000204600F0ADFA01206070022084F8200033
:1051D0002146BDE81040034800F062BA31EA0002FF
:1051E000ECD010BDA0270020024670B5154800EB9A
:1051F000810050F8044C002C22D0208B10432083D7
:105200006178658B062918D0052919D1284217D055
:1052100005EA00016183A8432083204600F080FA5C
:10522000208BA843208301206070022084F8200096
:105230002046BDE87040FFF785BF35EA0001EAD09F
:1052400070BD00006C0A002070B503460C480D4686
:105250000468208B42B133EA000101D0062109E045
:1052600098432083022070BD10EA030101D06183BE
:10527000F6E7052163832846FFF70CFF012070BD88
:10528000A0010020814202D342688A4201D8012055
:105290007047EFF3108212F0010F72B603680B60D3
:1052A000016000D162B600207047014640680023CB
:1052B00042684A600A78022A05D0012A03D0032AEC
:1052C00001D04360704742680AB1916043608360D7
:1052D0007047000070B5044600201546207001227A
:1052E0006270A1706060A060E0602061A082E082D6
:1052F0002083608384F8200084F82100608C18B932
:105300000448FFF7B9FEA06229462046BDE8704078
:1053100000F004B8B00900207047000010B5428CBE
:10532000920803D10E4A1288C2F38D02836A03EBFE
:1053300082035A0700D51B1F4FF0807243E9021207
:1053400000221446403B43F82240521C0E2AFAD356
:10535000C2691A624362C162806A0249016010BD7B
:105360007C860108A52E5AE20349044A0968C882CE
:105370001288104488827047A0010020A8010020F4
:105380000748016807488A8A0088CB8A101A1A449D
:1053900080B28A82010402D40421FFF77BBE7047E9
:1053A000A0010020A80100202DE9F041044640683A
:1053B0000F46002620B16078022818D0A08980B35B
:1053C000A089E189884241D2208904EB80000761ED
:1053D00072B6A089401CA08162B62089401C80B2B0
:1053E0002081E189884200D12681BDE8F081667084
:1053F0002046FFF75AFF80F820602189054604EB1C
:105400008101C069086172B6A089401CA08162B6A2
:105410002089401C80B22081E18988420BD12681FD
:1054200009E0FFE72046FFF740FF0546C069042179
:10543000076085F8201001206870284600F070F998
:105440002946BDE8F041044800F02AB9BDE8F04122
:105450000320FFF79DB80000A02700200321017062
:105460000021417041804160816070472DE9F04723
:105470000446408820B1274EA1683268914202D08C
:10548000FF20BDE8F087401E0004000C60803ED184
:1054900031686078DFF88080887061684FF00009BB
:1054A000012739B32046FFF700FF0546052085F8A0
:1054B0002000284600F034F96780A560A878607065
:1054C0003168D8F804008A788078824201D328466F
:1054D0000AE0114800F0E4F829460F4800F0E0F82F
:1054E000306847706F7010E0FFF72CFE316881F86C
:1054F00020900CE0D8F804108A783168824206D9EE
:10550000054800F0CDF8306847700020ECE7002037
:10551000B7E70000A0010020A027002070B5184DBB
:105520000E4604464188286839B1A168814208D1F5
:105530006088401C6080002070BDA0608078607032
:10554000F6E776B162788078824203D28870A068EC
:1055500000F0CCF8606830B12046296800F0A0F86F
:1055600008E0012070BD286860602968002048605C
:105570002868846009213046FFF78CFDF1E70000C0
:10558000A001002070B51848012102685170006820
:1055900000F0A2F8154D6C7812E005EBC4014868E4
:1055A0000278C2B1012A1BD000F0E6F8E878641C4A
:1055B000844200D1002472B6A878401EA87062B65A
:1055C000A8780028E9D16C700948FFF76EFEBDE8A5
:1055D000704000F0FDB8098989B2FFF7DFFDE5E70B
:1055E0008968FFF7E1FEE1E7A0010020480A0020FA
:1055F000A02700200548017811B1012141707047B2
:1056000003494FF080500860704700009801002067
:1056100004ED00E0F0B40F4FBC1CFE783D4672B6BE
:10562000BA78B24207D2521C22702A78531CB34275
:1056300000D100232B7062B6FB78934205D907EBAB
:10564000C202C2E90101F0BC7047F0BC0220FEF7C3
:105650009FBF0000480A0020104A10B5D368ABB1C4
:1056600013469B8A03E08CB12246A48A2344D46863
:105670008B42F8D3C460D0600261C46804B1206179
:10568000591A8182908A401A908210BD0024C46009
:10569000D060C91A02619182848210BDB8270020AF
:1056A00030B502780024022A03D0012A01D0032A4F
:1056B00000D101248B7800E01046426812B1957841
:1056C0009D42F9D24A6041601CB102B1916088608C
:1056D00030BD0020FBE7000003494A684260002219
:1056E0008260486070470000A027002010B58368E2
:1056F00004462BB9607801280ED1084B03E09B6863
:1057000018780028FBD0204600F01EF82146BDE89E
:1057100010401846FFF7C4BF10BD0000A0270020AE
:1057200010B5016900290ED0C268CA60C3680022A2
:105730003BB18B8A848A23448B82C3681961C2601F
:1057400000E08A82026110BD816839B142684A6016
:105750004168002901D0806888607047054906E0EB
:105760004A68824202D14068486070471146002969
:10577000F6D17047A027002010B5416879B1FFF736
:1057800094FD0446FFF7CCFF01206070032084F8ED
:1057900020002146BDE810400348FFF781BF418843
:1057A000491C418010BD0000A02700200648006869
:1057B000D0E90910814203D300680449884202D02D
:1057C0000120FEF7E5BE7047A0010020A52E5AE299
:1057D000024948600221417070470000A00100208A
:1057E0002DE9F0471646414A814688460020054685
:1057F0003D49128802E041F82050401C9042FAD303
:105800003B48302201883B48FDF7B8F83A48008809
:1058100080B240F00042394801683948FDF7AEF8DF
:1058200038480822018838480068FDF7A7F8374C47
:10583000FF27374AE770658400212046FFF74AFDBD
:10584000344804210170456033480170C56005612A
:105850008582606A2030F6F7B7FC30483149046031
:10586000022060702E48057045700978C170FFF7FE
:1058700053FD2D48016841F47F010160006839063D
:1058800001EA00202849C0431439B0FA80F00968C1
:10589000C0F10800C1F30221814200DB481C22490B
:1058A000091F0B686FF08072824063F317020A6071
:1058B000FEF798FE1D49002808600DDB00F1E0218D
:1058C00081F8007400F01F02012191404011800016
:1058D00000F1E020C0F80011324641464846BDE8DC
:1058E000F047002300F06AB86C0A002078860108AF
:1058F00090860108E00800207C8601089486010853
:10590000B00900209A8601086C000020D0270020F2
:10591000E1450108A0270020B8270020A0010020B1
:10592000480A00209886010820ED00E09C01002034
:105930000C4810B50268012151700068FFF7CCFED9
:10594000FFF7C4FB08480168491C0160FFF7C0FB72
:1059500000F014F80548FFF7A8FCBDE81040FFF779
:1059600037BF0000A0010020A8010020A0270020D0
:105970000148006870470000A801002070B50D4D77
:105980002868002815D0A8880B4E401EA8800AE081
:10599000E088FEF73CFEA088A880206828602146A9
:1059A0003068FFF76FFCA888002802D12C68002C13
:1059B000EED170BDAC0100206C0000202DE9F0415B
:1059C0001E46174680460C4611F0FF0F00D14C1CB6
:1059D0001548FFF751FB051E23D0200AAF626884EB
:1059E000E1B242462846EE61FFF774FC10490124FB
:1059F0000E48098805E000EB840252F8042C1AB125
:105A0000641C8C42F7D9002400EB840040F8045C4D
:105A1000EC702846FFF796FB0648006880F82040A7
:105A20002046BDE8F0810000E00800206C0A00205C
:105A300078860108A001002002480068002800D0F4
:105A4000C0787047A001002030B58FB014210AA89B
:105A5000F6F769FE28216846F6F765FEFAF710FAB0
:105A6000F8F7F8F901250024CDE90A5429460AA8D7
:105A7000F8F768FA20B1422216A10020FCF7C0FF17
:105A80004FF48030CDE9005002250294CDE9075053
:105A90004FF4E01009906846F8F7A8FB20B14E22B9
:105AA0000CA10020FCF7ACFF0F20CDE90A054FF454
:105AB0008060CDE90C4002210AA80E94F8F742FA62
:105AC000002804D0592203A10020FCF799FF0FB051
:105AD00030BD00002E2E5C2E2E5C2E2E5C736F755A
:105AE0007263655C6869635F68616C5C73746D3375
:105AF000325C73746D33326631303378625C736458
:105B00006B2E6300002070472DE9F041114C40F6E8
:105B1000C54521462846F9F76BFD0020401C642846
:105B2000FCD30D4E40F6DD4731463846F9F760FDAF
:105B30000020401C6428FCD321462846F9F758FD74
:105B40000020401C6428FCD331463846BDE8F041B3
:105B5000F9F74EBD0CED00E00700FA052DE9F0471E
:105B60000024DFF8AC8025464746264621212948F7
:105B7000C8F80040F6F7B5FD264821212130F6F798
:105B8000B0FD244809214230F6F7CDFD3E71214F8A
:105B9000A7F15E09781959F8241001F05DFE641C24
:105BA0002844E4B2C5B2042CF4D37E550025194F25
:105BB0002C462137A7F16F09781959F8241001F004
:105BC0004BFE641C2844E4B2C5B2042CF4D3104943
:105BD000104C14397E5542342046096801F03CFED1
:105BE000C0B2042226540C4801680948F6F76FFC3D
:105BF000074888F80460401D30210170322141704F
:105C0000352181703121C1700671BDE8F087000037
